
/home/vsadygv/bsides-houston/badges/pico/buttonsexample/build/main.elf:     file format elf32-littlearm

Sections:
Idx Name          Size      VMA       LMA       File off  Algn
  0 .boot2        00000100  10000000  10000000  00001000  2**0
                  CONTENTS, ALLOC, LOAD, READONLY, CODE
  1 .text         000043b8  10000100  10000100  00001100  2**3
                  CONTENTS, ALLOC, LOAD, READONLY, CODE
  2 .rodata       000002b0  100044b8  100044b8  000054b8  2**3
                  CONTENTS, ALLOC, LOAD, READONLY, DATA
  3 .binary_info  0000001c  10004768  10004768  00005768  2**2
                  CONTENTS, ALLOC, LOAD, READONLY, DATA
  4 .ram_vector_table 000000c0  20000000  20000000  00007000  2**2
                  ALLOC
  5 .data         0000018c  200000c0  10004784  000060c0  2**4
                  CONTENTS, ALLOC, LOAD, READONLY, CODE
  6 .uninitialized_data 00000000  2000024c  2000024c  0000624c  2**0
                  CONTENTS
  7 .scratch_x    00000000  20040000  20040000  0000624c  2**0
                  CONTENTS
  8 .scratch_y    00000000  20041000  20041000  0000624c  2**0
                  CONTENTS
  9 .bss          000003c8  20000250  20000250  00007000  2**3
                  ALLOC
 10 .heap         00000800  20000618  20000618  0000624c  2**2
                  CONTENTS, READONLY
 11 .stack_dummy  00000800  20041000  20041000  00006a60  2**5
                  CONTENTS, READONLY
 12 .ARM.attributes 00000028  00000000  00000000  00007260  2**0
                  CONTENTS, READONLY
 13 .comment      00000044  00000000  00000000  00007288  2**0
                  CONTENTS, READONLY
 14 .debug_line_str 000000c2  00000000  00000000  000072cc  2**0
                  CONTENTS, READONLY, DEBUGGING, OCTETS
 15 .debug_frame  00000028  00000000  00000000  00007390  2**2
                  CONTENTS, READONLY, DEBUGGING, OCTETS

/home/vsadygv/bsides-houston/badges/pico/buttonsexample/build/main.elf:     file format elf32-littlearm


Disassembly of section .boot2:

10000000 <__boot2_start__>:
10000000:	4b32b500 	.word	0x4b32b500
10000004:	60582021 	.word	0x60582021
10000008:	21026898 	.word	0x21026898
1000000c:	60984388 	.word	0x60984388
10000010:	611860d8 	.word	0x611860d8
10000014:	4b2e6158 	.word	0x4b2e6158
10000018:	60992100 	.word	0x60992100
1000001c:	61592102 	.word	0x61592102
10000020:	22f02101 	.word	0x22f02101
10000024:	492b5099 	.word	0x492b5099
10000028:	21016019 	.word	0x21016019
1000002c:	20356099 	.word	0x20356099
10000030:	f844f000 	.word	0xf844f000
10000034:	42902202 	.word	0x42902202
10000038:	2106d014 	.word	0x2106d014
1000003c:	f0006619 	.word	0xf0006619
10000040:	6e19f834 	.word	0x6e19f834
10000044:	66192101 	.word	0x66192101
10000048:	66182000 	.word	0x66182000
1000004c:	f000661a 	.word	0xf000661a
10000050:	6e19f82c 	.word	0x6e19f82c
10000054:	6e196e19 	.word	0x6e196e19
10000058:	f0002005 	.word	0xf0002005
1000005c:	2101f82f 	.word	0x2101f82f
10000060:	d1f94208 	.word	0xd1f94208
10000064:	60992100 	.word	0x60992100
10000068:	6019491b 	.word	0x6019491b
1000006c:	60592100 	.word	0x60592100
10000070:	481b491a 	.word	0x481b491a
10000074:	21016001 	.word	0x21016001
10000078:	21eb6099 	.word	0x21eb6099
1000007c:	21a06619 	.word	0x21a06619
10000080:	f0006619 	.word	0xf0006619
10000084:	2100f812 	.word	0x2100f812
10000088:	49166099 	.word	0x49166099
1000008c:	60014814 	.word	0x60014814
10000090:	60992101 	.word	0x60992101
10000094:	2800bc01 	.word	0x2800bc01
10000098:	4700d000 	.word	0x4700d000
1000009c:	49134812 	.word	0x49134812
100000a0:	c8036008 	.word	0xc8036008
100000a4:	8808f380 	.word	0x8808f380
100000a8:	b5034708 	.word	0xb5034708
100000ac:	20046a99 	.word	0x20046a99
100000b0:	d0fb4201 	.word	0xd0fb4201
100000b4:	42012001 	.word	0x42012001
100000b8:	bd03d1f8 	.word	0xbd03d1f8
100000bc:	6618b502 	.word	0x6618b502
100000c0:	f7ff6618 	.word	0xf7ff6618
100000c4:	6e18fff2 	.word	0x6e18fff2
100000c8:	bd026e18 	.word	0xbd026e18
100000cc:	40020000 	.word	0x40020000
100000d0:	18000000 	.word	0x18000000
100000d4:	00070000 	.word	0x00070000
100000d8:	005f0300 	.word	0x005f0300
100000dc:	00002221 	.word	0x00002221
100000e0:	180000f4 	.word	0x180000f4
100000e4:	a0002022 	.word	0xa0002022
100000e8:	10000100 	.word	0x10000100
100000ec:	e000ed08 	.word	0xe000ed08
	...
100000fc:	7a4eb274 	.word	0x7a4eb274

Disassembly of section .text:

10000100 <__VECTOR_TABLE>:
10000100:	20042000 	.word	0x20042000
10000104:	100001f7 	.word	0x100001f7
10000108:	100001c3 	.word	0x100001c3
1000010c:	100001c5 	.word	0x100001c5
10000110:	100001c1 	.word	0x100001c1
10000114:	100001c1 	.word	0x100001c1
10000118:	100001c1 	.word	0x100001c1
1000011c:	100001c1 	.word	0x100001c1
10000120:	100001c1 	.word	0x100001c1
10000124:	100001c1 	.word	0x100001c1
10000128:	100001c1 	.word	0x100001c1
1000012c:	100001c7 	.word	0x100001c7
10000130:	100001c1 	.word	0x100001c1
10000134:	100001c1 	.word	0x100001c1
10000138:	100001c9 	.word	0x100001c9
1000013c:	100001cb 	.word	0x100001cb
10000140:	100001cd 	.word	0x100001cd
10000144:	100001cd 	.word	0x100001cd
10000148:	100001cd 	.word	0x100001cd
1000014c:	100001cd 	.word	0x100001cd
10000150:	100001cd 	.word	0x100001cd
10000154:	100001cd 	.word	0x100001cd
10000158:	100001cd 	.word	0x100001cd
1000015c:	100001cd 	.word	0x100001cd
10000160:	100001cd 	.word	0x100001cd
10000164:	100001cd 	.word	0x100001cd
10000168:	100001cd 	.word	0x100001cd
1000016c:	100001cd 	.word	0x100001cd
10000170:	100001cd 	.word	0x100001cd
10000174:	100001cd 	.word	0x100001cd
10000178:	100001cd 	.word	0x100001cd
1000017c:	100001cd 	.word	0x100001cd
10000180:	100001cd 	.word	0x100001cd
10000184:	100001cd 	.word	0x100001cd
10000188:	100001cd 	.word	0x100001cd
1000018c:	100001cd 	.word	0x100001cd
10000190:	100001cd 	.word	0x100001cd
10000194:	100001cd 	.word	0x100001cd
10000198:	100001cd 	.word	0x100001cd
1000019c:	100001cd 	.word	0x100001cd
100001a0:	100001cd 	.word	0x100001cd
100001a4:	100001cd 	.word	0x100001cd
100001a8:	100001cd 	.word	0x100001cd
100001ac:	100001cd 	.word	0x100001cd
100001b0:	100001cd 	.word	0x100001cd
100001b4:	100001cd 	.word	0x100001cd
100001b8:	100001cd 	.word	0x100001cd
100001bc:	100001cd 	.word	0x100001cd

100001c0 <isr_invalid>:
100001c0:	be00      	bkpt	0x0000

100001c2 <isr_nmi>:
100001c2:	be00      	bkpt	0x0000

100001c4 <isr_hardfault>:
100001c4:	be00      	bkpt	0x0000

100001c6 <isr_svcall>:
100001c6:	be00      	bkpt	0x0000

100001c8 <isr_pendsv>:
100001c8:	be00      	bkpt	0x0000

100001ca <isr_systick>:
100001ca:	be00      	bkpt	0x0000

100001cc <__unhandled_user_irq>:
100001cc:	f3ef 8005 	mrs	r0, IPSR
100001d0:	3810      	subs	r0, #16

100001d2 <unhandled_user_irq_num_in_r0>:
100001d2:	be00      	bkpt	0x0000

100001d4 <binary_info_header>:
100001d4:	7188ebf2 	.word	0x7188ebf2
100001d8:	10004768 	.word	0x10004768
100001dc:	10004784 	.word	0x10004784
100001e0:	10000234 	.word	0x10000234
100001e4:	e71aa390 	.word	0xe71aa390

100001e8 <_entry_point>:
100001e8:	2000      	movs	r0, #0
100001ea:	491f      	ldr	r1, [pc, #124]	@ (10000268 <hold_non_core0_in_bootrom+0xa>)
100001ec:	6008      	str	r0, [r1, #0]
100001ee:	c806      	ldmia	r0!, {r1, r2}
100001f0:	f381 8808 	msr	MSP, r1
100001f4:	4710      	bx	r2

100001f6 <_reset_handler>:
100001f6:	481d      	ldr	r0, [pc, #116]	@ (1000026c <hold_non_core0_in_bootrom+0xe>)
100001f8:	6800      	ldr	r0, [r0, #0]
100001fa:	2800      	cmp	r0, #0
100001fc:	d12f      	bne.n	1000025e <hold_non_core0_in_bootrom>
100001fe:	a40d      	add	r4, pc, #52	@ (adr r4, 10000234 <data_cpy_table>)
10000200:	cc0e      	ldmia	r4!, {r1, r2, r3}
10000202:	2900      	cmp	r1, #0
10000204:	d002      	beq.n	1000020c <_reset_handler+0x16>
10000206:	f000 f812 	bl	1000022e <data_cpy>
1000020a:	e7f9      	b.n	10000200 <_reset_handler+0xa>
1000020c:	4918      	ldr	r1, [pc, #96]	@ (10000270 <hold_non_core0_in_bootrom+0x12>)
1000020e:	4a19      	ldr	r2, [pc, #100]	@ (10000274 <hold_non_core0_in_bootrom+0x16>)
10000210:	2000      	movs	r0, #0
10000212:	e000      	b.n	10000216 <bss_fill_test>

10000214 <bss_fill_loop>:
10000214:	c101      	stmia	r1!, {r0}

10000216 <bss_fill_test>:
10000216:	4291      	cmp	r1, r2
10000218:	d1fc      	bne.n	10000214 <bss_fill_loop>

1000021a <platform_entry>:
1000021a:	4917      	ldr	r1, [pc, #92]	@ (10000278 <hold_non_core0_in_bootrom+0x1a>)
1000021c:	4788      	blx	r1
1000021e:	4917      	ldr	r1, [pc, #92]	@ (1000027c <hold_non_core0_in_bootrom+0x1e>)
10000220:	4788      	blx	r1
10000222:	4917      	ldr	r1, [pc, #92]	@ (10000280 <hold_non_core0_in_bootrom+0x22>)
10000224:	4788      	blx	r1
10000226:	be00      	bkpt	0x0000
10000228:	e7fd      	b.n	10000226 <platform_entry+0xc>

1000022a <data_cpy_loop>:
1000022a:	c901      	ldmia	r1!, {r0}
1000022c:	c201      	stmia	r2!, {r0}

1000022e <data_cpy>:
1000022e:	429a      	cmp	r2, r3
10000230:	d3fb      	bcc.n	1000022a <data_cpy_loop>
10000232:	4770      	bx	lr

10000234 <data_cpy_table>:
10000234:	10004784 	.word	0x10004784
10000238:	200000c0 	.word	0x200000c0
1000023c:	2000024c 	.word	0x2000024c
10000240:	10004910 	.word	0x10004910
10000244:	20040000 	.word	0x20040000
10000248:	20040000 	.word	0x20040000
1000024c:	10004910 	.word	0x10004910
10000250:	20041000 	.word	0x20041000
10000254:	20041000 	.word	0x20041000
10000258:	00000000 	.word	0x00000000
1000025c:	4770      	bx	lr

1000025e <hold_non_core0_in_bootrom>:
1000025e:	4809      	ldr	r0, [pc, #36]	@ (10000284 <hold_non_core0_in_bootrom+0x26>)
10000260:	f003 f848 	bl	100032f4 <rom_func_lookup>
10000264:	4700      	bx	r0
10000266:	0000      	.short	0x0000
10000268:	e000ed08 	.word	0xe000ed08
1000026c:	d0000000 	.word	0xd0000000
10000270:	20000250 	.word	0x20000250
10000274:	20000618 	.word	0x20000618
10000278:	10001a51 	.word	0x10001a51
1000027c:	10000309 	.word	0x10000309
10000280:	10001b45 	.word	0x10001b45
10000284:	00005657 	.word	0x00005657

10000288 <__bi_50>:
10000288:	50520006 5360b3ab 10004530              ..RP..`S0E..

10000294 <__bi_38>:
10000294:	50520006 02031c86 10004540              ..RP....@E..

100002a0 <__bi_30>:
100002a0:	50520006 9da22254 10004548              ..RPT"..HE..

100002ac <__bi_22>:
100002ac:	50520005 68f465de 10004910              ..RP.e.h.I..

100002b8 <_init>:
100002b8:	b5f8      	push	{r3, r4, r5, r6, r7, lr}
100002ba:	46c0      	nop			@ (mov r8, r8)

100002bc <register_tm_clones>:
100002bc:	4806      	ldr	r0, [pc, #24]	@ (100002d8 <register_tm_clones+0x1c>)
100002be:	4907      	ldr	r1, [pc, #28]	@ (100002dc <register_tm_clones+0x20>)
100002c0:	1a09      	subs	r1, r1, r0
100002c2:	108b      	asrs	r3, r1, #2
100002c4:	0fc9      	lsrs	r1, r1, #31
100002c6:	18c9      	adds	r1, r1, r3
100002c8:	b510      	push	{r4, lr}
100002ca:	1049      	asrs	r1, r1, #1
100002cc:	d003      	beq.n	100002d6 <register_tm_clones+0x1a>
100002ce:	4b04      	ldr	r3, [pc, #16]	@ (100002e0 <register_tm_clones+0x24>)
100002d0:	2b00      	cmp	r3, #0
100002d2:	d000      	beq.n	100002d6 <register_tm_clones+0x1a>
100002d4:	4798      	blx	r3
100002d6:	bd10      	pop	{r4, pc}
100002d8:	2000024c 	.word	0x2000024c
100002dc:	2000024c 	.word	0x2000024c
100002e0:	00000000 	.word	0x00000000

100002e4 <frame_dummy>:
100002e4:	4b05      	ldr	r3, [pc, #20]	@ (100002fc <frame_dummy+0x18>)
100002e6:	b510      	push	{r4, lr}
100002e8:	2b00      	cmp	r3, #0
100002ea:	d003      	beq.n	100002f4 <frame_dummy+0x10>
100002ec:	4904      	ldr	r1, [pc, #16]	@ (10000300 <frame_dummy+0x1c>)
100002ee:	4805      	ldr	r0, [pc, #20]	@ (10000304 <frame_dummy+0x20>)
100002f0:	e000      	b.n	100002f4 <frame_dummy+0x10>
100002f2:	bf00      	nop
100002f4:	f7ff ffe2 	bl	100002bc <register_tm_clones>
100002f8:	bd10      	pop	{r4, pc}
100002fa:	46c0      	nop			@ (mov r8, r8)
100002fc:	00000000 	.word	0x00000000
10000300:	200005d4 	.word	0x200005d4
10000304:	100044b8 	.word	0x100044b8

10000308 <main>:
10000308:	b5f0      	push	{r4, r5, r6, r7, lr}
1000030a:	46de      	mov	lr, fp
1000030c:	4657      	mov	r7, sl
1000030e:	464e      	mov	r6, r9
10000310:	4645      	mov	r5, r8
10000312:	b5e0      	push	{r5, r6, r7, lr}
10000314:	201c      	movs	r0, #28
10000316:	b08f      	sub	sp, #60	@ 0x3c
10000318:	f000 f928 	bl	1000056c <gpio_init>
1000031c:	201a      	movs	r0, #26
1000031e:	f000 f925 	bl	1000056c <gpio_init>
10000322:	2015      	movs	r0, #21
10000324:	f000 f922 	bl	1000056c <gpio_init>
10000328:	2010      	movs	r0, #16
1000032a:	f000 f91f 	bl	1000056c <gpio_init>
1000032e:	201b      	movs	r0, #27
10000330:	f000 f91c 	bl	1000056c <gpio_init>
10000334:	2014      	movs	r0, #20
10000336:	f000 f919 	bl	1000056c <gpio_init>
1000033a:	2011      	movs	r0, #17
1000033c:	f000 f916 	bl	1000056c <gpio_init>
10000340:	2016      	movs	r0, #22
10000342:	f000 f913 	bl	1000056c <gpio_init>
10000346:	2013      	movs	r0, #19
10000348:	f000 f910 	bl	1000056c <gpio_init>
1000034c:	2012      	movs	r0, #18
1000034e:	f000 f90d 	bl	1000056c <gpio_init>
10000352:	2019      	movs	r0, #25
10000354:	f000 f90a 	bl	1000056c <gpio_init>
10000358:	24d0      	movs	r4, #208	@ 0xd0
1000035a:	2380      	movs	r3, #128	@ 0x80
1000035c:	0624      	lsls	r4, r4, #24
1000035e:	049b      	lsls	r3, r3, #18
10000360:	6263      	str	r3, [r4, #36]	@ 0x24
10000362:	2380      	movs	r3, #128	@ 0x80
10000364:	055b      	lsls	r3, r3, #21
10000366:	62a3      	str	r3, [r4, #40]	@ 0x28
10000368:	2380      	movs	r3, #128	@ 0x80
1000036a:	04db      	lsls	r3, r3, #19
1000036c:	62a3      	str	r3, [r4, #40]	@ 0x28
1000036e:	2380      	movs	r3, #128	@ 0x80
10000370:	039b      	lsls	r3, r3, #14
10000372:	62a3      	str	r3, [r4, #40]	@ 0x28
10000374:	2380      	movs	r3, #128	@ 0x80
10000376:	025b      	lsls	r3, r3, #9
10000378:	62a3      	str	r3, [r4, #40]	@ 0x28
1000037a:	2380      	movs	r3, #128	@ 0x80
1000037c:	051b      	lsls	r3, r3, #20
1000037e:	62a3      	str	r3, [r4, #40]	@ 0x28
10000380:	2380      	movs	r3, #128	@ 0x80
10000382:	035b      	lsls	r3, r3, #13
10000384:	62a3      	str	r3, [r4, #40]	@ 0x28
10000386:	2380      	movs	r3, #128	@ 0x80
10000388:	029b      	lsls	r3, r3, #10
1000038a:	62a3      	str	r3, [r4, #40]	@ 0x28
1000038c:	2380      	movs	r3, #128	@ 0x80
1000038e:	03db      	lsls	r3, r3, #15
10000390:	62a3      	str	r3, [r4, #40]	@ 0x28
10000392:	2380      	movs	r3, #128	@ 0x80
10000394:	031b      	lsls	r3, r3, #12
10000396:	62a3      	str	r3, [r4, #40]	@ 0x28
10000398:	2380      	movs	r3, #128	@ 0x80
1000039a:	02db      	lsls	r3, r3, #11
1000039c:	62a3      	str	r3, [r4, #40]	@ 0x28
1000039e:	2300      	movs	r3, #0
100003a0:	2601      	movs	r6, #1
100003a2:	2700      	movs	r7, #0
100003a4:	2501      	movs	r5, #1
100003a6:	469b      	mov	fp, r3
100003a8:	469a      	mov	sl, r3
100003aa:	4699      	mov	r9, r3
100003ac:	4698      	mov	r8, r3
100003ae:	930c      	str	r3, [sp, #48]	@ 0x30
100003b0:	930b      	str	r3, [sp, #44]	@ 0x2c
100003b2:	930a      	str	r3, [sp, #40]	@ 0x28
100003b4:	9308      	str	r3, [sp, #32]
100003b6:	9306      	str	r3, [sp, #24]
100003b8:	9301      	str	r3, [sp, #4]
100003ba:	9300      	str	r3, [sp, #0]
100003bc:	9305      	str	r3, [sp, #20]
100003be:	9304      	str	r3, [sp, #16]
100003c0:	9302      	str	r3, [sp, #8]
100003c2:	9303      	str	r3, [sp, #12]
100003c4:	9309      	str	r3, [sp, #36]	@ 0x24
100003c6:	9307      	str	r3, [sp, #28]
100003c8:	4b67      	ldr	r3, [pc, #412]	@ (10000568 <main+0x260>)
100003ca:	4276      	negs	r6, r6
100003cc:	930d      	str	r3, [sp, #52]	@ 0x34
100003ce:	1c73      	adds	r3, r6, #1
100003d0:	d05c      	beq.n	1000048c <main+0x184>
100003d2:	2380      	movs	r3, #128	@ 0x80
100003d4:	049b      	lsls	r3, r3, #18
100003d6:	6163      	str	r3, [r4, #20]
100003d8:	9b07      	ldr	r3, [sp, #28]
100003da:	2b00      	cmp	r3, #0
100003dc:	d100      	bne.n	100003e0 <main+0xd8>
100003de:	e0a2      	b.n	10000526 <main+0x21e>
100003e0:	6863      	ldr	r3, [r4, #4]
100003e2:	002a      	movs	r2, r5
100003e4:	40f3      	lsrs	r3, r6
100003e6:	401a      	ands	r2, r3
100003e8:	9207      	str	r2, [sp, #28]
100003ea:	421d      	tst	r5, r3
100003ec:	d104      	bne.n	100003f8 <main+0xf0>
100003ee:	2380      	movs	r3, #128	@ 0x80
100003f0:	2601      	movs	r6, #1
100003f2:	049b      	lsls	r3, r3, #18
100003f4:	61a3      	str	r3, [r4, #24]
100003f6:	4276      	negs	r6, r6
100003f8:	2001      	movs	r0, #1
100003fa:	f000 fdb7 	bl	10000f6c <sleep_ms>
100003fe:	9a03      	ldr	r2, [sp, #12]
10000400:	2300      	movs	r3, #0
10000402:	2a04      	cmp	r2, #4
10000404:	d104      	bne.n	10000410 <main+0x108>
10000406:	9b09      	ldr	r3, [sp, #36]	@ 0x24
10000408:	3b07      	subs	r3, #7
1000040a:	425a      	negs	r2, r3
1000040c:	4153      	adcs	r3, r2
1000040e:	b2db      	uxtb	r3, r3
10000410:	9a02      	ldr	r2, [sp, #8]
10000412:	3a09      	subs	r2, #9
10000414:	4251      	negs	r1, r2
10000416:	414a      	adcs	r2, r1
10000418:	4252      	negs	r2, r2
1000041a:	4013      	ands	r3, r2
1000041c:	9a04      	ldr	r2, [sp, #16]
1000041e:	3a02      	subs	r2, #2
10000420:	4251      	negs	r1, r2
10000422:	414a      	adcs	r2, r1
10000424:	4252      	negs	r2, r2
10000426:	4013      	ands	r3, r2
10000428:	9a05      	ldr	r2, [sp, #20]
1000042a:	3a02      	subs	r2, #2
1000042c:	4251      	negs	r1, r2
1000042e:	414a      	adcs	r2, r1
10000430:	4252      	negs	r2, r2
10000432:	4013      	ands	r3, r2
10000434:	9a00      	ldr	r2, [sp, #0]
10000436:	3a05      	subs	r2, #5
10000438:	4251      	negs	r1, r2
1000043a:	414a      	adcs	r2, r1
1000043c:	4252      	negs	r2, r2
1000043e:	4013      	ands	r3, r2
10000440:	9a01      	ldr	r2, [sp, #4]
10000442:	3a08      	subs	r2, #8
10000444:	4251      	negs	r1, r2
10000446:	414a      	adcs	r2, r1
10000448:	4252      	negs	r2, r2
1000044a:	4013      	ands	r3, r2
1000044c:	9a06      	ldr	r2, [sp, #24]
1000044e:	3a01      	subs	r2, #1
10000450:	4251      	negs	r1, r2
10000452:	414a      	adcs	r2, r1
10000454:	4252      	negs	r2, r2
10000456:	4013      	ands	r3, r2
10000458:	4642      	mov	r2, r8
1000045a:	3a07      	subs	r2, #7
1000045c:	4251      	negs	r1, r2
1000045e:	414a      	adcs	r2, r1
10000460:	4252      	negs	r2, r2
10000462:	4013      	ands	r3, r2
10000464:	464a      	mov	r2, r9
10000466:	3a01      	subs	r2, #1
10000468:	4251      	negs	r1, r2
1000046a:	414a      	adcs	r2, r1
1000046c:	4252      	negs	r2, r2
1000046e:	4013      	ands	r3, r2
10000470:	4652      	mov	r2, sl
10000472:	3a03      	subs	r2, #3
10000474:	4251      	negs	r1, r2
10000476:	414a      	adcs	r2, r1
10000478:	4252      	negs	r2, r2
1000047a:	4013      	ands	r3, r2
1000047c:	465a      	mov	r2, fp
1000047e:	2a07      	cmp	r2, #7
10000480:	d042      	beq.n	10000508 <main+0x200>
10000482:	2380      	movs	r3, #128	@ 0x80
10000484:	049b      	lsls	r3, r3, #18
10000486:	61a3      	str	r3, [r4, #24]
10000488:	1c73      	adds	r3, r6, #1
1000048a:	d1a2      	bne.n	100003d2 <main+0xca>
1000048c:	6863      	ldr	r3, [r4, #4]
1000048e:	0c9b      	lsrs	r3, r3, #18
10000490:	421d      	tst	r5, r3
10000492:	d001      	beq.n	10000498 <main+0x190>
10000494:	2612      	movs	r6, #18
10000496:	2709      	movs	r7, #9
10000498:	6863      	ldr	r3, [r4, #4]
1000049a:	0cdb      	lsrs	r3, r3, #19
1000049c:	421d      	tst	r5, r3
1000049e:	d001      	beq.n	100004a4 <main+0x19c>
100004a0:	2613      	movs	r6, #19
100004a2:	2708      	movs	r7, #8
100004a4:	6863      	ldr	r3, [r4, #4]
100004a6:	0d9b      	lsrs	r3, r3, #22
100004a8:	421d      	tst	r5, r3
100004aa:	d001      	beq.n	100004b0 <main+0x1a8>
100004ac:	2616      	movs	r6, #22
100004ae:	2707      	movs	r7, #7
100004b0:	6863      	ldr	r3, [r4, #4]
100004b2:	0c5b      	lsrs	r3, r3, #17
100004b4:	421d      	tst	r5, r3
100004b6:	d001      	beq.n	100004bc <main+0x1b4>
100004b8:	2611      	movs	r6, #17
100004ba:	2706      	movs	r7, #6
100004bc:	6863      	ldr	r3, [r4, #4]
100004be:	0d1b      	lsrs	r3, r3, #20
100004c0:	421d      	tst	r5, r3
100004c2:	d001      	beq.n	100004c8 <main+0x1c0>
100004c4:	2614      	movs	r6, #20
100004c6:	2705      	movs	r7, #5
100004c8:	6863      	ldr	r3, [r4, #4]
100004ca:	0edb      	lsrs	r3, r3, #27
100004cc:	421d      	tst	r5, r3
100004ce:	d001      	beq.n	100004d4 <main+0x1cc>
100004d0:	261b      	movs	r6, #27
100004d2:	2704      	movs	r7, #4
100004d4:	6863      	ldr	r3, [r4, #4]
100004d6:	0c1b      	lsrs	r3, r3, #16
100004d8:	421d      	tst	r5, r3
100004da:	d001      	beq.n	100004e0 <main+0x1d8>
100004dc:	2610      	movs	r6, #16
100004de:	2703      	movs	r7, #3
100004e0:	6863      	ldr	r3, [r4, #4]
100004e2:	0d5b      	lsrs	r3, r3, #21
100004e4:	421d      	tst	r5, r3
100004e6:	d001      	beq.n	100004ec <main+0x1e4>
100004e8:	2615      	movs	r6, #21
100004ea:	2702      	movs	r7, #2
100004ec:	6863      	ldr	r3, [r4, #4]
100004ee:	0e9b      	lsrs	r3, r3, #26
100004f0:	421d      	tst	r5, r3
100004f2:	d001      	beq.n	100004f8 <main+0x1f0>
100004f4:	261a      	movs	r6, #26
100004f6:	2701      	movs	r7, #1
100004f8:	6863      	ldr	r3, [r4, #4]
100004fa:	0f1b      	lsrs	r3, r3, #28
100004fc:	421d      	tst	r5, r3
100004fe:	d100      	bne.n	10000502 <main+0x1fa>
10000500:	e77a      	b.n	100003f8 <main+0xf0>
10000502:	261c      	movs	r6, #28
10000504:	2700      	movs	r7, #0
10000506:	e777      	b.n	100003f8 <main+0xf0>
10000508:	9a08      	ldr	r2, [sp, #32]
1000050a:	2a02      	cmp	r2, #2
1000050c:	d1b9      	bne.n	10000482 <main+0x17a>
1000050e:	9a0a      	ldr	r2, [sp, #40]	@ 0x28
10000510:	2a06      	cmp	r2, #6
10000512:	d1b6      	bne.n	10000482 <main+0x17a>
10000514:	9a0b      	ldr	r2, [sp, #44]	@ 0x2c
10000516:	2a00      	cmp	r2, #0
10000518:	d1b3      	bne.n	10000482 <main+0x17a>
1000051a:	2b00      	cmp	r3, #0
1000051c:	d0b1      	beq.n	10000482 <main+0x17a>
1000051e:	2380      	movs	r3, #128	@ 0x80
10000520:	049b      	lsls	r3, r3, #18
10000522:	6163      	str	r3, [r4, #20]
10000524:	e753      	b.n	100003ce <main+0xc6>
10000526:	0039      	movs	r1, r7
10000528:	980d      	ldr	r0, [sp, #52]	@ 0x34
1000052a:	f003 ff67 	bl	100043fc <__wrap_printf>
1000052e:	9b03      	ldr	r3, [sp, #12]
10000530:	9309      	str	r3, [sp, #36]	@ 0x24
10000532:	9b02      	ldr	r3, [sp, #8]
10000534:	9303      	str	r3, [sp, #12]
10000536:	9b04      	ldr	r3, [sp, #16]
10000538:	9302      	str	r3, [sp, #8]
1000053a:	9b05      	ldr	r3, [sp, #20]
1000053c:	9304      	str	r3, [sp, #16]
1000053e:	9b00      	ldr	r3, [sp, #0]
10000540:	9305      	str	r3, [sp, #20]
10000542:	9b01      	ldr	r3, [sp, #4]
10000544:	9300      	str	r3, [sp, #0]
10000546:	9b06      	ldr	r3, [sp, #24]
10000548:	9301      	str	r3, [sp, #4]
1000054a:	4643      	mov	r3, r8
1000054c:	9306      	str	r3, [sp, #24]
1000054e:	9b08      	ldr	r3, [sp, #32]
10000550:	46c8      	mov	r8, r9
10000552:	46d1      	mov	r9, sl
10000554:	46da      	mov	sl, fp
10000556:	469b      	mov	fp, r3
10000558:	9b0a      	ldr	r3, [sp, #40]	@ 0x28
1000055a:	9308      	str	r3, [sp, #32]
1000055c:	9b0b      	ldr	r3, [sp, #44]	@ 0x2c
1000055e:	930a      	str	r3, [sp, #40]	@ 0x28
10000560:	9b0c      	ldr	r3, [sp, #48]	@ 0x30
10000562:	970c      	str	r7, [sp, #48]	@ 0x30
10000564:	930b      	str	r3, [sp, #44]	@ 0x2c
10000566:	e73b      	b.n	100003e0 <main+0xd8>
10000568:	100044b8 	.word	0x100044b8

1000056c <gpio_init>:
1000056c:	2301      	movs	r3, #1
1000056e:	22d0      	movs	r2, #208	@ 0xd0
10000570:	4083      	lsls	r3, r0
10000572:	0612      	lsls	r2, r2, #24
10000574:	6293      	str	r3, [r2, #40]	@ 0x28
10000576:	6193      	str	r3, [r2, #24]
10000578:	4a09      	ldr	r2, [pc, #36]	@ (100005a0 <gpio_init+0x34>)
1000057a:	2140      	movs	r1, #64	@ 0x40
1000057c:	4694      	mov	ip, r2
1000057e:	0083      	lsls	r3, r0, #2
10000580:	4463      	add	r3, ip
10000582:	681a      	ldr	r2, [r3, #0]
10000584:	00c0      	lsls	r0, r0, #3
10000586:	404a      	eors	r2, r1
10000588:	3180      	adds	r1, #128	@ 0x80
1000058a:	4011      	ands	r1, r2
1000058c:	2280      	movs	r2, #128	@ 0x80
1000058e:	0152      	lsls	r2, r2, #5
10000590:	4313      	orrs	r3, r2
10000592:	6019      	str	r1, [r3, #0]
10000594:	4b03      	ldr	r3, [pc, #12]	@ (100005a4 <gpio_init+0x38>)
10000596:	469c      	mov	ip, r3
10000598:	2305      	movs	r3, #5
1000059a:	4460      	add	r0, ip
1000059c:	6043      	str	r3, [r0, #4]
1000059e:	4770      	bx	lr
100005a0:	4001c004 	.word	0x4001c004
100005a4:	40014000 	.word	0x40014000

100005a8 <running_on_fpga>:
100005a8:	4b02      	ldr	r3, [pc, #8]	@ (100005b4 <running_on_fpga+0xc>)
100005aa:	6818      	ldr	r0, [r3, #0]
100005ac:	0780      	lsls	r0, r0, #30
100005ae:	0fc0      	lsrs	r0, r0, #31
100005b0:	4770      	bx	lr
100005b2:	46c0      	nop			@ (mov r8, r8)
100005b4:	4006c000 	.word	0x4006c000

100005b8 <hw_claim_or_assert>:
100005b8:	b570      	push	{r4, r5, r6, lr}
100005ba:	f3ef 8c10 	mrs	ip, PRIMASK
100005be:	b672      	cpsid	i
100005c0:	4d0d      	ldr	r5, [pc, #52]	@ (100005f8 <hw_claim_or_assert+0x40>)
100005c2:	682b      	ldr	r3, [r5, #0]
100005c4:	2b00      	cmp	r3, #0
100005c6:	d0fc      	beq.n	100005c2 <hw_claim_or_assert+0xa>
100005c8:	f3bf 8f5f 	dmb	sy
100005cc:	2407      	movs	r4, #7
100005ce:	08cb      	lsrs	r3, r1, #3
100005d0:	18c6      	adds	r6, r0, r3
100005d2:	5cc0      	ldrb	r0, [r0, r3]
100005d4:	2301      	movs	r3, #1
100005d6:	400c      	ands	r4, r1
100005d8:	40a3      	lsls	r3, r4
100005da:	001c      	movs	r4, r3
100005dc:	4004      	ands	r4, r0
100005de:	4203      	tst	r3, r0
100005e0:	d107      	bne.n	100005f2 <hw_claim_or_assert+0x3a>
100005e2:	4318      	orrs	r0, r3
100005e4:	7030      	strb	r0, [r6, #0]
100005e6:	f3bf 8f5f 	dmb	sy
100005ea:	602c      	str	r4, [r5, #0]
100005ec:	f38c 8810 	msr	PRIMASK, ip
100005f0:	bd70      	pop	{r4, r5, r6, pc}
100005f2:	0010      	movs	r0, r2
100005f4:	f001 faaa 	bl	10001b4c <panic>
100005f8:	d000012c 	.word	0xd000012c

100005fc <spin_locks_reset>:
100005fc:	2100      	movs	r1, #0
100005fe:	4b04      	ldr	r3, [pc, #16]	@ (10000610 <spin_locks_reset+0x14>)
10000600:	4a04      	ldr	r2, [pc, #16]	@ (10000614 <spin_locks_reset+0x18>)
10000602:	f3bf 8f5f 	dmb	sy
10000606:	c302      	stmia	r3!, {r1}
10000608:	4293      	cmp	r3, r2
1000060a:	d1fa      	bne.n	10000602 <spin_locks_reset+0x6>
1000060c:	4770      	bx	lr
1000060e:	46c0      	nop			@ (mov r8, r8)
10000610:	d0000100 	.word	0xd0000100
10000614:	d0000180 	.word	0xd0000180

10000618 <next_striped_spin_lock_num>:
10000618:	4a04      	ldr	r2, [pc, #16]	@ (1000062c <next_striped_spin_lock_num+0x14>)
1000061a:	7810      	ldrb	r0, [r2, #0]
1000061c:	1c43      	adds	r3, r0, #1
1000061e:	b2db      	uxtb	r3, r3
10000620:	2b17      	cmp	r3, #23
10000622:	d900      	bls.n	10000626 <next_striped_spin_lock_num+0xe>
10000624:	2310      	movs	r3, #16
10000626:	7013      	strb	r3, [r2, #0]
10000628:	4770      	bx	lr
1000062a:	46c0      	nop			@ (mov r8, r8)
1000062c:	20000198 	.word	0x20000198

10000630 <irq_set_enabled>:
10000630:	2301      	movs	r3, #1
10000632:	4083      	lsls	r3, r0
10000634:	2900      	cmp	r1, #0
10000636:	d004      	beq.n	10000642 <irq_set_enabled+0x12>
10000638:	4a03      	ldr	r2, [pc, #12]	@ (10000648 <irq_set_enabled+0x18>)
1000063a:	6013      	str	r3, [r2, #0]
1000063c:	4a03      	ldr	r2, [pc, #12]	@ (1000064c <irq_set_enabled+0x1c>)
1000063e:	6013      	str	r3, [r2, #0]
10000640:	4770      	bx	lr
10000642:	4a03      	ldr	r2, [pc, #12]	@ (10000650 <irq_set_enabled+0x20>)
10000644:	6013      	str	r3, [r2, #0]
10000646:	e7fb      	b.n	10000640 <irq_set_enabled+0x10>
10000648:	e000e280 	.word	0xe000e280
1000064c:	e000e100 	.word	0xe000e100
10000650:	e000e180 	.word	0xe000e180

10000654 <irq_get_vtable_handler>:
10000654:	4b02      	ldr	r3, [pc, #8]	@ (10000660 <irq_get_vtable_handler+0xc>)
10000656:	3010      	adds	r0, #16
10000658:	689b      	ldr	r3, [r3, #8]
1000065a:	0080      	lsls	r0, r0, #2
1000065c:	58c0      	ldr	r0, [r0, r3]
1000065e:	4770      	bx	lr
10000660:	e000ed00 	.word	0xe000ed00

10000664 <irq_set_exclusive_handler>:
10000664:	b570      	push	{r4, r5, r6, lr}
10000666:	000d      	movs	r5, r1
10000668:	f3ef 8610 	mrs	r6, PRIMASK
1000066c:	b672      	cpsid	i
1000066e:	4a0f      	ldr	r2, [pc, #60]	@ (100006ac <irq_set_exclusive_handler+0x48>)
10000670:	6813      	ldr	r3, [r2, #0]
10000672:	2b00      	cmp	r3, #0
10000674:	d0fc      	beq.n	10000670 <irq_set_exclusive_handler+0xc>
10000676:	f3bf 8f5f 	dmb	sy
1000067a:	4b0d      	ldr	r3, [pc, #52]	@ (100006b0 <irq_set_exclusive_handler+0x4c>)
1000067c:	3010      	adds	r0, #16
1000067e:	689b      	ldr	r3, [r3, #8]
10000680:	0084      	lsls	r4, r0, #2
10000682:	591b      	ldr	r3, [r3, r4]
10000684:	4a0b      	ldr	r2, [pc, #44]	@ (100006b4 <irq_set_exclusive_handler+0x50>)
10000686:	4293      	cmp	r3, r2
10000688:	d003      	beq.n	10000692 <irq_set_exclusive_handler+0x2e>
1000068a:	429d      	cmp	r5, r3
1000068c:	d001      	beq.n	10000692 <irq_set_exclusive_handler+0x2e>
1000068e:	f001 fa75 	bl	10001b7c <hard_assertion_failure>
10000692:	4b07      	ldr	r3, [pc, #28]	@ (100006b0 <irq_set_exclusive_handler+0x4c>)
10000694:	689b      	ldr	r3, [r3, #8]
10000696:	511d      	str	r5, [r3, r4]
10000698:	f3bf 8f5f 	dmb	sy
1000069c:	f3bf 8f5f 	dmb	sy
100006a0:	2200      	movs	r2, #0
100006a2:	4b02      	ldr	r3, [pc, #8]	@ (100006ac <irq_set_exclusive_handler+0x48>)
100006a4:	601a      	str	r2, [r3, #0]
100006a6:	f386 8810 	msr	PRIMASK, r6
100006aa:	bd70      	pop	{r4, r5, r6, pc}
100006ac:	d0000124 	.word	0xd0000124
100006b0:	e000ed00 	.word	0xe000ed00
100006b4:	100001cd 	.word	0x100001cd

100006b8 <irq_remove_handler>:
100006b8:	b5f0      	push	{r4, r5, r6, r7, lr}
100006ba:	46de      	mov	lr, fp
100006bc:	4657      	mov	r7, sl
100006be:	464e      	mov	r6, r9
100006c0:	4645      	mov	r5, r8
100006c2:	b5e0      	push	{r5, r6, r7, lr}
100006c4:	000c      	movs	r4, r1
100006c6:	b083      	sub	sp, #12
100006c8:	f3ef 8810 	mrs	r8, PRIMASK
100006cc:	b672      	cpsid	i
100006ce:	4a5d      	ldr	r2, [pc, #372]	@ (10000844 <irq_remove_handler+0x18c>)
100006d0:	6813      	ldr	r3, [r2, #0]
100006d2:	2b00      	cmp	r3, #0
100006d4:	d0fc      	beq.n	100006d0 <irq_remove_handler+0x18>
100006d6:	f3bf 8f5f 	dmb	sy
100006da:	4b5b      	ldr	r3, [pc, #364]	@ (10000848 <irq_remove_handler+0x190>)
100006dc:	495b      	ldr	r1, [pc, #364]	@ (1000084c <irq_remove_handler+0x194>)
100006de:	689a      	ldr	r2, [r3, #8]
100006e0:	0003      	movs	r3, r0
100006e2:	3310      	adds	r3, #16
100006e4:	009f      	lsls	r7, r3, #2
100006e6:	59d5      	ldr	r5, [r2, r7]
100006e8:	428d      	cmp	r5, r1
100006ea:	d039      	beq.n	10000760 <irq_remove_handler+0xa8>
100006ec:	42a5      	cmp	r5, r4
100006ee:	d04a      	beq.n	10000786 <irq_remove_handler+0xce>
100006f0:	4e57      	ldr	r6, [pc, #348]	@ (10000850 <irq_remove_handler+0x198>)
100006f2:	1baa      	subs	r2, r5, r6
100006f4:	2a2f      	cmp	r2, #47	@ 0x2f
100006f6:	d833      	bhi.n	10000760 <irq_remove_handler+0xa8>
100006f8:	2201      	movs	r2, #1
100006fa:	4692      	mov	sl, r2
100006fc:	4082      	lsls	r2, r0
100006fe:	4691      	mov	r9, r2
10000700:	4648      	mov	r0, r9
10000702:	4a54      	ldr	r2, [pc, #336]	@ (10000854 <irq_remove_handler+0x19c>)
10000704:	6812      	ldr	r2, [r2, #0]
10000706:	4010      	ands	r0, r2
10000708:	9001      	str	r0, [sp, #4]
1000070a:	4648      	mov	r0, r9
1000070c:	4a52      	ldr	r2, [pc, #328]	@ (10000858 <irq_remove_handler+0x1a0>)
1000070e:	6010      	str	r0, [r2, #0]
10000710:	f3bf 8f5f 	dmb	sy
10000714:	f3ef 8205 	mrs	r2, IPSR
10000718:	4693      	mov	fp, r2
1000071a:	2a00      	cmp	r2, #0
1000071c:	d035      	beq.n	1000078a <irq_remove_handler+0xd2>
1000071e:	4293      	cmp	r3, r2
10000720:	d001      	beq.n	10000726 <irq_remove_handler+0x6e>
10000722:	f001 fa2b 	bl	10001b7c <hard_assertion_failure>
10000726:	002a      	movs	r2, r5
10000728:	4653      	mov	r3, sl
1000072a:	439a      	bics	r2, r3
1000072c:	6890      	ldr	r0, [r2, #8]
1000072e:	4284      	cmp	r4, r0
10000730:	d108      	bne.n	10000744 <irq_remove_handler+0x8c>
10000732:	e075      	b.n	10000820 <irq_remove_handler+0x168>
10000734:	004b      	lsls	r3, r1, #1
10000736:	185b      	adds	r3, r3, r1
10000738:	009b      	lsls	r3, r3, #2
1000073a:	18f3      	adds	r3, r6, r3
1000073c:	6898      	ldr	r0, [r3, #8]
1000073e:	42a0      	cmp	r0, r4
10000740:	d034      	beq.n	100007ac <irq_remove_handler+0xf4>
10000742:	001a      	movs	r2, r3
10000744:	2106      	movs	r1, #6
10000746:	5651      	ldrsb	r1, [r2, r1]
10000748:	2900      	cmp	r1, #0
1000074a:	daf3      	bge.n	10000734 <irq_remove_handler+0x7c>
1000074c:	4284      	cmp	r4, r0
1000074e:	d053      	beq.n	100007f8 <irq_remove_handler+0x140>
10000750:	9b01      	ldr	r3, [sp, #4]
10000752:	2b00      	cmp	r3, #0
10000754:	d026      	beq.n	100007a4 <irq_remove_handler+0xec>
10000756:	464a      	mov	r2, r9
10000758:	4b40      	ldr	r3, [pc, #256]	@ (1000085c <irq_remove_handler+0x1a4>)
1000075a:	601a      	str	r2, [r3, #0]
1000075c:	4b3d      	ldr	r3, [pc, #244]	@ (10000854 <irq_remove_handler+0x19c>)
1000075e:	601a      	str	r2, [r3, #0]
10000760:	4b39      	ldr	r3, [pc, #228]	@ (10000848 <irq_remove_handler+0x190>)
10000762:	689b      	ldr	r3, [r3, #8]
10000764:	51dd      	str	r5, [r3, r7]
10000766:	f3bf 8f5f 	dmb	sy
1000076a:	f3bf 8f5f 	dmb	sy
1000076e:	2200      	movs	r2, #0
10000770:	4b34      	ldr	r3, [pc, #208]	@ (10000844 <irq_remove_handler+0x18c>)
10000772:	601a      	str	r2, [r3, #0]
10000774:	f388 8810 	msr	PRIMASK, r8
10000778:	b003      	add	sp, #12
1000077a:	bcf0      	pop	{r4, r5, r6, r7}
1000077c:	46bb      	mov	fp, r7
1000077e:	46b2      	mov	sl, r6
10000780:	46a9      	mov	r9, r5
10000782:	46a0      	mov	r8, r4
10000784:	bdf0      	pop	{r4, r5, r6, r7, pc}
10000786:	000d      	movs	r5, r1
10000788:	e7ea      	b.n	10000760 <irq_remove_handler+0xa8>
1000078a:	002a      	movs	r2, r5
1000078c:	4653      	mov	r3, sl
1000078e:	439a      	bics	r2, r3
10000790:	6890      	ldr	r0, [r2, #8]
10000792:	4284      	cmp	r4, r0
10000794:	d1d6      	bne.n	10000744 <irq_remove_handler+0x8c>
10000796:	2006      	movs	r0, #6
10000798:	5610      	ldrsb	r0, [r2, r0]
1000079a:	0013      	movs	r3, r2
1000079c:	2800      	cmp	r0, #0
1000079e:	da09      	bge.n	100007b4 <irq_remove_handler+0xfc>
100007a0:	000d      	movs	r5, r1
100007a2:	e031      	b.n	10000808 <irq_remove_handler+0x150>
100007a4:	464a      	mov	r2, r9
100007a6:	4b2c      	ldr	r3, [pc, #176]	@ (10000858 <irq_remove_handler+0x1a0>)
100007a8:	601a      	str	r2, [r3, #0]
100007aa:	e7d9      	b.n	10000760 <irq_remove_handler+0xa8>
100007ac:	2006      	movs	r0, #6
100007ae:	5618      	ldrsb	r0, [r3, r0]
100007b0:	2800      	cmp	r0, #0
100007b2:	db22      	blt.n	100007fa <irq_remove_handler+0x142>
100007b4:	0042      	lsls	r2, r0, #1
100007b6:	1811      	adds	r1, r2, r0
100007b8:	0089      	lsls	r1, r1, #2
100007ba:	1874      	adds	r4, r6, r1
100007bc:	468a      	mov	sl, r1
100007be:	68a1      	ldr	r1, [r4, #8]
100007c0:	6099      	str	r1, [r3, #8]
100007c2:	79e1      	ldrb	r1, [r4, #7]
100007c4:	71d9      	strb	r1, [r3, #7]
100007c6:	2106      	movs	r1, #6
100007c8:	5661      	ldrsb	r1, [r4, r1]
100007ca:	7199      	strb	r1, [r3, #6]
100007cc:	2900      	cmp	r1, #0
100007ce:	db25      	blt.n	1000081c <irq_remove_handler+0x164>
100007d0:	88a4      	ldrh	r4, [r4, #4]
100007d2:	1af1      	subs	r1, r6, r3
100007d4:	0564      	lsls	r4, r4, #21
100007d6:	1524      	asrs	r4, r4, #20
100007d8:	4454      	add	r4, sl
100007da:	1909      	adds	r1, r1, r4
100007dc:	24e0      	movs	r4, #224	@ 0xe0
100007de:	0509      	lsls	r1, r1, #20
100007e0:	0d49      	lsrs	r1, r1, #21
100007e2:	0224      	lsls	r4, r4, #8
100007e4:	4321      	orrs	r1, r4
100007e6:	8099      	strh	r1, [r3, #4]
100007e8:	1813      	adds	r3, r2, r0
100007ea:	4a1d      	ldr	r2, [pc, #116]	@ (10000860 <irq_remove_handler+0x1a8>)
100007ec:	009b      	lsls	r3, r3, #2
100007ee:	7811      	ldrb	r1, [r2, #0]
100007f0:	18f3      	adds	r3, r6, r3
100007f2:	7199      	strb	r1, [r3, #6]
100007f4:	7010      	strb	r0, [r2, #0]
100007f6:	e7ab      	b.n	10000750 <irq_remove_handler+0x98>
100007f8:	0013      	movs	r3, r2
100007fa:	4659      	mov	r1, fp
100007fc:	2900      	cmp	r1, #0
100007fe:	d114      	bne.n	1000082a <irq_remove_handler+0x172>
10000800:	31ff      	adds	r1, #255	@ 0xff
10000802:	7191      	strb	r1, [r2, #6]
10000804:	4917      	ldr	r1, [pc, #92]	@ (10000864 <irq_remove_handler+0x1ac>)
10000806:	8091      	strh	r1, [r2, #4]
10000808:	4915      	ldr	r1, [pc, #84]	@ (10000860 <irq_remove_handler+0x1a8>)
1000080a:	780a      	ldrb	r2, [r1, #0]
1000080c:	719a      	strb	r2, [r3, #6]
1000080e:	4a16      	ldr	r2, [pc, #88]	@ (10000868 <irq_remove_handler+0x1b0>)
10000810:	1b9b      	subs	r3, r3, r6
10000812:	415b      	adcs	r3, r3
10000814:	435a      	muls	r2, r3
10000816:	0d12      	lsrs	r2, r2, #20
10000818:	700a      	strb	r2, [r1, #0]
1000081a:	e799      	b.n	10000750 <irq_remove_handler+0x98>
1000081c:	4913      	ldr	r1, [pc, #76]	@ (1000086c <irq_remove_handler+0x1b4>)
1000081e:	e7e2      	b.n	100007e6 <irq_remove_handler+0x12e>
10000820:	2006      	movs	r0, #6
10000822:	5610      	ldrsb	r0, [r2, r0]
10000824:	0013      	movs	r3, r2
10000826:	2800      	cmp	r0, #0
10000828:	dac4      	bge.n	100007b4 <irq_remove_handler+0xfc>
1000082a:	4a11      	ldr	r2, [pc, #68]	@ (10000870 <irq_remove_handler+0x1b8>)
1000082c:	4911      	ldr	r1, [pc, #68]	@ (10000874 <irq_remove_handler+0x1bc>)
1000082e:	1ad2      	subs	r2, r2, r3
10000830:	3a08      	subs	r2, #8
10000832:	0250      	lsls	r0, r2, #9
10000834:	0d40      	lsrs	r0, r0, #21
10000836:	4301      	orrs	r1, r0
10000838:	8099      	strh	r1, [r3, #4]
1000083a:	490f      	ldr	r1, [pc, #60]	@ (10000878 <irq_remove_handler+0x1c0>)
1000083c:	0852      	lsrs	r2, r2, #1
1000083e:	430a      	orrs	r2, r1
10000840:	80da      	strh	r2, [r3, #6]
10000842:	e785      	b.n	10000750 <irq_remove_handler+0x98>
10000844:	d0000124 	.word	0xd0000124
10000848:	e000ed00 	.word	0xe000ed00
1000084c:	100001cd 	.word	0x100001cd
10000850:	2000019c 	.word	0x2000019c
10000854:	e000e100 	.word	0xe000e100
10000858:	e000e180 	.word	0xe000e180
1000085c:	e000e280 	.word	0xe000e280
10000860:	20000615 	.word	0x20000615
10000864:	ffffbd01 	.word	0xffffbd01
10000868:	0000aaaa 	.word	0x0000aaaa
1000086c:	0000bd01 	.word	0x0000bd01
10000870:	200001d6 	.word	0x200001d6
10000874:	fffff000 	.word	0xfffff000
10000878:	fffff800 	.word	0xfffff800

1000087c <irq_add_tail_to_free_list>:
1000087c:	b570      	push	{r4, r5, r6, lr}
1000087e:	f3ef 8105 	mrs	r1, IPSR
10000882:	2401      	movs	r4, #1
10000884:	4304      	orrs	r4, r0
10000886:	f3ef 8c10 	mrs	ip, PRIMASK
1000088a:	b672      	cpsid	i
1000088c:	4a21      	ldr	r2, [pc, #132]	@ (10000914 <irq_add_tail_to_free_list+0x98>)
1000088e:	6813      	ldr	r3, [r2, #0]
10000890:	2b00      	cmp	r3, #0
10000892:	d0fc      	beq.n	1000088e <irq_add_tail_to_free_list+0x12>
10000894:	f3bf 8f5f 	dmb	sy
10000898:	4b1f      	ldr	r3, [pc, #124]	@ (10000918 <irq_add_tail_to_free_list+0x9c>)
1000089a:	0005      	movs	r5, r0
1000089c:	4a1f      	ldr	r2, [pc, #124]	@ (1000091c <irq_add_tail_to_free_list+0xa0>)
1000089e:	1aed      	subs	r5, r5, r3
100008a0:	416d      	adcs	r5, r5
100008a2:	436a      	muls	r2, r5
100008a4:	0d12      	lsrs	r2, r2, #20
100008a6:	4d1e      	ldr	r5, [pc, #120]	@ (10000920 <irq_add_tail_to_free_list+0xa4>)
100008a8:	0089      	lsls	r1, r1, #2
100008aa:	68ae      	ldr	r6, [r5, #8]
100008ac:	b252      	sxtb	r2, r2
100008ae:	5876      	ldr	r6, [r6, r1]
100008b0:	42a6      	cmp	r6, r4
100008b2:	d01c      	beq.n	100008ee <irq_add_tail_to_free_list+0x72>
100008b4:	2106      	movs	r1, #6
100008b6:	5659      	ldrsb	r1, [r3, r1]
100008b8:	4291      	cmp	r1, r2
100008ba:	d01c      	beq.n	100008f6 <irq_add_tail_to_free_list+0x7a>
100008bc:	2112      	movs	r1, #18
100008be:	5659      	ldrsb	r1, [r3, r1]
100008c0:	4291      	cmp	r1, r2
100008c2:	d022      	beq.n	1000090a <irq_add_tail_to_free_list+0x8e>
100008c4:	211e      	movs	r1, #30
100008c6:	5659      	ldrsb	r1, [r3, r1]
100008c8:	4291      	cmp	r1, r2
100008ca:	d020      	beq.n	1000090e <irq_add_tail_to_free_list+0x92>
100008cc:	212a      	movs	r1, #42	@ 0x2a
100008ce:	5659      	ldrsb	r1, [r3, r1]
100008d0:	2403      	movs	r4, #3
100008d2:	4291      	cmp	r1, r2
100008d4:	d010      	beq.n	100008f8 <irq_add_tail_to_free_list+0x7c>
100008d6:	4b13      	ldr	r3, [pc, #76]	@ (10000924 <irq_add_tail_to_free_list+0xa8>)
100008d8:	7819      	ldrb	r1, [r3, #0]
100008da:	701a      	strb	r2, [r3, #0]
100008dc:	7181      	strb	r1, [r0, #6]
100008de:	f3bf 8f5f 	dmb	sy
100008e2:	2200      	movs	r2, #0
100008e4:	4b0b      	ldr	r3, [pc, #44]	@ (10000914 <irq_add_tail_to_free_list+0x98>)
100008e6:	601a      	str	r2, [r3, #0]
100008e8:	f38c 8810 	msr	PRIMASK, ip
100008ec:	bd70      	pop	{r4, r5, r6, pc}
100008ee:	68ab      	ldr	r3, [r5, #8]
100008f0:	4c0d      	ldr	r4, [pc, #52]	@ (10000928 <irq_add_tail_to_free_list+0xac>)
100008f2:	505c      	str	r4, [r3, r1]
100008f4:	e7ef      	b.n	100008d6 <irq_add_tail_to_free_list+0x5a>
100008f6:	2400      	movs	r4, #0
100008f8:	0061      	lsls	r1, r4, #1
100008fa:	1909      	adds	r1, r1, r4
100008fc:	0089      	lsls	r1, r1, #2
100008fe:	185b      	adds	r3, r3, r1
10000900:	21ff      	movs	r1, #255	@ 0xff
10000902:	7199      	strb	r1, [r3, #6]
10000904:	4909      	ldr	r1, [pc, #36]	@ (1000092c <irq_add_tail_to_free_list+0xb0>)
10000906:	8099      	strh	r1, [r3, #4]
10000908:	e7e5      	b.n	100008d6 <irq_add_tail_to_free_list+0x5a>
1000090a:	2401      	movs	r4, #1
1000090c:	e7f4      	b.n	100008f8 <irq_add_tail_to_free_list+0x7c>
1000090e:	2402      	movs	r4, #2
10000910:	e7f2      	b.n	100008f8 <irq_add_tail_to_free_list+0x7c>
10000912:	46c0      	nop			@ (mov r8, r8)
10000914:	d0000124 	.word	0xd0000124
10000918:	2000019c 	.word	0x2000019c
1000091c:	0000aaaa 	.word	0x0000aaaa
10000920:	e000ed00 	.word	0xe000ed00
10000924:	20000615 	.word	0x20000615
10000928:	100001cd 	.word	0x100001cd
1000092c:	ffffbd01 	.word	0xffffbd01

10000930 <irq_init_priorities>:
10000930:	4b05      	ldr	r3, [pc, #20]	@ (10000948 <irq_init_priorities+0x18>)
10000932:	4a06      	ldr	r2, [pc, #24]	@ (1000094c <irq_init_priorities+0x1c>)
10000934:	6013      	str	r3, [r2, #0]
10000936:	4a06      	ldr	r2, [pc, #24]	@ (10000950 <irq_init_priorities+0x20>)
10000938:	6013      	str	r3, [r2, #0]
1000093a:	6053      	str	r3, [r2, #4]
1000093c:	6093      	str	r3, [r2, #8]
1000093e:	60d3      	str	r3, [r2, #12]
10000940:	6113      	str	r3, [r2, #16]
10000942:	6153      	str	r3, [r2, #20]
10000944:	6193      	str	r3, [r2, #24]
10000946:	4770      	bx	lr
10000948:	80808080 	.word	0x80808080
1000094c:	e000e400 	.word	0xe000e400
10000950:	e000e404 	.word	0xe000e404

10000954 <lock_init>:
10000954:	4b02      	ldr	r3, [pc, #8]	@ (10000960 <lock_init+0xc>)
10000956:	469c      	mov	ip, r3
10000958:	4461      	add	r1, ip
1000095a:	0089      	lsls	r1, r1, #2
1000095c:	6001      	str	r1, [r0, #0]
1000095e:	4770      	bx	lr
10000960:	34000040 	.word	0x34000040

10000964 <mutex_init>:
10000964:	b510      	push	{r4, lr}
10000966:	0004      	movs	r4, r0
10000968:	f7ff fe56 	bl	10000618 <next_striped_spin_lock_num>
1000096c:	0001      	movs	r1, r0
1000096e:	0020      	movs	r0, r4
10000970:	f7ff fff0 	bl	10000954 <lock_init>
10000974:	23ff      	movs	r3, #255	@ 0xff
10000976:	7123      	strb	r3, [r4, #4]
10000978:	f3bf 8f5f 	dmb	sy
1000097c:	bd10      	pop	{r4, pc}
1000097e:	46c0      	nop			@ (mov r8, r8)

10000980 <recursive_mutex_init>:
10000980:	b510      	push	{r4, lr}
10000982:	0004      	movs	r4, r0
10000984:	f7ff fe48 	bl	10000618 <next_striped_spin_lock_num>
10000988:	0001      	movs	r1, r0
1000098a:	0020      	movs	r0, r4
1000098c:	f7ff ffe2 	bl	10000954 <lock_init>
10000990:	23ff      	movs	r3, #255	@ 0xff
10000992:	80a3      	strh	r3, [r4, #4]
10000994:	f3bf 8f5f 	dmb	sy
10000998:	bd10      	pop	{r4, pc}
1000099a:	46c0      	nop			@ (mov r8, r8)

1000099c <timer_pool_entry_comparator>:
1000099c:	6883      	ldr	r3, [r0, #8]
1000099e:	480b      	ldr	r0, [pc, #44]	@ (100009cc <timer_pool_entry_comparator+0x30>)
100009a0:	b510      	push	{r4, lr}
100009a2:	4684      	mov	ip, r0
100009a4:	4461      	add	r1, ip
100009a6:	4462      	add	r2, ip
100009a8:	0112      	lsls	r2, r2, #4
100009aa:	0109      	lsls	r1, r1, #4
100009ac:	1859      	adds	r1, r3, r1
100009ae:	189b      	adds	r3, r3, r2
100009b0:	685c      	ldr	r4, [r3, #4]
100009b2:	684a      	ldr	r2, [r1, #4]
100009b4:	2001      	movs	r0, #1
100009b6:	4294      	cmp	r4, r2
100009b8:	d801      	bhi.n	100009be <timer_pool_entry_comparator+0x22>
100009ba:	d002      	beq.n	100009c2 <timer_pool_entry_comparator+0x26>
100009bc:	2000      	movs	r0, #0
100009be:	b2c0      	uxtb	r0, r0
100009c0:	bd10      	pop	{r4, pc}
100009c2:	681a      	ldr	r2, [r3, #0]
100009c4:	680b      	ldr	r3, [r1, #0]
100009c6:	429a      	cmp	r2, r3
100009c8:	d8f9      	bhi.n	100009be <timer_pool_entry_comparator+0x22>
100009ca:	e7f7      	b.n	100009bc <timer_pool_entry_comparator+0x20>
100009cc:	0fffffff 	.word	0x0fffffff

100009d0 <sleep_until_callback>:
100009d0:	4b0a      	ldr	r3, [pc, #40]	@ (100009fc <sleep_until_callback+0x2c>)
100009d2:	6819      	ldr	r1, [r3, #0]
100009d4:	f3ef 8010 	mrs	r0, PRIMASK
100009d8:	b672      	cpsid	i
100009da:	680a      	ldr	r2, [r1, #0]
100009dc:	2a00      	cmp	r2, #0
100009de:	d0fc      	beq.n	100009da <sleep_until_callback+0xa>
100009e0:	f3bf 8f5f 	dmb	sy
100009e4:	681b      	ldr	r3, [r3, #0]
100009e6:	f3bf 8f5f 	dmb	sy
100009ea:	2200      	movs	r2, #0
100009ec:	601a      	str	r2, [r3, #0]
100009ee:	f380 8810 	msr	PRIMASK, r0
100009f2:	bf40      	sev
100009f4:	2000      	movs	r0, #0
100009f6:	2100      	movs	r1, #0
100009f8:	4770      	bx	lr
100009fa:	46c0      	nop			@ (mov r8, r8)
100009fc:	20000600 	.word	0x20000600

10000a00 <add_alarm_under_lock.isra.0>:
10000a00:	b5f8      	push	{r3, r4, r5, r6, r7, lr}
10000a02:	4657      	mov	r7, sl
10000a04:	4645      	mov	r5, r8
10000a06:	464e      	mov	r6, r9
10000a08:	46de      	mov	lr, fp
10000a0a:	b5e0      	push	{r5, r6, r7, lr}
10000a0c:	4698      	mov	r8, r3
10000a0e:	ab0c      	add	r3, sp, #48	@ 0x30
10000a10:	781c      	ldrb	r4, [r3, #0]
10000a12:	ab0d      	add	r3, sp, #52	@ 0x34
10000a14:	781b      	ldrb	r3, [r3, #0]
10000a16:	0007      	movs	r7, r0
10000a18:	4691      	mov	r9, r2
10000a1a:	469a      	mov	sl, r3
10000a1c:	6805      	ldr	r5, [r0, #0]
10000a1e:	2c00      	cmp	r4, #0
10000a20:	d159      	bne.n	10000ad6 <add_alarm_under_lock.isra.0+0xd6>
10000a22:	7bac      	ldrb	r4, [r5, #14]
10000a24:	2c00      	cmp	r4, #0
10000a26:	d03b      	beq.n	10000aa0 <add_alarm_under_lock.isra.0+0xa0>
10000a28:	0066      	lsls	r6, r4, #1
10000a2a:	6829      	ldr	r1, [r5, #0]
10000a2c:	1936      	adds	r6, r6, r4
10000a2e:	3e03      	subs	r6, #3
10000a30:	1989      	adds	r1, r1, r6
10000a32:	784b      	ldrb	r3, [r1, #1]
10000a34:	73ab      	strb	r3, [r5, #14]
10000a36:	2b00      	cmp	r3, #0
10000a38:	d100      	bne.n	10000a3c <add_alarm_under_lock.isra.0+0x3c>
10000a3a:	73eb      	strb	r3, [r5, #15]
10000a3c:	2300      	movs	r3, #0
10000a3e:	708b      	strb	r3, [r1, #2]
10000a40:	704b      	strb	r3, [r1, #1]
10000a42:	700b      	strb	r3, [r1, #0]
10000a44:	4b2d      	ldr	r3, [pc, #180]	@ (10000afc <add_alarm_under_lock.isra.0+0xfc>)
10000a46:	18e2      	adds	r2, r4, r3
10000a48:	68bb      	ldr	r3, [r7, #8]
10000a4a:	0112      	lsls	r2, r2, #4
10000a4c:	189b      	adds	r3, r3, r2
10000a4e:	464a      	mov	r2, r9
10000a50:	601a      	str	r2, [r3, #0]
10000a52:	4642      	mov	r2, r8
10000a54:	605a      	str	r2, [r3, #4]
10000a56:	9a0a      	ldr	r2, [sp, #40]	@ 0x28
10000a58:	609a      	str	r2, [r3, #8]
10000a5a:	9a0b      	ldr	r2, [sp, #44]	@ 0x2c
10000a5c:	60da      	str	r2, [r3, #12]
10000a5e:	2300      	movs	r3, #0
10000a60:	708b      	strb	r3, [r1, #2]
10000a62:	704b      	strb	r3, [r1, #1]
10000a64:	700b      	strb	r3, [r1, #0]
10000a66:	7b6b      	ldrb	r3, [r5, #13]
10000a68:	469b      	mov	fp, r3
10000a6a:	2b00      	cmp	r3, #0
10000a6c:	d026      	beq.n	10000abc <add_alarm_under_lock.isra.0+0xbc>
10000a6e:	0022      	movs	r2, r4
10000a70:	686b      	ldr	r3, [r5, #4]
10000a72:	4659      	mov	r1, fp
10000a74:	68a8      	ldr	r0, [r5, #8]
10000a76:	4798      	blx	r3
10000a78:	465b      	mov	r3, fp
10000a7a:	005b      	lsls	r3, r3, #1
10000a7c:	445b      	add	r3, fp
10000a7e:	682a      	ldr	r2, [r5, #0]
10000a80:	3b03      	subs	r3, #3
10000a82:	2800      	cmp	r0, #0
10000a84:	d012      	beq.n	10000aac <add_alarm_under_lock.isra.0+0xac>
10000a86:	4658      	mov	r0, fp
10000a88:	1996      	adds	r6, r2, r6
10000a8a:	70b0      	strb	r0, [r6, #2]
10000a8c:	18d1      	adds	r1, r2, r3
10000a8e:	5cd3      	ldrb	r3, [r2, r3]
10000a90:	2b00      	cmp	r3, #0
10000a92:	d000      	beq.n	10000a96 <add_alarm_under_lock.isra.0+0x96>
10000a94:	7073      	strb	r3, [r6, #1]
10000a96:	465b      	mov	r3, fp
10000a98:	700c      	strb	r4, [r1, #0]
10000a9a:	736b      	strb	r3, [r5, #13]
10000a9c:	455c      	cmp	r4, fp
10000a9e:	d00e      	beq.n	10000abe <add_alarm_under_lock.isra.0+0xbe>
10000aa0:	bcf0      	pop	{r4, r5, r6, r7}
10000aa2:	46bb      	mov	fp, r7
10000aa4:	46b2      	mov	sl, r6
10000aa6:	46a9      	mov	r9, r5
10000aa8:	46a0      	mov	r8, r4
10000aaa:	bdf8      	pop	{r3, r4, r5, r6, r7, pc}
10000aac:	18d3      	adds	r3, r2, r3
10000aae:	709c      	strb	r4, [r3, #2]
10000ab0:	1991      	adds	r1, r2, r6
10000ab2:	5d92      	ldrb	r2, [r2, r6]
10000ab4:	2a00      	cmp	r2, #0
10000ab6:	d11c      	bne.n	10000af2 <add_alarm_under_lock.isra.0+0xf2>
10000ab8:	465b      	mov	r3, fp
10000aba:	700b      	strb	r3, [r1, #0]
10000abc:	736c      	strb	r4, [r5, #13]
10000abe:	464a      	mov	r2, r9
10000ac0:	4643      	mov	r3, r8
10000ac2:	7d38      	ldrb	r0, [r7, #20]
10000ac4:	f000 fb9e 	bl	10001204 <hardware_alarm_set_target>
10000ac8:	1e05      	subs	r5, r0, #0
10000aca:	d10a      	bne.n	10000ae2 <add_alarm_under_lock.isra.0+0xe2>
10000acc:	9b0e      	ldr	r3, [sp, #56]	@ 0x38
10000ace:	2b00      	cmp	r3, #0
10000ad0:	d0e6      	beq.n	10000aa0 <add_alarm_under_lock.isra.0+0xa0>
10000ad2:	701d      	strb	r5, [r3, #0]
10000ad4:	e7e4      	b.n	10000aa0 <add_alarm_under_lock.isra.0+0xa0>
10000ad6:	0066      	lsls	r6, r4, #1
10000ad8:	6829      	ldr	r1, [r5, #0]
10000ada:	1936      	adds	r6, r6, r4
10000adc:	3e03      	subs	r6, #3
10000ade:	1989      	adds	r1, r1, r6
10000ae0:	e7b0      	b.n	10000a44 <add_alarm_under_lock.isra.0+0x44>
10000ae2:	4653      	mov	r3, sl
10000ae4:	2b00      	cmp	r3, #0
10000ae6:	d1f1      	bne.n	10000acc <add_alarm_under_lock.isra.0+0xcc>
10000ae8:	0021      	movs	r1, r4
10000aea:	6838      	ldr	r0, [r7, #0]
10000aec:	f000 fda2 	bl	10001634 <ph_remove_and_free_node>
10000af0:	e7ec      	b.n	10000acc <add_alarm_under_lock.isra.0+0xcc>
10000af2:	705a      	strb	r2, [r3, #1]
10000af4:	465b      	mov	r3, fp
10000af6:	700b      	strb	r3, [r1, #0]
10000af8:	736c      	strb	r4, [r5, #13]
10000afa:	e7e0      	b.n	10000abe <add_alarm_under_lock.isra.0+0xbe>
10000afc:	0fffffff 	.word	0x0fffffff

10000b00 <alarm_pool_alarm_callback>:
10000b00:	b5f0      	push	{r4, r5, r6, r7, lr}
10000b02:	46de      	mov	lr, fp
10000b04:	4657      	mov	r7, sl
10000b06:	464e      	mov	r6, r9
10000b08:	4645      	mov	r5, r8
10000b0a:	2300      	movs	r3, #0
10000b0c:	b5e0      	push	{r5, r6, r7, lr}
10000b0e:	b08b      	sub	sp, #44	@ 0x2c
10000b10:	9308      	str	r3, [sp, #32]
10000b12:	4b68      	ldr	r3, [pc, #416]	@ (10000cb4 <alarm_pool_alarm_callback+0x1b4>)
10000b14:	0082      	lsls	r2, r0, #2
10000b16:	58d4      	ldr	r4, [r2, r3]
10000b18:	2300      	movs	r3, #0
10000b1a:	469b      	mov	fp, r3
10000b1c:	9009      	str	r0, [sp, #36]	@ 0x24
10000b1e:	f000 fb11 	bl	10001144 <time_us_64>
10000b22:	0002      	movs	r2, r0
10000b24:	000b      	movs	r3, r1
10000b26:	6860      	ldr	r0, [r4, #4]
10000b28:	f3ef 8a10 	mrs	sl, PRIMASK
10000b2c:	b672      	cpsid	i
10000b2e:	4656      	mov	r6, sl
10000b30:	6801      	ldr	r1, [r0, #0]
10000b32:	2900      	cmp	r1, #0
10000b34:	d0fc      	beq.n	10000b30 <alarm_pool_alarm_callback+0x30>
10000b36:	46b2      	mov	sl, r6
10000b38:	f3bf 8f5f 	dmb	sy
10000b3c:	6821      	ldr	r1, [r4, #0]
10000b3e:	7b4f      	ldrb	r7, [r1, #13]
10000b40:	468c      	mov	ip, r1
10000b42:	2f00      	cmp	r7, #0
10000b44:	d02e      	beq.n	10000ba4 <alarm_pool_alarm_callback+0xa4>
10000b46:	68a5      	ldr	r5, [r4, #8]
10000b48:	495b      	ldr	r1, [pc, #364]	@ (10000cb8 <alarm_pool_alarm_callback+0x1b8>)
10000b4a:	46a9      	mov	r9, r5
10000b4c:	1879      	adds	r1, r7, r1
10000b4e:	0109      	lsls	r1, r1, #4
10000b50:	4489      	add	r9, r1
10000b52:	4649      	mov	r1, r9
10000b54:	6808      	ldr	r0, [r1, #0]
10000b56:	6849      	ldr	r1, [r1, #4]
10000b58:	0005      	movs	r5, r0
10000b5a:	000e      	movs	r6, r1
10000b5c:	1aad      	subs	r5, r5, r2
10000b5e:	419e      	sbcs	r6, r3
10000b60:	2e00      	cmp	r6, #0
10000b62:	dd5f      	ble.n	10000c24 <alarm_pool_alarm_callback+0x124>
10000b64:	0002      	movs	r2, r0
10000b66:	000b      	movs	r3, r1
10000b68:	9809      	ldr	r0, [sp, #36]	@ 0x24
10000b6a:	f000 fb4b 	bl	10001204 <hardware_alarm_set_target>
10000b6e:	2300      	movs	r3, #0
10000b70:	2200      	movs	r2, #0
10000b72:	4699      	mov	r9, r3
10000b74:	2300      	movs	r3, #0
10000b76:	9206      	str	r2, [sp, #24]
10000b78:	9307      	str	r3, [sp, #28]
10000b7a:	2300      	movs	r3, #0
10000b7c:	4698      	mov	r8, r3
10000b7e:	6863      	ldr	r3, [r4, #4]
10000b80:	f3bf 8f5f 	dmb	sy
10000b84:	465a      	mov	r2, fp
10000b86:	601a      	str	r2, [r3, #0]
10000b88:	f38a 8810 	msr	PRIMASK, sl
10000b8c:	4643      	mov	r3, r8
10000b8e:	2b00      	cmp	r3, #0
10000b90:	d112      	bne.n	10000bb8 <alarm_pool_alarm_callback+0xb8>
10000b92:	2800      	cmp	r0, #0
10000b94:	d1c3      	bne.n	10000b1e <alarm_pool_alarm_callback+0x1e>
10000b96:	b00b      	add	sp, #44	@ 0x2c
10000b98:	bcf0      	pop	{r4, r5, r6, r7}
10000b9a:	46bb      	mov	fp, r7
10000b9c:	46b2      	mov	sl, r6
10000b9e:	46a9      	mov	r9, r5
10000ba0:	46a0      	mov	r8, r4
10000ba2:	bdf0      	pop	{r4, r5, r6, r7, pc}
10000ba4:	2300      	movs	r3, #0
10000ba6:	2200      	movs	r2, #0
10000ba8:	4699      	mov	r9, r3
10000baa:	2300      	movs	r3, #0
10000bac:	9206      	str	r2, [sp, #24]
10000bae:	9307      	str	r3, [sp, #28]
10000bb0:	2300      	movs	r3, #0
10000bb2:	2000      	movs	r0, #0
10000bb4:	4698      	mov	r8, r3
10000bb6:	e7e2      	b.n	10000b7e <alarm_pool_alarm_callback+0x7e>
10000bb8:	9b08      	ldr	r3, [sp, #32]
10000bba:	4649      	mov	r1, r9
10000bbc:	0218      	lsls	r0, r3, #8
10000bbe:	4338      	orrs	r0, r7
10000bc0:	47c0      	blx	r8
10000bc2:	6862      	ldr	r2, [r4, #4]
10000bc4:	0005      	movs	r5, r0
10000bc6:	000e      	movs	r6, r1
10000bc8:	f3ef 8a10 	mrs	sl, PRIMASK
10000bcc:	b672      	cpsid	i
10000bce:	6813      	ldr	r3, [r2, #0]
10000bd0:	2b00      	cmp	r3, #0
10000bd2:	d0fc      	beq.n	10000bce <alarm_pool_alarm_callback+0xce>
10000bd4:	f3bf 8f5f 	dmb	sy
10000bd8:	2e00      	cmp	r6, #0
10000bda:	db41      	blt.n	10000c60 <alarm_pool_alarm_callback+0x160>
10000bdc:	002b      	movs	r3, r5
10000bde:	4333      	orrs	r3, r6
10000be0:	d002      	beq.n	10000be8 <alarm_pool_alarm_callback+0xe8>
10000be2:	6923      	ldr	r3, [r4, #16]
10000be4:	2b00      	cmp	r3, #0
10000be6:	d156      	bne.n	10000c96 <alarm_pool_alarm_callback+0x196>
10000be8:	6823      	ldr	r3, [r4, #0]
10000bea:	7bd9      	ldrb	r1, [r3, #15]
10000bec:	2900      	cmp	r1, #0
10000bee:	d005      	beq.n	10000bfc <alarm_pool_alarm_callback+0xfc>
10000bf0:	681a      	ldr	r2, [r3, #0]
10000bf2:	0048      	lsls	r0, r1, #1
10000bf4:	1841      	adds	r1, r0, r1
10000bf6:	1852      	adds	r2, r2, r1
10000bf8:	3a03      	subs	r2, #3
10000bfa:	7057      	strb	r7, [r2, #1]
10000bfc:	7b9a      	ldrb	r2, [r3, #14]
10000bfe:	2a00      	cmp	r2, #0
10000c00:	d100      	bne.n	10000c04 <alarm_pool_alarm_callback+0x104>
10000c02:	739f      	strb	r7, [r3, #14]
10000c04:	73df      	strb	r7, [r3, #15]
10000c06:	68e2      	ldr	r2, [r4, #12]
10000c08:	3f01      	subs	r7, #1
10000c0a:	5dd3      	ldrb	r3, [r2, r7]
10000c0c:	3301      	adds	r3, #1
10000c0e:	55d3      	strb	r3, [r2, r7]
10000c10:	465b      	mov	r3, fp
10000c12:	6123      	str	r3, [r4, #16]
10000c14:	6863      	ldr	r3, [r4, #4]
10000c16:	f3bf 8f5f 	dmb	sy
10000c1a:	465a      	mov	r2, fp
10000c1c:	601a      	str	r2, [r3, #0]
10000c1e:	f38a 8810 	msr	PRIMASK, sl
10000c22:	e77c      	b.n	10000b1e <alarm_pool_alarm_callback+0x1e>
10000c24:	2e00      	cmp	r6, #0
10000c26:	d102      	bne.n	10000c2e <alarm_pool_alarm_callback+0x12e>
10000c28:	2d00      	cmp	r5, #0
10000c2a:	d000      	beq.n	10000c2e <alarm_pool_alarm_callback+0x12e>
10000c2c:	e79a      	b.n	10000b64 <alarm_pool_alarm_callback+0x64>
10000c2e:	2100      	movs	r1, #0
10000c30:	4660      	mov	r0, ip
10000c32:	f000 fc7d 	bl	10001530 <ph_remove_head>
10000c36:	464b      	mov	r3, r9
10000c38:	681a      	ldr	r2, [r3, #0]
10000c3a:	685b      	ldr	r3, [r3, #4]
10000c3c:	9206      	str	r2, [sp, #24]
10000c3e:	9307      	str	r3, [sp, #28]
10000c40:	464b      	mov	r3, r9
10000c42:	689b      	ldr	r3, [r3, #8]
10000c44:	4698      	mov	r8, r3
10000c46:	464b      	mov	r3, r9
10000c48:	68db      	ldr	r3, [r3, #12]
10000c4a:	4699      	mov	r9, r3
10000c4c:	68e3      	ldr	r3, [r4, #12]
10000c4e:	19db      	adds	r3, r3, r7
10000c50:	3b01      	subs	r3, #1
10000c52:	781b      	ldrb	r3, [r3, #0]
10000c54:	9308      	str	r3, [sp, #32]
10000c56:	021b      	lsls	r3, r3, #8
10000c58:	4303      	orrs	r3, r0
10000c5a:	6123      	str	r3, [r4, #16]
10000c5c:	2000      	movs	r0, #0
10000c5e:	e78e      	b.n	10000b7e <alarm_pool_alarm_callback+0x7e>
10000c60:	6923      	ldr	r3, [r4, #16]
10000c62:	2b00      	cmp	r3, #0
10000c64:	d0c0      	beq.n	10000be8 <alarm_pool_alarm_callback+0xe8>
10000c66:	9a06      	ldr	r2, [sp, #24]
10000c68:	9b07      	ldr	r3, [sp, #28]
10000c6a:	2180      	movs	r1, #128	@ 0x80
10000c6c:	1b52      	subs	r2, r2, r5
10000c6e:	41b3      	sbcs	r3, r6
10000c70:	0609      	lsls	r1, r1, #24
10000c72:	428b      	cmp	r3, r1
10000c74:	d302      	bcc.n	10000c7c <alarm_pool_alarm_callback+0x17c>
10000c76:	2201      	movs	r2, #1
10000c78:	4b10      	ldr	r3, [pc, #64]	@ (10000cbc <alarm_pool_alarm_callback+0x1bc>)
10000c7a:	4252      	negs	r2, r2
10000c7c:	2100      	movs	r1, #0
10000c7e:	9104      	str	r1, [sp, #16]
10000c80:	3101      	adds	r1, #1
10000c82:	9103      	str	r1, [sp, #12]
10000c84:	4649      	mov	r1, r9
10000c86:	9101      	str	r1, [sp, #4]
10000c88:	4641      	mov	r1, r8
10000c8a:	0020      	movs	r0, r4
10000c8c:	9702      	str	r7, [sp, #8]
10000c8e:	9100      	str	r1, [sp, #0]
10000c90:	f7ff feb6 	bl	10000a00 <add_alarm_under_lock.isra.0>
10000c94:	e7bc      	b.n	10000c10 <alarm_pool_alarm_callback+0x110>
10000c96:	f000 fa55 	bl	10001144 <time_us_64>
10000c9a:	002a      	movs	r2, r5
10000c9c:	0033      	movs	r3, r6
10000c9e:	1812      	adds	r2, r2, r0
10000ca0:	414b      	adcs	r3, r1
10000ca2:	2180      	movs	r1, #128	@ 0x80
10000ca4:	0609      	lsls	r1, r1, #24
10000ca6:	428b      	cmp	r3, r1
10000ca8:	d3e8      	bcc.n	10000c7c <alarm_pool_alarm_callback+0x17c>
10000caa:	2201      	movs	r2, #1
10000cac:	4b03      	ldr	r3, [pc, #12]	@ (10000cbc <alarm_pool_alarm_callback+0x1bc>)
10000cae:	4252      	negs	r2, r2
10000cb0:	e7e4      	b.n	10000c7c <alarm_pool_alarm_callback+0x17c>
10000cb2:	46c0      	nop			@ (mov r8, r8)
10000cb4:	200005ec 	.word	0x200005ec
10000cb8:	0fffffff 	.word	0x0fffffff
10000cbc:	7fffffff 	.word	0x7fffffff

10000cc0 <alarm_pool_init_default>:
10000cc0:	b510      	push	{r4, lr}
10000cc2:	4c14      	ldr	r4, [pc, #80]	@ (10000d14 <alarm_pool_init_default+0x54>)
10000cc4:	6863      	ldr	r3, [r4, #4]
10000cc6:	2b00      	cmp	r3, #0
10000cc8:	d004      	beq.n	10000cd4 <alarm_pool_init_default+0x14>
10000cca:	210a      	movs	r1, #10
10000ccc:	4812      	ldr	r0, [pc, #72]	@ (10000d18 <alarm_pool_init_default+0x58>)
10000cce:	f7ff fe41 	bl	10000954 <lock_init>
10000cd2:	bd10      	pop	{r4, pc}
10000cd4:	0023      	movs	r3, r4
10000cd6:	4a11      	ldr	r2, [pc, #68]	@ (10000d1c <alarm_pool_init_default+0x5c>)
10000cd8:	2110      	movs	r1, #16
10000cda:	6820      	ldr	r0, [r4, #0]
10000cdc:	f000 fb44 	bl	10001368 <ph_post_alloc_init>
10000ce0:	2003      	movs	r0, #3
10000ce2:	f000 fa23 	bl	1000112c <hardware_alarm_claim>
10000ce6:	2003      	movs	r0, #3
10000ce8:	f000 faf4 	bl	100012d4 <hardware_alarm_cancel>
10000cec:	2003      	movs	r0, #3
10000cee:	490c      	ldr	r1, [pc, #48]	@ (10000d20 <alarm_pool_init_default+0x60>)
10000cf0:	f000 fa42 	bl	10001178 <hardware_alarm_set_callback>
10000cf4:	f7ff fc90 	bl	10000618 <next_striped_spin_lock_num>
10000cf8:	4b0a      	ldr	r3, [pc, #40]	@ (10000d24 <alarm_pool_init_default+0x64>)
10000cfa:	469c      	mov	ip, r3
10000cfc:	2303      	movs	r3, #3
10000cfe:	7523      	strb	r3, [r4, #20]
10000d00:	23d0      	movs	r3, #208	@ 0xd0
10000d02:	061b      	lsls	r3, r3, #24
10000d04:	681b      	ldr	r3, [r3, #0]
10000d06:	4460      	add	r0, ip
10000d08:	7563      	strb	r3, [r4, #21]
10000d0a:	4b07      	ldr	r3, [pc, #28]	@ (10000d28 <alarm_pool_init_default+0x68>)
10000d0c:	0080      	lsls	r0, r0, #2
10000d0e:	6060      	str	r0, [r4, #4]
10000d10:	60dc      	str	r4, [r3, #12]
10000d12:	e7da      	b.n	10000cca <alarm_pool_init_default+0xa>
10000d14:	200001e4 	.word	0x200001e4
10000d18:	20000600 	.word	0x20000600
10000d1c:	1000099d 	.word	0x1000099d
10000d20:	10000b01 	.word	0x10000b01
10000d24:	34000040 	.word	0x34000040
10000d28:	200005ec 	.word	0x200005ec

10000d2c <alarm_pool_add_alarm_at>:
10000d2c:	b5f0      	push	{r4, r5, r6, r7, lr}
10000d2e:	4657      	mov	r7, sl
10000d30:	464e      	mov	r6, r9
10000d32:	4645      	mov	r5, r8
10000d34:	46de      	mov	lr, fp
10000d36:	b5e0      	push	{r5, r6, r7, lr}
10000d38:	b085      	sub	sp, #20
10000d3a:	9301      	str	r3, [sp, #4]
10000d3c:	ab10      	add	r3, sp, #64	@ 0x40
10000d3e:	781b      	ldrb	r3, [r3, #0]
10000d40:	0006      	movs	r6, r0
10000d42:	9303      	str	r3, [sp, #12]
10000d44:	2300      	movs	r3, #0
10000d46:	469a      	mov	sl, r3
10000d48:	4698      	mov	r8, r3
10000d4a:	9200      	str	r2, [sp, #0]
10000d4c:	6872      	ldr	r2, [r6, #4]
10000d4e:	f3ef 8b10 	mrs	fp, PRIMASK
10000d52:	b672      	cpsid	i
10000d54:	6813      	ldr	r3, [r2, #0]
10000d56:	2b00      	cmp	r3, #0
10000d58:	d0fc      	beq.n	10000d54 <alarm_pool_add_alarm_at+0x28>
10000d5a:	f3bf 8f5f 	dmb	sy
10000d5e:	6835      	ldr	r5, [r6, #0]
10000d60:	7bac      	ldrb	r4, [r5, #14]
10000d62:	2c00      	cmp	r4, #0
10000d64:	d100      	bne.n	10000d68 <alarm_pool_add_alarm_at+0x3c>
10000d66:	e06e      	b.n	10000e46 <alarm_pool_add_alarm_at+0x11a>
10000d68:	0067      	lsls	r7, r4, #1
10000d6a:	682b      	ldr	r3, [r5, #0]
10000d6c:	193f      	adds	r7, r7, r4
10000d6e:	3f03      	subs	r7, #3
10000d70:	19db      	adds	r3, r3, r7
10000d72:	785a      	ldrb	r2, [r3, #1]
10000d74:	73aa      	strb	r2, [r5, #14]
10000d76:	2a00      	cmp	r2, #0
10000d78:	d100      	bne.n	10000d7c <alarm_pool_add_alarm_at+0x50>
10000d7a:	73ea      	strb	r2, [r5, #15]
10000d7c:	4a48      	ldr	r2, [pc, #288]	@ (10000ea0 <alarm_pool_add_alarm_at+0x174>)
10000d7e:	18a1      	adds	r1, r4, r2
10000d80:	68b2      	ldr	r2, [r6, #8]
10000d82:	0109      	lsls	r1, r1, #4
10000d84:	1852      	adds	r2, r2, r1
10000d86:	9800      	ldr	r0, [sp, #0]
10000d88:	9901      	ldr	r1, [sp, #4]
10000d8a:	6010      	str	r0, [r2, #0]
10000d8c:	6051      	str	r1, [r2, #4]
10000d8e:	990e      	ldr	r1, [sp, #56]	@ 0x38
10000d90:	6091      	str	r1, [r2, #8]
10000d92:	990f      	ldr	r1, [sp, #60]	@ 0x3c
10000d94:	60d1      	str	r1, [r2, #12]
10000d96:	4642      	mov	r2, r8
10000d98:	709a      	strb	r2, [r3, #2]
10000d9a:	705a      	strb	r2, [r3, #1]
10000d9c:	701a      	strb	r2, [r3, #0]
10000d9e:	7b6b      	ldrb	r3, [r5, #13]
10000da0:	4699      	mov	r9, r3
10000da2:	2b00      	cmp	r3, #0
10000da4:	d100      	bne.n	10000da8 <alarm_pool_add_alarm_at+0x7c>
10000da6:	e06b      	b.n	10000e80 <alarm_pool_add_alarm_at+0x154>
10000da8:	0022      	movs	r2, r4
10000daa:	686b      	ldr	r3, [r5, #4]
10000dac:	4649      	mov	r1, r9
10000dae:	68a8      	ldr	r0, [r5, #8]
10000db0:	4798      	blx	r3
10000db2:	464b      	mov	r3, r9
10000db4:	005b      	lsls	r3, r3, #1
10000db6:	444b      	add	r3, r9
10000db8:	682a      	ldr	r2, [r5, #0]
10000dba:	3b03      	subs	r3, #3
10000dbc:	2800      	cmp	r0, #0
10000dbe:	d056      	beq.n	10000e6e <alarm_pool_add_alarm_at+0x142>
10000dc0:	4648      	mov	r0, r9
10000dc2:	19d7      	adds	r7, r2, r7
10000dc4:	70b8      	strb	r0, [r7, #2]
10000dc6:	18d1      	adds	r1, r2, r3
10000dc8:	5cd3      	ldrb	r3, [r2, r3]
10000dca:	2b00      	cmp	r3, #0
10000dcc:	d000      	beq.n	10000dd0 <alarm_pool_add_alarm_at+0xa4>
10000dce:	707b      	strb	r3, [r7, #1]
10000dd0:	464b      	mov	r3, r9
10000dd2:	700c      	strb	r4, [r1, #0]
10000dd4:	736b      	strb	r3, [r5, #13]
10000dd6:	454c      	cmp	r4, r9
10000dd8:	d053      	beq.n	10000e82 <alarm_pool_add_alarm_at+0x156>
10000dda:	68f3      	ldr	r3, [r6, #12]
10000ddc:	191b      	adds	r3, r3, r4
10000dde:	3b01      	subs	r3, #1
10000de0:	7818      	ldrb	r0, [r3, #0]
10000de2:	6873      	ldr	r3, [r6, #4]
10000de4:	f3bf 8f5f 	dmb	sy
10000de8:	4642      	mov	r2, r8
10000dea:	601a      	str	r2, [r3, #0]
10000dec:	f38b 8810 	msr	PRIMASK, fp
10000df0:	4653      	mov	r3, sl
10000df2:	2b00      	cmp	r3, #0
10000df4:	d108      	bne.n	10000e08 <alarm_pool_add_alarm_at+0xdc>
10000df6:	0200      	lsls	r0, r0, #8
10000df8:	4320      	orrs	r0, r4
10000dfa:	b005      	add	sp, #20
10000dfc:	bcf0      	pop	{r4, r5, r6, r7}
10000dfe:	46bb      	mov	fp, r7
10000e00:	46b2      	mov	sl, r6
10000e02:	46a9      	mov	r9, r5
10000e04:	46a0      	mov	r8, r4
10000e06:	bdf0      	pop	{r4, r5, r6, r7, pc}
10000e08:	9b03      	ldr	r3, [sp, #12]
10000e0a:	2b00      	cmp	r3, #0
10000e0c:	d046      	beq.n	10000e9c <alarm_pool_add_alarm_at+0x170>
10000e0e:	9b0e      	ldr	r3, [sp, #56]	@ 0x38
10000e10:	2000      	movs	r0, #0
10000e12:	990f      	ldr	r1, [sp, #60]	@ 0x3c
10000e14:	4798      	blx	r3
10000e16:	0003      	movs	r3, r0
10000e18:	430b      	orrs	r3, r1
10000e1a:	d03f      	beq.n	10000e9c <alarm_pool_add_alarm_at+0x170>
10000e1c:	0004      	movs	r4, r0
10000e1e:	1e0d      	subs	r5, r1, #0
10000e20:	da1a      	bge.n	10000e58 <alarm_pool_add_alarm_at+0x12c>
10000e22:	9a00      	ldr	r2, [sp, #0]
10000e24:	9b01      	ldr	r3, [sp, #4]
10000e26:	1b12      	subs	r2, r2, r4
10000e28:	41ab      	sbcs	r3, r5
10000e2a:	9200      	str	r2, [sp, #0]
10000e2c:	9301      	str	r3, [sp, #4]
10000e2e:	2280      	movs	r2, #128	@ 0x80
10000e30:	0612      	lsls	r2, r2, #24
10000e32:	4293      	cmp	r3, r2
10000e34:	d304      	bcc.n	10000e40 <alarm_pool_add_alarm_at+0x114>
10000e36:	2301      	movs	r3, #1
10000e38:	4c1a      	ldr	r4, [pc, #104]	@ (10000ea4 <alarm_pool_add_alarm_at+0x178>)
10000e3a:	425b      	negs	r3, r3
10000e3c:	9300      	str	r3, [sp, #0]
10000e3e:	9401      	str	r4, [sp, #4]
10000e40:	9b03      	ldr	r3, [sp, #12]
10000e42:	469a      	mov	sl, r3
10000e44:	e782      	b.n	10000d4c <alarm_pool_add_alarm_at+0x20>
10000e46:	6873      	ldr	r3, [r6, #4]
10000e48:	f3bf 8f5f 	dmb	sy
10000e4c:	601c      	str	r4, [r3, #0]
10000e4e:	f38b 8810 	msr	PRIMASK, fp
10000e52:	2001      	movs	r0, #1
10000e54:	4240      	negs	r0, r0
10000e56:	e7d0      	b.n	10000dfa <alarm_pool_add_alarm_at+0xce>
10000e58:	f000 f974 	bl	10001144 <time_us_64>
10000e5c:	2280      	movs	r2, #128	@ 0x80
10000e5e:	1900      	adds	r0, r0, r4
10000e60:	4169      	adcs	r1, r5
10000e62:	0612      	lsls	r2, r2, #24
10000e64:	9000      	str	r0, [sp, #0]
10000e66:	9101      	str	r1, [sp, #4]
10000e68:	4291      	cmp	r1, r2
10000e6a:	d3e9      	bcc.n	10000e40 <alarm_pool_add_alarm_at+0x114>
10000e6c:	e7e3      	b.n	10000e36 <alarm_pool_add_alarm_at+0x10a>
10000e6e:	18d3      	adds	r3, r2, r3
10000e70:	709c      	strb	r4, [r3, #2]
10000e72:	19d1      	adds	r1, r2, r7
10000e74:	5dd2      	ldrb	r2, [r2, r7]
10000e76:	2a00      	cmp	r2, #0
10000e78:	d000      	beq.n	10000e7c <alarm_pool_add_alarm_at+0x150>
10000e7a:	705a      	strb	r2, [r3, #1]
10000e7c:	464b      	mov	r3, r9
10000e7e:	700b      	strb	r3, [r1, #0]
10000e80:	736c      	strb	r4, [r5, #13]
10000e82:	7d30      	ldrb	r0, [r6, #20]
10000e84:	9a00      	ldr	r2, [sp, #0]
10000e86:	9b01      	ldr	r3, [sp, #4]
10000e88:	f000 f9bc 	bl	10001204 <hardware_alarm_set_target>
10000e8c:	4682      	mov	sl, r0
10000e8e:	2800      	cmp	r0, #0
10000e90:	d0a3      	beq.n	10000dda <alarm_pool_add_alarm_at+0xae>
10000e92:	0021      	movs	r1, r4
10000e94:	6830      	ldr	r0, [r6, #0]
10000e96:	f000 fbcd 	bl	10001634 <ph_remove_and_free_node>
10000e9a:	e79e      	b.n	10000dda <alarm_pool_add_alarm_at+0xae>
10000e9c:	2000      	movs	r0, #0
10000e9e:	e7ac      	b.n	10000dfa <alarm_pool_add_alarm_at+0xce>
10000ea0:	0fffffff 	.word	0x0fffffff
10000ea4:	7fffffff 	.word	0x7fffffff

10000ea8 <sleep_until>:
10000ea8:	b5f0      	push	{r4, r5, r6, r7, lr}
10000eaa:	0004      	movs	r4, r0
10000eac:	000d      	movs	r5, r1
10000eae:	2606      	movs	r6, #6
10000eb0:	4276      	negs	r6, r6
10000eb2:	17f7      	asrs	r7, r6, #31
10000eb4:	46c6      	mov	lr, r8
10000eb6:	1936      	adds	r6, r6, r4
10000eb8:	416f      	adcs	r7, r5
10000eba:	b500      	push	{lr}
10000ebc:	b084      	sub	sp, #16
10000ebe:	428f      	cmp	r7, r1
10000ec0:	d814      	bhi.n	10000eec <sleep_until+0x44>
10000ec2:	d011      	beq.n	10000ee8 <sleep_until+0x40>
10000ec4:	f000 f93e 	bl	10001144 <time_us_64>
10000ec8:	0032      	movs	r2, r6
10000eca:	003b      	movs	r3, r7
10000ecc:	1a12      	subs	r2, r2, r0
10000ece:	418b      	sbcs	r3, r1
10000ed0:	2b00      	cmp	r3, #0
10000ed2:	dc15      	bgt.n	10000f00 <sleep_until+0x58>
10000ed4:	2b00      	cmp	r3, #0
10000ed6:	d03e      	beq.n	10000f56 <sleep_until+0xae>
10000ed8:	0020      	movs	r0, r4
10000eda:	0029      	movs	r1, r5
10000edc:	f000 f93c 	bl	10001158 <busy_wait_until>
10000ee0:	b004      	add	sp, #16
10000ee2:	bc80      	pop	{r7}
10000ee4:	46b8      	mov	r8, r7
10000ee6:	bdf0      	pop	{r4, r5, r6, r7, pc}
10000ee8:	4286      	cmp	r6, r0
10000eea:	d9eb      	bls.n	10000ec4 <sleep_until+0x1c>
10000eec:	2600      	movs	r6, #0
10000eee:	2700      	movs	r7, #0
10000ef0:	f000 f928 	bl	10001144 <time_us_64>
10000ef4:	0032      	movs	r2, r6
10000ef6:	003b      	movs	r3, r7
10000ef8:	1a12      	subs	r2, r2, r0
10000efa:	418b      	sbcs	r3, r1
10000efc:	2b00      	cmp	r3, #0
10000efe:	dde9      	ble.n	10000ed4 <sleep_until+0x2c>
10000f00:	2300      	movs	r3, #0
10000f02:	9302      	str	r3, [sp, #8]
10000f04:	9301      	str	r3, [sp, #4]
10000f06:	4b15      	ldr	r3, [pc, #84]	@ (10000f5c <sleep_until+0xb4>)
10000f08:	0032      	movs	r2, r6
10000f0a:	9300      	str	r3, [sp, #0]
10000f0c:	4814      	ldr	r0, [pc, #80]	@ (10000f60 <sleep_until+0xb8>)
10000f0e:	003b      	movs	r3, r7
10000f10:	f7ff ff0c 	bl	10000d2c <alarm_pool_add_alarm_at>
10000f14:	2800      	cmp	r0, #0
10000f16:	dbdf      	blt.n	10000ed8 <sleep_until+0x30>
10000f18:	2300      	movs	r3, #0
10000f1a:	4698      	mov	r8, r3
10000f1c:	46bc      	mov	ip, r7
10000f1e:	4a11      	ldr	r2, [pc, #68]	@ (10000f64 <sleep_until+0xbc>)
10000f20:	4f11      	ldr	r7, [pc, #68]	@ (10000f68 <sleep_until+0xc0>)
10000f22:	6a7b      	ldr	r3, [r7, #36]	@ 0x24
10000f24:	459c      	cmp	ip, r3
10000f26:	d804      	bhi.n	10000f32 <sleep_until+0x8a>
10000f28:	6ab9      	ldr	r1, [r7, #40]	@ 0x28
10000f2a:	428e      	cmp	r6, r1
10000f2c:	d9d4      	bls.n	10000ed8 <sleep_until+0x30>
10000f2e:	459c      	cmp	ip, r3
10000f30:	d1d2      	bne.n	10000ed8 <sleep_until+0x30>
10000f32:	6811      	ldr	r1, [r2, #0]
10000f34:	f3ef 8010 	mrs	r0, PRIMASK
10000f38:	b672      	cpsid	i
10000f3a:	680b      	ldr	r3, [r1, #0]
10000f3c:	2b00      	cmp	r3, #0
10000f3e:	d0fc      	beq.n	10000f3a <sleep_until+0x92>
10000f40:	f3bf 8f5f 	dmb	sy
10000f44:	6813      	ldr	r3, [r2, #0]
10000f46:	f3bf 8f5f 	dmb	sy
10000f4a:	4641      	mov	r1, r8
10000f4c:	6019      	str	r1, [r3, #0]
10000f4e:	f380 8810 	msr	PRIMASK, r0
10000f52:	bf20      	wfe
10000f54:	e7e5      	b.n	10000f22 <sleep_until+0x7a>
10000f56:	2a00      	cmp	r2, #0
10000f58:	d0be      	beq.n	10000ed8 <sleep_until+0x30>
10000f5a:	e7d1      	b.n	10000f00 <sleep_until+0x58>
10000f5c:	100009d1 	.word	0x100009d1
10000f60:	200001e4 	.word	0x200001e4
10000f64:	20000600 	.word	0x20000600
10000f68:	40054000 	.word	0x40054000

10000f6c <sleep_ms>:
10000f6c:	b570      	push	{r4, r5, r6, lr}
10000f6e:	0006      	movs	r6, r0
10000f70:	f000 f8e8 	bl	10001144 <time_us_64>
10000f74:	22fa      	movs	r2, #250	@ 0xfa
10000f76:	0004      	movs	r4, r0
10000f78:	000d      	movs	r5, r1
10000f7a:	2300      	movs	r3, #0
10000f7c:	0030      	movs	r0, r6
10000f7e:	2100      	movs	r1, #0
10000f80:	0092      	lsls	r2, r2, #2
10000f82:	f003 f829 	bl	10003fd8 <__wrap___aeabi_lmul>
10000f86:	2380      	movs	r3, #128	@ 0x80
10000f88:	1900      	adds	r0, r0, r4
10000f8a:	4169      	adcs	r1, r5
10000f8c:	061b      	lsls	r3, r3, #24
10000f8e:	4299      	cmp	r1, r3
10000f90:	d302      	bcc.n	10000f98 <sleep_ms+0x2c>
10000f92:	2001      	movs	r0, #1
10000f94:	4902      	ldr	r1, [pc, #8]	@ (10000fa0 <sleep_ms+0x34>)
10000f96:	4240      	negs	r0, r0
10000f98:	f7ff ff86 	bl	10000ea8 <sleep_until>
10000f9c:	bd70      	pop	{r4, r5, r6, pc}
10000f9e:	46c0      	nop			@ (mov r8, r8)
10000fa0:	7fffffff 	.word	0x7fffffff

10000fa4 <best_effort_wfe_or_timeout>:
10000fa4:	b5f0      	push	{r4, r5, r6, r7, lr}
10000fa6:	f3ef 8305 	mrs	r3, IPSR
10000faa:	46ce      	mov	lr, r9
10000fac:	4647      	mov	r7, r8
10000fae:	b580      	push	{r7, lr}
10000fb0:	0005      	movs	r5, r0
10000fb2:	000c      	movs	r4, r1
10000fb4:	b085      	sub	sp, #20
10000fb6:	2b00      	cmp	r3, #0
10000fb8:	d012      	beq.n	10000fe0 <best_effort_wfe_or_timeout+0x3c>
10000fba:	4a2a      	ldr	r2, [pc, #168]	@ (10001064 <best_effort_wfe_or_timeout+0xc0>)
10000fbc:	2000      	movs	r0, #0
10000fbe:	6a53      	ldr	r3, [r2, #36]	@ 0x24
10000fc0:	42a3      	cmp	r3, r4
10000fc2:	d303      	bcc.n	10000fcc <best_effort_wfe_or_timeout+0x28>
10000fc4:	6a92      	ldr	r2, [r2, #40]	@ 0x28
10000fc6:	3001      	adds	r0, #1
10000fc8:	42aa      	cmp	r2, r5
10000fca:	d304      	bcc.n	10000fd6 <best_effort_wfe_or_timeout+0x32>
10000fcc:	b005      	add	sp, #20
10000fce:	bcc0      	pop	{r6, r7}
10000fd0:	46b9      	mov	r9, r7
10000fd2:	46b0      	mov	r8, r6
10000fd4:	bdf0      	pop	{r4, r5, r6, r7, pc}
10000fd6:	1b1b      	subs	r3, r3, r4
10000fd8:	1e5a      	subs	r2, r3, #1
10000fda:	4193      	sbcs	r3, r2
10000fdc:	b2d8      	uxtb	r0, r3
10000fde:	e7f5      	b.n	10000fcc <best_effort_wfe_or_timeout+0x28>
10000fe0:	4e21      	ldr	r6, [pc, #132]	@ (10001068 <best_effort_wfe_or_timeout+0xc4>)
10000fe2:	9302      	str	r3, [sp, #8]
10000fe4:	9301      	str	r3, [sp, #4]
10000fe6:	4b21      	ldr	r3, [pc, #132]	@ (1000106c <best_effort_wfe_or_timeout+0xc8>)
10000fe8:	0002      	movs	r2, r0
10000fea:	9300      	str	r3, [sp, #0]
10000fec:	0030      	movs	r0, r6
10000fee:	000b      	movs	r3, r1
10000ff0:	f7ff fe9c 	bl	10000d2c <alarm_pool_add_alarm_at>
10000ff4:	1e03      	subs	r3, r0, #0
10000ff6:	dde0      	ble.n	10000fba <best_effort_wfe_or_timeout+0x16>
10000ff8:	bf20      	wfe
10000ffa:	6871      	ldr	r1, [r6, #4]
10000ffc:	f3ef 8710 	mrs	r7, PRIMASK
10001000:	b672      	cpsid	i
10001002:	680a      	ldr	r2, [r1, #0]
10001004:	2a00      	cmp	r2, #0
10001006:	d0fc      	beq.n	10001002 <best_effort_wfe_or_timeout+0x5e>
10001008:	f3bf 8f5f 	dmb	sy
1000100c:	b2da      	uxtb	r2, r3
1000100e:	4694      	mov	ip, r2
10001010:	22ff      	movs	r2, #255	@ 0xff
10001012:	6830      	ldr	r0, [r6, #0]
10001014:	401a      	ands	r2, r3
10001016:	7b41      	ldrb	r1, [r0, #13]
10001018:	4561      	cmp	r1, ip
1000101a:	d00f      	beq.n	1000103c <best_effort_wfe_or_timeout+0x98>
1000101c:	6801      	ldr	r1, [r0, #0]
1000101e:	4689      	mov	r9, r1
10001020:	0051      	lsls	r1, r2, #1
10001022:	4688      	mov	r8, r1
10001024:	4649      	mov	r1, r9
10001026:	4490      	add	r8, r2
10001028:	4441      	add	r1, r8
1000102a:	3903      	subs	r1, #3
1000102c:	7889      	ldrb	r1, [r1, #2]
1000102e:	2900      	cmp	r1, #0
10001030:	d104      	bne.n	1000103c <best_effort_wfe_or_timeout+0x98>
10001032:	6932      	ldr	r2, [r6, #16]
10001034:	4293      	cmp	r3, r2
10001036:	d109      	bne.n	1000104c <best_effort_wfe_or_timeout+0xa8>
10001038:	6131      	str	r1, [r6, #16]
1000103a:	e007      	b.n	1000104c <best_effort_wfe_or_timeout+0xa8>
1000103c:	68f1      	ldr	r1, [r6, #12]
1000103e:	0a1b      	lsrs	r3, r3, #8
10001040:	188a      	adds	r2, r1, r2
10001042:	3a01      	subs	r2, #1
10001044:	7812      	ldrb	r2, [r2, #0]
10001046:	b2db      	uxtb	r3, r3
10001048:	429a      	cmp	r2, r3
1000104a:	d007      	beq.n	1000105c <best_effort_wfe_or_timeout+0xb8>
1000104c:	6873      	ldr	r3, [r6, #4]
1000104e:	f3bf 8f5f 	dmb	sy
10001052:	2200      	movs	r2, #0
10001054:	601a      	str	r2, [r3, #0]
10001056:	f387 8810 	msr	PRIMASK, r7
1000105a:	e7ae      	b.n	10000fba <best_effort_wfe_or_timeout+0x16>
1000105c:	4661      	mov	r1, ip
1000105e:	f000 fae9 	bl	10001634 <ph_remove_and_free_node>
10001062:	e7f3      	b.n	1000104c <best_effort_wfe_or_timeout+0xa8>
10001064:	40054000 	.word	0x40054000
10001068:	200001e4 	.word	0x200001e4
1000106c:	100009d1 	.word	0x100009d1

10001070 <hardware_alarm_irq_handler>:
10001070:	b5f0      	push	{r4, r5, r6, r7, lr}
10001072:	f3ef 8205 	mrs	r2, IPSR
10001076:	46d6      	mov	lr, sl
10001078:	464f      	mov	r7, r9
1000107a:	4646      	mov	r6, r8
1000107c:	0010      	movs	r0, r2
1000107e:	b5c0      	push	{r6, r7, lr}
10001080:	3810      	subs	r0, #16
10001082:	f3ef 8810 	mrs	r8, PRIMASK
10001086:	b672      	cpsid	i
10001088:	4c21      	ldr	r4, [pc, #132]	@ (10001110 <hardware_alarm_irq_handler+0xa0>)
1000108a:	6823      	ldr	r3, [r4, #0]
1000108c:	2b00      	cmp	r3, #0
1000108e:	d0fc      	beq.n	1000108a <hardware_alarm_irq_handler+0x1a>
10001090:	f3bf 8f5f 	dmb	sy
10001094:	2301      	movs	r3, #1
10001096:	0019      	movs	r1, r3
10001098:	4081      	lsls	r1, r0
1000109a:	4d1e      	ldr	r5, [pc, #120]	@ (10001114 <hardware_alarm_irq_handler+0xa4>)
1000109c:	001f      	movs	r7, r3
1000109e:	6369      	str	r1, [r5, #52]	@ 0x34
100010a0:	46aa      	mov	sl, r5
100010a2:	4d1d      	ldr	r5, [pc, #116]	@ (10001118 <hardware_alarm_irq_handler+0xa8>)
100010a4:	6029      	str	r1, [r5, #0]
100010a6:	4d1d      	ldr	r5, [pc, #116]	@ (1000111c <hardware_alarm_irq_handler+0xac>)
100010a8:	782e      	ldrb	r6, [r5, #0]
100010aa:	46ac      	mov	ip, r5
100010ac:	0035      	movs	r5, r6
100010ae:	40c5      	lsrs	r5, r0
100010b0:	402f      	ands	r7, r5
100010b2:	422b      	tst	r3, r5
100010b4:	d015      	beq.n	100010e2 <hardware_alarm_irq_handler+0x72>
100010b6:	4653      	mov	r3, sl
100010b8:	6a5f      	ldr	r7, [r3, #36]	@ 0x24
100010ba:	4b19      	ldr	r3, [pc, #100]	@ (10001120 <hardware_alarm_irq_handler+0xb0>)
100010bc:	0085      	lsls	r5, r0, #2
100010be:	58eb      	ldr	r3, [r5, r3]
100010c0:	429f      	cmp	r7, r3
100010c2:	d318      	bcc.n	100010f6 <hardware_alarm_irq_handler+0x86>
100010c4:	4662      	mov	r2, ip
100010c6:	4b17      	ldr	r3, [pc, #92]	@ (10001124 <hardware_alarm_irq_handler+0xb4>)
100010c8:	438e      	bics	r6, r1
100010ca:	58eb      	ldr	r3, [r5, r3]
100010cc:	7016      	strb	r6, [r2, #0]
100010ce:	f3bf 8f5f 	dmb	sy
100010d2:	2200      	movs	r2, #0
100010d4:	6022      	str	r2, [r4, #0]
100010d6:	f388 8810 	msr	PRIMASK, r8
100010da:	2b00      	cmp	r3, #0
100010dc:	d006      	beq.n	100010ec <hardware_alarm_irq_handler+0x7c>
100010de:	4798      	blx	r3
100010e0:	e004      	b.n	100010ec <hardware_alarm_irq_handler+0x7c>
100010e2:	f3bf 8f5f 	dmb	sy
100010e6:	6027      	str	r7, [r4, #0]
100010e8:	f388 8810 	msr	PRIMASK, r8
100010ec:	bce0      	pop	{r5, r6, r7}
100010ee:	46ba      	mov	sl, r7
100010f0:	46b1      	mov	r9, r6
100010f2:	46a8      	mov	r8, r5
100010f4:	bdf0      	pop	{r4, r5, r6, r7, pc}
100010f6:	4b0c      	ldr	r3, [pc, #48]	@ (10001128 <hardware_alarm_irq_handler+0xb8>)
100010f8:	0092      	lsls	r2, r2, #2
100010fa:	469c      	mov	ip, r3
100010fc:	4462      	add	r2, ip
100010fe:	6813      	ldr	r3, [r2, #0]
10001100:	6013      	str	r3, [r2, #0]
10001102:	f3bf 8f5f 	dmb	sy
10001106:	2300      	movs	r3, #0
10001108:	6023      	str	r3, [r4, #0]
1000110a:	f388 8810 	msr	PRIMASK, r8
1000110e:	e7ed      	b.n	100010ec <hardware_alarm_irq_handler+0x7c>
10001110:	d0000128 	.word	0xd0000128
10001114:	40054000 	.word	0x40054000
10001118:	4005703c 	.word	0x4005703c
1000111c:	20000616 	.word	0x20000616
10001120:	20000604 	.word	0x20000604
10001124:	20000578 	.word	0x20000578
10001128:	40053fd0 	.word	0x40053fd0

1000112c <hardware_alarm_claim>:
1000112c:	b510      	push	{r4, lr}
1000112e:	4b03      	ldr	r3, [pc, #12]	@ (1000113c <hardware_alarm_claim+0x10>)
10001130:	0001      	movs	r1, r0
10001132:	0018      	movs	r0, r3
10001134:	4a02      	ldr	r2, [pc, #8]	@ (10001140 <hardware_alarm_claim+0x14>)
10001136:	f7ff fa3f 	bl	100005b8 <hw_claim_or_assert>
1000113a:	bd10      	pop	{r4, pc}
1000113c:	20000614 	.word	0x20000614
10001140:	100044bc 	.word	0x100044bc

10001144 <time_us_64>:
10001144:	4b03      	ldr	r3, [pc, #12]	@ (10001154 <time_us_64+0x10>)
10001146:	6a59      	ldr	r1, [r3, #36]	@ 0x24
10001148:	000a      	movs	r2, r1
1000114a:	6a98      	ldr	r0, [r3, #40]	@ 0x28
1000114c:	6a59      	ldr	r1, [r3, #36]	@ 0x24
1000114e:	428a      	cmp	r2, r1
10001150:	d1fa      	bne.n	10001148 <time_us_64+0x4>
10001152:	4770      	bx	lr
10001154:	40054000 	.word	0x40054000

10001158 <busy_wait_until>:
10001158:	4a06      	ldr	r2, [pc, #24]	@ (10001174 <busy_wait_until+0x1c>)
1000115a:	6a53      	ldr	r3, [r2, #36]	@ 0x24
1000115c:	4299      	cmp	r1, r3
1000115e:	d8fc      	bhi.n	1000115a <busy_wait_until+0x2>
10001160:	d107      	bne.n	10001172 <busy_wait_until+0x1a>
10001162:	4b04      	ldr	r3, [pc, #16]	@ (10001174 <busy_wait_until+0x1c>)
10001164:	e002      	b.n	1000116c <busy_wait_until+0x14>
10001166:	6a5a      	ldr	r2, [r3, #36]	@ 0x24
10001168:	4291      	cmp	r1, r2
1000116a:	d102      	bne.n	10001172 <busy_wait_until+0x1a>
1000116c:	6a9a      	ldr	r2, [r3, #40]	@ 0x28
1000116e:	4282      	cmp	r2, r0
10001170:	d3f9      	bcc.n	10001166 <busy_wait_until+0xe>
10001172:	4770      	bx	lr
10001174:	40054000 	.word	0x40054000

10001178 <hardware_alarm_set_callback>:
10001178:	b570      	push	{r4, r5, r6, lr}
1000117a:	0004      	movs	r4, r0
1000117c:	000d      	movs	r5, r1
1000117e:	f3ef 8610 	mrs	r6, PRIMASK
10001182:	b672      	cpsid	i
10001184:	4a1a      	ldr	r2, [pc, #104]	@ (100011f0 <hardware_alarm_set_callback+0x78>)
10001186:	6813      	ldr	r3, [r2, #0]
10001188:	2b00      	cmp	r3, #0
1000118a:	d0fc      	beq.n	10001186 <hardware_alarm_set_callback+0xe>
1000118c:	f3bf 8f5f 	dmb	sy
10001190:	2d00      	cmp	r5, #0
10001192:	d01b      	beq.n	100011cc <hardware_alarm_set_callback+0x54>
10001194:	0020      	movs	r0, r4
10001196:	f7ff fa5d 	bl	10000654 <irq_get_vtable_handler>
1000119a:	4916      	ldr	r1, [pc, #88]	@ (100011f4 <hardware_alarm_set_callback+0x7c>)
1000119c:	4281      	cmp	r1, r0
1000119e:	d00a      	beq.n	100011b6 <hardware_alarm_set_callback+0x3e>
100011a0:	0020      	movs	r0, r4
100011a2:	f7ff fa5f 	bl	10000664 <irq_set_exclusive_handler>
100011a6:	2101      	movs	r1, #1
100011a8:	0020      	movs	r0, r4
100011aa:	f7ff fa41 	bl	10000630 <irq_set_enabled>
100011ae:	2301      	movs	r3, #1
100011b0:	40a3      	lsls	r3, r4
100011b2:	4a11      	ldr	r2, [pc, #68]	@ (100011f8 <hardware_alarm_set_callback+0x80>)
100011b4:	6013      	str	r3, [r2, #0]
100011b6:	4b11      	ldr	r3, [pc, #68]	@ (100011fc <hardware_alarm_set_callback+0x84>)
100011b8:	00a4      	lsls	r4, r4, #2
100011ba:	50e5      	str	r5, [r4, r3]
100011bc:	f3bf 8f5f 	dmb	sy
100011c0:	2200      	movs	r2, #0
100011c2:	4b0b      	ldr	r3, [pc, #44]	@ (100011f0 <hardware_alarm_set_callback+0x78>)
100011c4:	601a      	str	r2, [r3, #0]
100011c6:	f386 8810 	msr	PRIMASK, r6
100011ca:	bd70      	pop	{r4, r5, r6, pc}
100011cc:	2101      	movs	r1, #1
100011ce:	40a1      	lsls	r1, r4
100011d0:	4b0a      	ldr	r3, [pc, #40]	@ (100011fc <hardware_alarm_set_callback+0x84>)
100011d2:	00a2      	lsls	r2, r4, #2
100011d4:	50d5      	str	r5, [r2, r3]
100011d6:	4b0a      	ldr	r3, [pc, #40]	@ (10001200 <hardware_alarm_set_callback+0x88>)
100011d8:	0020      	movs	r0, r4
100011da:	781a      	ldrb	r2, [r3, #0]
100011dc:	438a      	bics	r2, r1
100011de:	4905      	ldr	r1, [pc, #20]	@ (100011f4 <hardware_alarm_set_callback+0x7c>)
100011e0:	701a      	strb	r2, [r3, #0]
100011e2:	f7ff fa69 	bl	100006b8 <irq_remove_handler>
100011e6:	2100      	movs	r1, #0
100011e8:	0020      	movs	r0, r4
100011ea:	f7ff fa21 	bl	10000630 <irq_set_enabled>
100011ee:	e7e5      	b.n	100011bc <hardware_alarm_set_callback+0x44>
100011f0:	d0000128 	.word	0xd0000128
100011f4:	10001071 	.word	0x10001071
100011f8:	40056038 	.word	0x40056038
100011fc:	20000578 	.word	0x20000578
10001200:	20000616 	.word	0x20000616

10001204 <hardware_alarm_set_target>:
10001204:	b5f0      	push	{r4, r5, r6, r7, lr}
10001206:	464f      	mov	r7, r9
10001208:	46d6      	mov	lr, sl
1000120a:	4646      	mov	r6, r8
1000120c:	b5c0      	push	{r6, r7, lr}
1000120e:	0007      	movs	r7, r0
10001210:	4c2b      	ldr	r4, [pc, #172]	@ (100012c0 <hardware_alarm_set_target+0xbc>)
10001212:	6a61      	ldr	r1, [r4, #36]	@ 0x24
10001214:	000d      	movs	r5, r1
10001216:	6aa6      	ldr	r6, [r4, #40]	@ 0x28
10001218:	6a61      	ldr	r1, [r4, #36]	@ 0x24
1000121a:	42a9      	cmp	r1, r5
1000121c:	d1fa      	bne.n	10001214 <hardware_alarm_set_target+0x10>
1000121e:	428b      	cmp	r3, r1
10001220:	d808      	bhi.n	10001234 <hardware_alarm_set_target+0x30>
10001222:	d005      	beq.n	10001230 <hardware_alarm_set_target+0x2c>
10001224:	2001      	movs	r0, #1
10001226:	bce0      	pop	{r5, r6, r7}
10001228:	46ba      	mov	sl, r7
1000122a:	46b1      	mov	r9, r6
1000122c:	46a8      	mov	r8, r5
1000122e:	bdf0      	pop	{r4, r5, r6, r7, pc}
10001230:	42b2      	cmp	r2, r6
10001232:	d9f7      	bls.n	10001224 <hardware_alarm_set_target+0x20>
10001234:	f3ef 8a10 	mrs	sl, PRIMASK
10001238:	b672      	cpsid	i
1000123a:	4822      	ldr	r0, [pc, #136]	@ (100012c4 <hardware_alarm_set_target+0xc0>)
1000123c:	6801      	ldr	r1, [r0, #0]
1000123e:	2900      	cmp	r1, #0
10001240:	d0fc      	beq.n	1000123c <hardware_alarm_set_target+0x38>
10001242:	f3bf 8f5f 	dmb	sy
10001246:	2501      	movs	r5, #1
10001248:	40bd      	lsls	r5, r7
1000124a:	491f      	ldr	r1, [pc, #124]	@ (100012c8 <hardware_alarm_set_target+0xc4>)
1000124c:	4c1c      	ldr	r4, [pc, #112]	@ (100012c0 <hardware_alarm_set_target+0xbc>)
1000124e:	4688      	mov	r8, r1
10001250:	7809      	ldrb	r1, [r1, #0]
10001252:	4689      	mov	r9, r1
10001254:	4329      	orrs	r1, r5
10001256:	b2c9      	uxtb	r1, r1
10001258:	468c      	mov	ip, r1
1000125a:	4641      	mov	r1, r8
1000125c:	4660      	mov	r0, ip
1000125e:	7008      	strb	r0, [r1, #0]
10001260:	1d39      	adds	r1, r7, #4
10001262:	0089      	lsls	r1, r1, #2
10001264:	6365      	str	r5, [r4, #52]	@ 0x34
10001266:	510a      	str	r2, [r1, r4]
10001268:	4918      	ldr	r1, [pc, #96]	@ (100012cc <hardware_alarm_set_target+0xc8>)
1000126a:	00b8      	lsls	r0, r7, #2
1000126c:	5043      	str	r3, [r0, r1]
1000126e:	6a21      	ldr	r1, [r4, #32]
10001270:	2000      	movs	r0, #0
10001272:	4229      	tst	r1, r5
10001274:	d019      	beq.n	100012aa <hardware_alarm_set_target+0xa6>
10001276:	6a61      	ldr	r1, [r4, #36]	@ 0x24
10001278:	0008      	movs	r0, r1
1000127a:	6aa6      	ldr	r6, [r4, #40]	@ 0x28
1000127c:	6a61      	ldr	r1, [r4, #36]	@ 0x24
1000127e:	4281      	cmp	r1, r0
10001280:	d1fa      	bne.n	10001278 <hardware_alarm_set_target+0x74>
10001282:	428b      	cmp	r3, r1
10001284:	d819      	bhi.n	100012ba <hardware_alarm_set_target+0xb6>
10001286:	d101      	bne.n	1000128c <hardware_alarm_set_target+0x88>
10001288:	42b2      	cmp	r2, r6
1000128a:	d816      	bhi.n	100012ba <hardware_alarm_set_target+0xb6>
1000128c:	45cc      	cmp	ip, r9
1000128e:	d00b      	beq.n	100012a8 <hardware_alarm_set_target+0xa4>
10001290:	4b0b      	ldr	r3, [pc, #44]	@ (100012c0 <hardware_alarm_set_target+0xbc>)
10001292:	221f      	movs	r2, #31
10001294:	621d      	str	r5, [r3, #32]
10001296:	635d      	str	r5, [r3, #52]	@ 0x34
10001298:	2301      	movs	r3, #1
1000129a:	403a      	ands	r2, r7
1000129c:	4093      	lsls	r3, r2
1000129e:	4a0c      	ldr	r2, [pc, #48]	@ (100012d0 <hardware_alarm_set_target+0xcc>)
100012a0:	6013      	str	r3, [r2, #0]
100012a2:	4643      	mov	r3, r8
100012a4:	464a      	mov	r2, r9
100012a6:	701a      	strb	r2, [r3, #0]
100012a8:	2001      	movs	r0, #1
100012aa:	f3bf 8f5f 	dmb	sy
100012ae:	2200      	movs	r2, #0
100012b0:	4b04      	ldr	r3, [pc, #16]	@ (100012c4 <hardware_alarm_set_target+0xc0>)
100012b2:	601a      	str	r2, [r3, #0]
100012b4:	f38a 8810 	msr	PRIMASK, sl
100012b8:	e7b5      	b.n	10001226 <hardware_alarm_set_target+0x22>
100012ba:	2000      	movs	r0, #0
100012bc:	e7f5      	b.n	100012aa <hardware_alarm_set_target+0xa6>
100012be:	46c0      	nop			@ (mov r8, r8)
100012c0:	40054000 	.word	0x40054000
100012c4:	d0000128 	.word	0xd0000128
100012c8:	20000616 	.word	0x20000616
100012cc:	20000604 	.word	0x20000604
100012d0:	e000e280 	.word	0xe000e280

100012d4 <hardware_alarm_cancel>:
100012d4:	f3ef 8c10 	mrs	ip, PRIMASK
100012d8:	b672      	cpsid	i
100012da:	490a      	ldr	r1, [pc, #40]	@ (10001304 <hardware_alarm_cancel+0x30>)
100012dc:	680b      	ldr	r3, [r1, #0]
100012de:	2b00      	cmp	r3, #0
100012e0:	d0fc      	beq.n	100012dc <hardware_alarm_cancel+0x8>
100012e2:	f3bf 8f5f 	dmb	sy
100012e6:	2301      	movs	r3, #1
100012e8:	4083      	lsls	r3, r0
100012ea:	4a07      	ldr	r2, [pc, #28]	@ (10001308 <hardware_alarm_cancel+0x34>)
100012ec:	4807      	ldr	r0, [pc, #28]	@ (1000130c <hardware_alarm_cancel+0x38>)
100012ee:	6213      	str	r3, [r2, #32]
100012f0:	7802      	ldrb	r2, [r0, #0]
100012f2:	439a      	bics	r2, r3
100012f4:	7002      	strb	r2, [r0, #0]
100012f6:	f3bf 8f5f 	dmb	sy
100012fa:	2300      	movs	r3, #0
100012fc:	600b      	str	r3, [r1, #0]
100012fe:	f38c 8810 	msr	PRIMASK, ip
10001302:	4770      	bx	lr
10001304:	d0000128 	.word	0xd0000128
10001308:	40054000 	.word	0x40054000
1000130c:	20000616 	.word	0x20000616

10001310 <ph_merge_nodes>:
10001310:	b570      	push	{r4, r5, r6, lr}
10001312:	0006      	movs	r6, r0
10001314:	000d      	movs	r5, r1
10001316:	0014      	movs	r4, r2
10001318:	2900      	cmp	r1, #0
1000131a:	d01d      	beq.n	10001358 <ph_merge_nodes+0x48>
1000131c:	2a00      	cmp	r2, #0
1000131e:	d012      	beq.n	10001346 <ph_merge_nodes+0x36>
10001320:	6873      	ldr	r3, [r6, #4]
10001322:	6880      	ldr	r0, [r0, #8]
10001324:	4798      	blx	r3
10001326:	0062      	lsls	r2, r4, #1
10001328:	006b      	lsls	r3, r5, #1
1000132a:	1912      	adds	r2, r2, r4
1000132c:	195b      	adds	r3, r3, r5
1000132e:	6831      	ldr	r1, [r6, #0]
10001330:	3a03      	subs	r2, #3
10001332:	3b03      	subs	r3, #3
10001334:	2800      	cmp	r0, #0
10001336:	d008      	beq.n	1000134a <ph_merge_nodes+0x3a>
10001338:	188a      	adds	r2, r1, r2
1000133a:	7095      	strb	r5, [r2, #2]
1000133c:	18c8      	adds	r0, r1, r3
1000133e:	5ccb      	ldrb	r3, [r1, r3]
10001340:	2b00      	cmp	r3, #0
10001342:	d10b      	bne.n	1000135c <ph_merge_nodes+0x4c>
10001344:	7004      	strb	r4, [r0, #0]
10001346:	0028      	movs	r0, r5
10001348:	bd70      	pop	{r4, r5, r6, pc}
1000134a:	18cb      	adds	r3, r1, r3
1000134c:	709c      	strb	r4, [r3, #2]
1000134e:	1888      	adds	r0, r1, r2
10001350:	5c8a      	ldrb	r2, [r1, r2]
10001352:	2a00      	cmp	r2, #0
10001354:	d105      	bne.n	10001362 <ph_merge_nodes+0x52>
10001356:	7005      	strb	r5, [r0, #0]
10001358:	0020      	movs	r0, r4
1000135a:	e7f5      	b.n	10001348 <ph_merge_nodes+0x38>
1000135c:	7053      	strb	r3, [r2, #1]
1000135e:	7004      	strb	r4, [r0, #0]
10001360:	e7f1      	b.n	10001346 <ph_merge_nodes+0x36>
10001362:	705a      	strb	r2, [r3, #1]
10001364:	7005      	strb	r5, [r0, #0]
10001366:	e7f7      	b.n	10001358 <ph_merge_nodes+0x48>

10001368 <ph_post_alloc_init>:
10001368:	b510      	push	{r4, lr}
1000136a:	6083      	str	r3, [r0, #8]
1000136c:	2300      	movs	r3, #0
1000136e:	b2cc      	uxtb	r4, r1
10001370:	7343      	strb	r3, [r0, #13]
10001372:	3301      	adds	r3, #1
10001374:	6042      	str	r2, [r0, #4]
10001376:	7304      	strb	r4, [r0, #12]
10001378:	7383      	strb	r3, [r0, #14]
1000137a:	73c4      	strb	r4, [r0, #15]
1000137c:	6800      	ldr	r0, [r0, #0]
1000137e:	1c42      	adds	r2, r0, #1
10001380:	2c01      	cmp	r4, #1
10001382:	d905      	bls.n	10001390 <ph_post_alloc_init+0x28>
10001384:	3301      	adds	r3, #1
10001386:	b2db      	uxtb	r3, r3
10001388:	7013      	strb	r3, [r2, #0]
1000138a:	3203      	adds	r2, #3
1000138c:	429c      	cmp	r4, r3
1000138e:	d1f9      	bne.n	10001384 <ph_post_alloc_init+0x1c>
10001390:	23ff      	movs	r3, #255	@ 0xff
10001392:	400b      	ands	r3, r1
10001394:	005a      	lsls	r2, r3, #1
10001396:	18d3      	adds	r3, r2, r3
10001398:	18c0      	adds	r0, r0, r3
1000139a:	2300      	movs	r3, #0
1000139c:	3803      	subs	r0, #3
1000139e:	7043      	strb	r3, [r0, #1]
100013a0:	bd10      	pop	{r4, pc}
100013a2:	46c0      	nop			@ (mov r8, r8)

100013a4 <ph_merge_two_pass>:
100013a4:	b570      	push	{r4, r5, r6, lr}
100013a6:	0005      	movs	r5, r0
100013a8:	1e0c      	subs	r4, r1, #0
100013aa:	d007      	beq.n	100013bc <ph_merge_two_pass+0x18>
100013ac:	0063      	lsls	r3, r4, #1
100013ae:	6801      	ldr	r1, [r0, #0]
100013b0:	191b      	adds	r3, r3, r4
100013b2:	3b03      	subs	r3, #3
100013b4:	18cb      	adds	r3, r1, r3
100013b6:	785a      	ldrb	r2, [r3, #1]
100013b8:	2a00      	cmp	r2, #0
100013ba:	d101      	bne.n	100013c0 <ph_merge_two_pass+0x1c>
100013bc:	0020      	movs	r0, r4
100013be:	bd70      	pop	{r4, r5, r6, pc}
100013c0:	0050      	lsls	r0, r2, #1
100013c2:	1880      	adds	r0, r0, r2
100013c4:	3803      	subs	r0, #3
100013c6:	1809      	adds	r1, r1, r0
100013c8:	2000      	movs	r0, #0
100013ca:	784e      	ldrb	r6, [r1, #1]
100013cc:	7048      	strb	r0, [r1, #1]
100013ce:	0021      	movs	r1, r4
100013d0:	7058      	strb	r0, [r3, #1]
100013d2:	0028      	movs	r0, r5
100013d4:	f7ff ff9c 	bl	10001310 <ph_merge_nodes>
100013d8:	0031      	movs	r1, r6
100013da:	0004      	movs	r4, r0
100013dc:	0028      	movs	r0, r5
100013de:	f7ff ffe1 	bl	100013a4 <ph_merge_two_pass>
100013e2:	0006      	movs	r6, r0
100013e4:	2c00      	cmp	r4, #0
100013e6:	d020      	beq.n	1000142a <ph_merge_two_pass+0x86>
100013e8:	2800      	cmp	r0, #0
100013ea:	d0e7      	beq.n	100013bc <ph_merge_two_pass+0x18>
100013ec:	0032      	movs	r2, r6
100013ee:	0021      	movs	r1, r4
100013f0:	686b      	ldr	r3, [r5, #4]
100013f2:	68a8      	ldr	r0, [r5, #8]
100013f4:	4798      	blx	r3
100013f6:	0072      	lsls	r2, r6, #1
100013f8:	0063      	lsls	r3, r4, #1
100013fa:	1992      	adds	r2, r2, r6
100013fc:	191b      	adds	r3, r3, r4
100013fe:	6829      	ldr	r1, [r5, #0]
10001400:	3a03      	subs	r2, #3
10001402:	3b03      	subs	r3, #3
10001404:	2800      	cmp	r0, #0
10001406:	d008      	beq.n	1000141a <ph_merge_two_pass+0x76>
10001408:	188a      	adds	r2, r1, r2
1000140a:	7094      	strb	r4, [r2, #2]
1000140c:	18c8      	adds	r0, r1, r3
1000140e:	5ccb      	ldrb	r3, [r1, r3]
10001410:	2b00      	cmp	r3, #0
10001412:	d000      	beq.n	10001416 <ph_merge_two_pass+0x72>
10001414:	7053      	strb	r3, [r2, #1]
10001416:	7006      	strb	r6, [r0, #0]
10001418:	e7d0      	b.n	100013bc <ph_merge_two_pass+0x18>
1000141a:	18cb      	adds	r3, r1, r3
1000141c:	709e      	strb	r6, [r3, #2]
1000141e:	1888      	adds	r0, r1, r2
10001420:	5c8a      	ldrb	r2, [r1, r2]
10001422:	2a00      	cmp	r2, #0
10001424:	d000      	beq.n	10001428 <ph_merge_two_pass+0x84>
10001426:	705a      	strb	r2, [r3, #1]
10001428:	7004      	strb	r4, [r0, #0]
1000142a:	0034      	movs	r4, r6
1000142c:	e7c6      	b.n	100013bc <ph_merge_two_pass+0x18>
1000142e:	46c0      	nop			@ (mov r8, r8)

10001430 <ph_remove_any_head>:
10001430:	b5f0      	push	{r4, r5, r6, r7, lr}
10001432:	4657      	mov	r7, sl
10001434:	4645      	mov	r5, r8
10001436:	46de      	mov	lr, fp
10001438:	464e      	mov	r6, r9
1000143a:	b5e0      	push	{r5, r6, r7, lr}
1000143c:	000d      	movs	r5, r1
1000143e:	006f      	lsls	r7, r5, #1
10001440:	6801      	ldr	r1, [r0, #0]
10001442:	197f      	adds	r7, r7, r5
10001444:	3f03      	subs	r7, #3
10001446:	0004      	movs	r4, r0
10001448:	5dc8      	ldrb	r0, [r1, r7]
1000144a:	b083      	sub	sp, #12
1000144c:	9201      	str	r2, [sp, #4]
1000144e:	19ca      	adds	r2, r1, r7
10001450:	2800      	cmp	r0, #0
10001452:	d050      	beq.n	100014f6 <ph_remove_any_head+0xc6>
10001454:	0043      	lsls	r3, r0, #1
10001456:	181b      	adds	r3, r3, r0
10001458:	3b03      	subs	r3, #3
1000145a:	18cb      	adds	r3, r1, r3
1000145c:	785e      	ldrb	r6, [r3, #1]
1000145e:	46b4      	mov	ip, r6
10001460:	2e00      	cmp	r6, #0
10001462:	d11a      	bne.n	1000149a <ph_remove_any_head+0x6a>
10001464:	9e01      	ldr	r6, [sp, #4]
10001466:	2e00      	cmp	r6, #0
10001468:	d042      	beq.n	100014f0 <ph_remove_any_head+0xc0>
1000146a:	7be6      	ldrb	r6, [r4, #15]
1000146c:	2e00      	cmp	r6, #0
1000146e:	d004      	beq.n	1000147a <ph_remove_any_head+0x4a>
10001470:	0073      	lsls	r3, r6, #1
10001472:	199b      	adds	r3, r3, r6
10001474:	18cb      	adds	r3, r1, r3
10001476:	3b03      	subs	r3, #3
10001478:	705d      	strb	r5, [r3, #1]
1000147a:	7ba3      	ldrb	r3, [r4, #14]
1000147c:	2b00      	cmp	r3, #0
1000147e:	d100      	bne.n	10001482 <ph_remove_any_head+0x52>
10001480:	73a5      	strb	r5, [r4, #14]
10001482:	73e5      	strb	r5, [r4, #15]
10001484:	2800      	cmp	r0, #0
10001486:	d12f      	bne.n	100014e8 <ph_remove_any_head+0xb8>
10001488:	2300      	movs	r3, #0
1000148a:	7053      	strb	r3, [r2, #1]
1000148c:	b003      	add	sp, #12
1000148e:	bcf0      	pop	{r4, r5, r6, r7}
10001490:	46bb      	mov	fp, r7
10001492:	46b2      	mov	sl, r6
10001494:	46a9      	mov	r9, r5
10001496:	46a0      	mov	r8, r4
10001498:	bdf0      	pop	{r4, r5, r6, r7, pc}
1000149a:	0072      	lsls	r2, r6, #1
1000149c:	4462      	add	r2, ip
1000149e:	3a03      	subs	r2, #3
100014a0:	188a      	adds	r2, r1, r2
100014a2:	7851      	ldrb	r1, [r2, #1]
100014a4:	4688      	mov	r8, r1
100014a6:	2100      	movs	r1, #0
100014a8:	7051      	strb	r1, [r2, #1]
100014aa:	4689      	mov	r9, r1
100014ac:	7059      	strb	r1, [r3, #1]
100014ae:	0032      	movs	r2, r6
100014b0:	0001      	movs	r1, r0
100014b2:	0020      	movs	r0, r4
100014b4:	f7ff ff2c 	bl	10001310 <ph_merge_nodes>
100014b8:	4643      	mov	r3, r8
100014ba:	4682      	mov	sl, r0
100014bc:	2b00      	cmp	r3, #0
100014be:	d007      	beq.n	100014d0 <ph_remove_any_head+0xa0>
100014c0:	005b      	lsls	r3, r3, #1
100014c2:	6821      	ldr	r1, [r4, #0]
100014c4:	4443      	add	r3, r8
100014c6:	3b03      	subs	r3, #3
100014c8:	18cb      	adds	r3, r1, r3
100014ca:	785a      	ldrb	r2, [r3, #1]
100014cc:	2a00      	cmp	r2, #0
100014ce:	d116      	bne.n	100014fe <ph_remove_any_head+0xce>
100014d0:	4642      	mov	r2, r8
100014d2:	4651      	mov	r1, sl
100014d4:	0020      	movs	r0, r4
100014d6:	f7ff ff1b 	bl	10001310 <ph_merge_nodes>
100014da:	6821      	ldr	r1, [r4, #0]
100014dc:	9b01      	ldr	r3, [sp, #4]
100014de:	19ca      	adds	r2, r1, r7
100014e0:	2b00      	cmp	r3, #0
100014e2:	d1c2      	bne.n	1000146a <ph_remove_any_head+0x3a>
100014e4:	2800      	cmp	r0, #0
100014e6:	d0cf      	beq.n	10001488 <ph_remove_any_head+0x58>
100014e8:	0043      	lsls	r3, r0, #1
100014ea:	181b      	adds	r3, r3, r0
100014ec:	3b03      	subs	r3, #3
100014ee:	18cb      	adds	r3, r1, r3
100014f0:	2100      	movs	r1, #0
100014f2:	7099      	strb	r1, [r3, #2]
100014f4:	e7c8      	b.n	10001488 <ph_remove_any_head+0x58>
100014f6:	9b01      	ldr	r3, [sp, #4]
100014f8:	2b00      	cmp	r3, #0
100014fa:	d1b6      	bne.n	1000146a <ph_remove_any_head+0x3a>
100014fc:	e7c4      	b.n	10001488 <ph_remove_any_head+0x58>
100014fe:	0050      	lsls	r0, r2, #1
10001500:	1880      	adds	r0, r0, r2
10001502:	3803      	subs	r0, #3
10001504:	1809      	adds	r1, r1, r0
10001506:	7848      	ldrb	r0, [r1, #1]
10001508:	4683      	mov	fp, r0
1000150a:	4648      	mov	r0, r9
1000150c:	7048      	strb	r0, [r1, #1]
1000150e:	7058      	strb	r0, [r3, #1]
10001510:	4641      	mov	r1, r8
10001512:	0020      	movs	r0, r4
10001514:	f7ff fefc 	bl	10001310 <ph_merge_nodes>
10001518:	4659      	mov	r1, fp
1000151a:	4680      	mov	r8, r0
1000151c:	0020      	movs	r0, r4
1000151e:	f7ff ff41 	bl	100013a4 <ph_merge_two_pass>
10001522:	4641      	mov	r1, r8
10001524:	0002      	movs	r2, r0
10001526:	0020      	movs	r0, r4
10001528:	f7ff fef2 	bl	10001310 <ph_merge_nodes>
1000152c:	4680      	mov	r8, r0
1000152e:	e7cf      	b.n	100014d0 <ph_remove_any_head+0xa0>

10001530 <ph_remove_head>:
10001530:	b5f0      	push	{r4, r5, r6, r7, lr}
10001532:	4657      	mov	r7, sl
10001534:	4645      	mov	r5, r8
10001536:	46de      	mov	lr, fp
10001538:	464e      	mov	r6, r9
1000153a:	b5e0      	push	{r5, r6, r7, lr}
1000153c:	b083      	sub	sp, #12
1000153e:	9101      	str	r1, [sp, #4]
10001540:	7b45      	ldrb	r5, [r0, #13]
10001542:	0004      	movs	r4, r0
10001544:	006f      	lsls	r7, r5, #1
10001546:	6800      	ldr	r0, [r0, #0]
10001548:	197f      	adds	r7, r7, r5
1000154a:	3f03      	subs	r7, #3
1000154c:	5dc1      	ldrb	r1, [r0, r7]
1000154e:	19c2      	adds	r2, r0, r7
10001550:	2900      	cmp	r1, #0
10001552:	d052      	beq.n	100015fa <ph_remove_head+0xca>
10001554:	004b      	lsls	r3, r1, #1
10001556:	185b      	adds	r3, r3, r1
10001558:	3b03      	subs	r3, #3
1000155a:	18c3      	adds	r3, r0, r3
1000155c:	785e      	ldrb	r6, [r3, #1]
1000155e:	46b4      	mov	ip, r6
10001560:	2e00      	cmp	r6, #0
10001562:	d11c      	bne.n	1000159e <ph_remove_head+0x6e>
10001564:	9e01      	ldr	r6, [sp, #4]
10001566:	2e00      	cmp	r6, #0
10001568:	d044      	beq.n	100015f4 <ph_remove_head+0xc4>
1000156a:	7be6      	ldrb	r6, [r4, #15]
1000156c:	2e00      	cmp	r6, #0
1000156e:	d004      	beq.n	1000157a <ph_remove_head+0x4a>
10001570:	0073      	lsls	r3, r6, #1
10001572:	199b      	adds	r3, r3, r6
10001574:	18c3      	adds	r3, r0, r3
10001576:	3b03      	subs	r3, #3
10001578:	705d      	strb	r5, [r3, #1]
1000157a:	7ba3      	ldrb	r3, [r4, #14]
1000157c:	2b00      	cmp	r3, #0
1000157e:	d100      	bne.n	10001582 <ph_remove_head+0x52>
10001580:	73a5      	strb	r5, [r4, #14]
10001582:	73e5      	strb	r5, [r4, #15]
10001584:	2900      	cmp	r1, #0
10001586:	d131      	bne.n	100015ec <ph_remove_head+0xbc>
10001588:	2300      	movs	r3, #0
1000158a:	0028      	movs	r0, r5
1000158c:	7053      	strb	r3, [r2, #1]
1000158e:	7361      	strb	r1, [r4, #13]
10001590:	b003      	add	sp, #12
10001592:	bcf0      	pop	{r4, r5, r6, r7}
10001594:	46bb      	mov	fp, r7
10001596:	46b2      	mov	sl, r6
10001598:	46a9      	mov	r9, r5
1000159a:	46a0      	mov	r8, r4
1000159c:	bdf0      	pop	{r4, r5, r6, r7, pc}
1000159e:	0072      	lsls	r2, r6, #1
100015a0:	4462      	add	r2, ip
100015a2:	3a03      	subs	r2, #3
100015a4:	1882      	adds	r2, r0, r2
100015a6:	7850      	ldrb	r0, [r2, #1]
100015a8:	4680      	mov	r8, r0
100015aa:	2000      	movs	r0, #0
100015ac:	7050      	strb	r0, [r2, #1]
100015ae:	4681      	mov	r9, r0
100015b0:	7058      	strb	r0, [r3, #1]
100015b2:	0032      	movs	r2, r6
100015b4:	0020      	movs	r0, r4
100015b6:	f7ff feab 	bl	10001310 <ph_merge_nodes>
100015ba:	4643      	mov	r3, r8
100015bc:	4682      	mov	sl, r0
100015be:	2b00      	cmp	r3, #0
100015c0:	d007      	beq.n	100015d2 <ph_remove_head+0xa2>
100015c2:	005b      	lsls	r3, r3, #1
100015c4:	6821      	ldr	r1, [r4, #0]
100015c6:	4443      	add	r3, r8
100015c8:	3b03      	subs	r3, #3
100015ca:	18cb      	adds	r3, r1, r3
100015cc:	785a      	ldrb	r2, [r3, #1]
100015ce:	2a00      	cmp	r2, #0
100015d0:	d117      	bne.n	10001602 <ph_remove_head+0xd2>
100015d2:	4642      	mov	r2, r8
100015d4:	4651      	mov	r1, sl
100015d6:	0020      	movs	r0, r4
100015d8:	f7ff fe9a 	bl	10001310 <ph_merge_nodes>
100015dc:	9b01      	ldr	r3, [sp, #4]
100015de:	0001      	movs	r1, r0
100015e0:	6820      	ldr	r0, [r4, #0]
100015e2:	19c2      	adds	r2, r0, r7
100015e4:	2b00      	cmp	r3, #0
100015e6:	d1c0      	bne.n	1000156a <ph_remove_head+0x3a>
100015e8:	2900      	cmp	r1, #0
100015ea:	d0cd      	beq.n	10001588 <ph_remove_head+0x58>
100015ec:	004b      	lsls	r3, r1, #1
100015ee:	185b      	adds	r3, r3, r1
100015f0:	3b03      	subs	r3, #3
100015f2:	18c3      	adds	r3, r0, r3
100015f4:	2000      	movs	r0, #0
100015f6:	7098      	strb	r0, [r3, #2]
100015f8:	e7c6      	b.n	10001588 <ph_remove_head+0x58>
100015fa:	9b01      	ldr	r3, [sp, #4]
100015fc:	2b00      	cmp	r3, #0
100015fe:	d1b4      	bne.n	1000156a <ph_remove_head+0x3a>
10001600:	e7c2      	b.n	10001588 <ph_remove_head+0x58>
10001602:	0050      	lsls	r0, r2, #1
10001604:	1880      	adds	r0, r0, r2
10001606:	3803      	subs	r0, #3
10001608:	1809      	adds	r1, r1, r0
1000160a:	7848      	ldrb	r0, [r1, #1]
1000160c:	4683      	mov	fp, r0
1000160e:	4648      	mov	r0, r9
10001610:	7048      	strb	r0, [r1, #1]
10001612:	7058      	strb	r0, [r3, #1]
10001614:	4641      	mov	r1, r8
10001616:	0020      	movs	r0, r4
10001618:	f7ff fe7a 	bl	10001310 <ph_merge_nodes>
1000161c:	4659      	mov	r1, fp
1000161e:	4680      	mov	r8, r0
10001620:	0020      	movs	r0, r4
10001622:	f7ff febf 	bl	100013a4 <ph_merge_two_pass>
10001626:	4641      	mov	r1, r8
10001628:	0002      	movs	r2, r0
1000162a:	0020      	movs	r0, r4
1000162c:	f7ff fe70 	bl	10001310 <ph_merge_nodes>
10001630:	4680      	mov	r8, r0
10001632:	e7ce      	b.n	100015d2 <ph_remove_head+0xa2>

10001634 <ph_remove_and_free_node>:
10001634:	b570      	push	{r4, r5, r6, lr}
10001636:	0005      	movs	r5, r0
10001638:	2900      	cmp	r1, #0
1000163a:	d02c      	beq.n	10001696 <ph_remove_and_free_node+0x62>
1000163c:	7b43      	ldrb	r3, [r0, #13]
1000163e:	428b      	cmp	r3, r1
10001640:	d02e      	beq.n	100016a0 <ph_remove_and_free_node+0x6c>
10001642:	004c      	lsls	r4, r1, #1
10001644:	6800      	ldr	r0, [r0, #0]
10001646:	1864      	adds	r4, r4, r1
10001648:	3c03      	subs	r4, #3
1000164a:	1904      	adds	r4, r0, r4
1000164c:	78a2      	ldrb	r2, [r4, #2]
1000164e:	2a00      	cmp	r2, #0
10001650:	d021      	beq.n	10001696 <ph_remove_and_free_node+0x62>
10001652:	0053      	lsls	r3, r2, #1
10001654:	189b      	adds	r3, r3, r2
10001656:	3b03      	subs	r3, #3
10001658:	5cc2      	ldrb	r2, [r0, r3]
1000165a:	18c6      	adds	r6, r0, r3
1000165c:	428a      	cmp	r2, r1
1000165e:	d102      	bne.n	10001666 <ph_remove_and_free_node+0x32>
10001660:	e01b      	b.n	1000169a <ph_remove_and_free_node+0x66>
10001662:	2a00      	cmp	r2, #0
10001664:	d008      	beq.n	10001678 <ph_remove_and_free_node+0x44>
10001666:	0053      	lsls	r3, r2, #1
10001668:	189b      	adds	r3, r3, r2
1000166a:	3b03      	subs	r3, #3
1000166c:	18c3      	adds	r3, r0, r3
1000166e:	785a      	ldrb	r2, [r3, #1]
10001670:	428a      	cmp	r2, r1
10001672:	d1f6      	bne.n	10001662 <ph_remove_and_free_node+0x2e>
10001674:	7862      	ldrb	r2, [r4, #1]
10001676:	705a      	strb	r2, [r3, #1]
10001678:	2300      	movs	r3, #0
1000167a:	2201      	movs	r2, #1
1000167c:	0028      	movs	r0, r5
1000167e:	70a3      	strb	r3, [r4, #2]
10001680:	7063      	strb	r3, [r4, #1]
10001682:	f7ff fed5 	bl	10001430 <ph_remove_any_head>
10001686:	7b69      	ldrb	r1, [r5, #13]
10001688:	0002      	movs	r2, r0
1000168a:	0028      	movs	r0, r5
1000168c:	f7ff fe40 	bl	10001310 <ph_merge_nodes>
10001690:	7368      	strb	r0, [r5, #13]
10001692:	2001      	movs	r0, #1
10001694:	e000      	b.n	10001698 <ph_remove_and_free_node+0x64>
10001696:	2000      	movs	r0, #0
10001698:	bd70      	pop	{r4, r5, r6, pc}
1000169a:	7863      	ldrb	r3, [r4, #1]
1000169c:	7033      	strb	r3, [r6, #0]
1000169e:	e7eb      	b.n	10001678 <ph_remove_and_free_node+0x44>
100016a0:	2201      	movs	r2, #1
100016a2:	0019      	movs	r1, r3
100016a4:	f7ff fec4 	bl	10001430 <ph_remove_any_head>
100016a8:	e7f2      	b.n	10001690 <ph_remove_and_free_node+0x5c>
100016aa:	46c0      	nop			@ (mov r8, r8)

100016ac <clocks_init>:
100016ac:	b510      	push	{r4, lr}
100016ae:	200c      	movs	r0, #12
100016b0:	b082      	sub	sp, #8
100016b2:	f000 f9b1 	bl	10001a18 <watchdog_start_tick>
100016b6:	f7fe ff77 	bl	100005a8 <running_on_fpga>
100016ba:	2800      	cmp	r0, #0
100016bc:	d010      	beq.n	100016e0 <clocks_init+0x34>
100016be:	4b8b      	ldr	r3, [pc, #556]	@ (100018ec <clocks_init+0x240>)
100016c0:	488b      	ldr	r0, [pc, #556]	@ (100018f0 <clocks_init+0x244>)
100016c2:	498b      	ldr	r1, [pc, #556]	@ (100018f0 <clocks_init+0x244>)
100016c4:	4a8b      	ldr	r2, [pc, #556]	@ (100018f4 <clocks_init+0x248>)
100016c6:	6018      	str	r0, [r3, #0]
100016c8:	6059      	str	r1, [r3, #4]
100016ca:	6098      	str	r0, [r3, #8]
100016cc:	60d9      	str	r1, [r3, #12]
100016ce:	6118      	str	r0, [r3, #16]
100016d0:	6159      	str	r1, [r3, #20]
100016d2:	6198      	str	r0, [r3, #24]
100016d4:	61d9      	str	r1, [r3, #28]
100016d6:	6218      	str	r0, [r3, #32]
100016d8:	6259      	str	r1, [r3, #36]	@ 0x24
100016da:	625a      	str	r2, [r3, #36]	@ 0x24
100016dc:	b002      	add	sp, #8
100016de:	bd10      	pop	{r4, pc}
100016e0:	4c85      	ldr	r4, [pc, #532]	@ (100018f8 <clocks_init+0x24c>)
100016e2:	67a0      	str	r0, [r4, #120]	@ 0x78
100016e4:	f000 f9a0 	bl	10001a28 <xosc_init>
100016e8:	2201      	movs	r2, #1
100016ea:	4b84      	ldr	r3, [pc, #528]	@ (100018fc <clocks_init+0x250>)
100016ec:	601a      	str	r2, [r3, #0]
100016ee:	6c63      	ldr	r3, [r4, #68]	@ 0x44
100016f0:	2b01      	cmp	r3, #1
100016f2:	d1fc      	bne.n	100016ee <clocks_init+0x42>
100016f4:	2203      	movs	r2, #3
100016f6:	4b82      	ldr	r3, [pc, #520]	@ (10001900 <clocks_init+0x254>)
100016f8:	601a      	str	r2, [r3, #0]
100016fa:	4a7f      	ldr	r2, [pc, #508]	@ (100018f8 <clocks_init+0x24c>)
100016fc:	6b93      	ldr	r3, [r2, #56]	@ 0x38
100016fe:	2b01      	cmp	r3, #1
10001700:	d1fc      	bne.n	100016fc <clocks_init+0x50>
10001702:	3301      	adds	r3, #1
10001704:	2101      	movs	r1, #1
10001706:	4a7f      	ldr	r2, [pc, #508]	@ (10001904 <clocks_init+0x258>)
10001708:	487f      	ldr	r0, [pc, #508]	@ (10001908 <clocks_init+0x25c>)
1000170a:	9300      	str	r3, [sp, #0]
1000170c:	3304      	adds	r3, #4
1000170e:	f000 f931 	bl	10001974 <pll_init>
10001712:	2305      	movs	r3, #5
10001714:	4a7d      	ldr	r2, [pc, #500]	@ (1000190c <clocks_init+0x260>)
10001716:	9300      	str	r3, [sp, #0]
10001718:	2101      	movs	r1, #1
1000171a:	487d      	ldr	r0, [pc, #500]	@ (10001910 <clocks_init+0x264>)
1000171c:	f000 f92a 	bl	10001974 <pll_init>
10001720:	4b7c      	ldr	r3, [pc, #496]	@ (10001914 <clocks_init+0x268>)
10001722:	685a      	ldr	r2, [r3, #4]
10001724:	2aff      	cmp	r2, #255	@ 0xff
10001726:	d802      	bhi.n	1000172e <clocks_init+0x82>
10001728:	2280      	movs	r2, #128	@ 0x80
1000172a:	0052      	lsls	r2, r2, #1
1000172c:	605a      	str	r2, [r3, #4]
1000172e:	2280      	movs	r2, #128	@ 0x80
10001730:	4b73      	ldr	r3, [pc, #460]	@ (10001900 <clocks_init+0x254>)
10001732:	4c6e      	ldr	r4, [pc, #440]	@ (100018ec <clocks_init+0x240>)
10001734:	0112      	lsls	r2, r2, #4
10001736:	601a      	str	r2, [r3, #0]
10001738:	6921      	ldr	r1, [r4, #16]
1000173a:	2900      	cmp	r1, #0
1000173c:	d007      	beq.n	1000174e <clocks_init+0xa2>
1000173e:	6960      	ldr	r0, [r4, #20]
10001740:	f001 fe32 	bl	100033a8 <__wrap___aeabi_uidiv>
10001744:	3001      	adds	r0, #1
10001746:	0043      	lsls	r3, r0, #1
10001748:	181b      	adds	r3, r3, r0
1000174a:	3b03      	subs	r3, #3
1000174c:	d2fd      	bcs.n	1000174a <clocks_init+0x9e>
1000174e:	22e0      	movs	r2, #224	@ 0xe0
10001750:	4b70      	ldr	r3, [pc, #448]	@ (10001914 <clocks_init+0x268>)
10001752:	4871      	ldr	r0, [pc, #452]	@ (10001918 <clocks_init+0x26c>)
10001754:	6819      	ldr	r1, [r3, #0]
10001756:	400a      	ands	r2, r1
10001758:	6002      	str	r2, [r0, #0]
1000175a:	2202      	movs	r2, #2
1000175c:	6819      	ldr	r1, [r3, #0]
1000175e:	4051      	eors	r1, r2
10001760:	3201      	adds	r2, #1
10001762:	400a      	ands	r2, r1
10001764:	2104      	movs	r1, #4
10001766:	6002      	str	r2, [r0, #0]
10001768:	689a      	ldr	r2, [r3, #8]
1000176a:	4211      	tst	r1, r2
1000176c:	d0fc      	beq.n	10001768 <clocks_init+0xbc>
1000176e:	2180      	movs	r1, #128	@ 0x80
10001770:	4a6a      	ldr	r2, [pc, #424]	@ (1000191c <clocks_init+0x270>)
10001772:	0109      	lsls	r1, r1, #4
10001774:	6011      	str	r1, [r2, #0]
10001776:	2280      	movs	r2, #128	@ 0x80
10001778:	0052      	lsls	r2, r2, #1
1000177a:	605a      	str	r2, [r3, #4]
1000177c:	4b68      	ldr	r3, [pc, #416]	@ (10001920 <clocks_init+0x274>)
1000177e:	6123      	str	r3, [r4, #16]
10001780:	4b68      	ldr	r3, [pc, #416]	@ (10001924 <clocks_init+0x278>)
10001782:	6859      	ldr	r1, [r3, #4]
10001784:	29ff      	cmp	r1, #255	@ 0xff
10001786:	d800      	bhi.n	1000178a <clocks_init+0xde>
10001788:	605a      	str	r2, [r3, #4]
1000178a:	2203      	movs	r2, #3
1000178c:	2101      	movs	r1, #1
1000178e:	4b5b      	ldr	r3, [pc, #364]	@ (100018fc <clocks_init+0x250>)
10001790:	601a      	str	r2, [r3, #0]
10001792:	4a64      	ldr	r2, [pc, #400]	@ (10001924 <clocks_init+0x278>)
10001794:	6893      	ldr	r3, [r2, #8]
10001796:	4219      	tst	r1, r3
10001798:	d0fc      	beq.n	10001794 <clocks_init+0xe8>
1000179a:	23e0      	movs	r3, #224	@ 0xe0
1000179c:	6810      	ldr	r0, [r2, #0]
1000179e:	4003      	ands	r3, r0
100017a0:	4861      	ldr	r0, [pc, #388]	@ (10001928 <clocks_init+0x27c>)
100017a2:	6003      	str	r3, [r0, #0]
100017a4:	6812      	ldr	r2, [r2, #0]
100017a6:	2303      	movs	r3, #3
100017a8:	404a      	eors	r2, r1
100017aa:	2102      	movs	r1, #2
100017ac:	4013      	ands	r3, r2
100017ae:	4a5d      	ldr	r2, [pc, #372]	@ (10001924 <clocks_init+0x278>)
100017b0:	6003      	str	r3, [r0, #0]
100017b2:	6893      	ldr	r3, [r2, #8]
100017b4:	4219      	tst	r1, r3
100017b6:	d0fc      	beq.n	100017b2 <clocks_init+0x106>
100017b8:	2180      	movs	r1, #128	@ 0x80
100017ba:	4b5c      	ldr	r3, [pc, #368]	@ (1000192c <clocks_init+0x280>)
100017bc:	0109      	lsls	r1, r1, #4
100017be:	6019      	str	r1, [r3, #0]
100017c0:	2180      	movs	r1, #128	@ 0x80
100017c2:	4b5b      	ldr	r3, [pc, #364]	@ (10001930 <clocks_init+0x284>)
100017c4:	0049      	lsls	r1, r1, #1
100017c6:	6051      	str	r1, [r2, #4]
100017c8:	6163      	str	r3, [r4, #20]
100017ca:	4b5a      	ldr	r3, [pc, #360]	@ (10001934 <clocks_init+0x288>)
100017cc:	685a      	ldr	r2, [r3, #4]
100017ce:	2aff      	cmp	r2, #255	@ 0xff
100017d0:	d800      	bhi.n	100017d4 <clocks_init+0x128>
100017d2:	6059      	str	r1, [r3, #4]
100017d4:	2280      	movs	r2, #128	@ 0x80
100017d6:	4b58      	ldr	r3, [pc, #352]	@ (10001938 <clocks_init+0x28c>)
100017d8:	0112      	lsls	r2, r2, #4
100017da:	601a      	str	r2, [r3, #0]
100017dc:	69e1      	ldr	r1, [r4, #28]
100017de:	2900      	cmp	r1, #0
100017e0:	d007      	beq.n	100017f2 <clocks_init+0x146>
100017e2:	6960      	ldr	r0, [r4, #20]
100017e4:	f001 fde0 	bl	100033a8 <__wrap___aeabi_uidiv>
100017e8:	3001      	adds	r0, #1
100017ea:	0043      	lsls	r3, r0, #1
100017ec:	181b      	adds	r3, r3, r0
100017ee:	3b03      	subs	r3, #3
100017f0:	d2fd      	bcs.n	100017ee <clocks_init+0x142>
100017f2:	23e0      	movs	r3, #224	@ 0xe0
100017f4:	4a4f      	ldr	r2, [pc, #316]	@ (10001934 <clocks_init+0x288>)
100017f6:	6811      	ldr	r1, [r2, #0]
100017f8:	400b      	ands	r3, r1
100017fa:	4950      	ldr	r1, [pc, #320]	@ (1000193c <clocks_init+0x290>)
100017fc:	600b      	str	r3, [r1, #0]
100017fe:	2180      	movs	r1, #128	@ 0x80
10001800:	4b4f      	ldr	r3, [pc, #316]	@ (10001940 <clocks_init+0x294>)
10001802:	0109      	lsls	r1, r1, #4
10001804:	6019      	str	r1, [r3, #0]
10001806:	2180      	movs	r1, #128	@ 0x80
10001808:	4b39      	ldr	r3, [pc, #228]	@ (100018f0 <clocks_init+0x244>)
1000180a:	0049      	lsls	r1, r1, #1
1000180c:	6051      	str	r1, [r2, #4]
1000180e:	61e3      	str	r3, [r4, #28]
10001810:	4b4c      	ldr	r3, [pc, #304]	@ (10001944 <clocks_init+0x298>)
10001812:	685a      	ldr	r2, [r3, #4]
10001814:	2aff      	cmp	r2, #255	@ 0xff
10001816:	d800      	bhi.n	1000181a <clocks_init+0x16e>
10001818:	6059      	str	r1, [r3, #4]
1000181a:	2280      	movs	r2, #128	@ 0x80
1000181c:	4b4a      	ldr	r3, [pc, #296]	@ (10001948 <clocks_init+0x29c>)
1000181e:	0112      	lsls	r2, r2, #4
10001820:	601a      	str	r2, [r3, #0]
10001822:	6a21      	ldr	r1, [r4, #32]
10001824:	2900      	cmp	r1, #0
10001826:	d007      	beq.n	10001838 <clocks_init+0x18c>
10001828:	6960      	ldr	r0, [r4, #20]
1000182a:	f001 fdbd 	bl	100033a8 <__wrap___aeabi_uidiv>
1000182e:	3001      	adds	r0, #1
10001830:	0043      	lsls	r3, r0, #1
10001832:	181b      	adds	r3, r3, r0
10001834:	3b03      	subs	r3, #3
10001836:	d2fd      	bcs.n	10001834 <clocks_init+0x188>
10001838:	23e0      	movs	r3, #224	@ 0xe0
1000183a:	4a42      	ldr	r2, [pc, #264]	@ (10001944 <clocks_init+0x298>)
1000183c:	6811      	ldr	r1, [r2, #0]
1000183e:	400b      	ands	r3, r1
10001840:	4942      	ldr	r1, [pc, #264]	@ (1000194c <clocks_init+0x2a0>)
10001842:	600b      	str	r3, [r1, #0]
10001844:	2180      	movs	r1, #128	@ 0x80
10001846:	4b42      	ldr	r3, [pc, #264]	@ (10001950 <clocks_init+0x2a4>)
10001848:	0109      	lsls	r1, r1, #4
1000184a:	6019      	str	r1, [r3, #0]
1000184c:	2380      	movs	r3, #128	@ 0x80
1000184e:	005b      	lsls	r3, r3, #1
10001850:	6053      	str	r3, [r2, #4]
10001852:	2280      	movs	r2, #128	@ 0x80
10001854:	4b26      	ldr	r3, [pc, #152]	@ (100018f0 <clocks_init+0x244>)
10001856:	02d2      	lsls	r2, r2, #11
10001858:	6223      	str	r3, [r4, #32]
1000185a:	4b3e      	ldr	r3, [pc, #248]	@ (10001954 <clocks_init+0x2a8>)
1000185c:	6859      	ldr	r1, [r3, #4]
1000185e:	4291      	cmp	r1, r2
10001860:	d200      	bcs.n	10001864 <clocks_init+0x1b8>
10001862:	605a      	str	r2, [r3, #4]
10001864:	2280      	movs	r2, #128	@ 0x80
10001866:	4b3c      	ldr	r3, [pc, #240]	@ (10001958 <clocks_init+0x2ac>)
10001868:	0112      	lsls	r2, r2, #4
1000186a:	601a      	str	r2, [r3, #0]
1000186c:	6a61      	ldr	r1, [r4, #36]	@ 0x24
1000186e:	2900      	cmp	r1, #0
10001870:	d007      	beq.n	10001882 <clocks_init+0x1d6>
10001872:	6960      	ldr	r0, [r4, #20]
10001874:	f001 fd98 	bl	100033a8 <__wrap___aeabi_uidiv>
10001878:	3001      	adds	r0, #1
1000187a:	0043      	lsls	r3, r0, #1
1000187c:	181b      	adds	r3, r3, r0
1000187e:	3b03      	subs	r3, #3
10001880:	d2fd      	bcs.n	1000187e <clocks_init+0x1d2>
10001882:	23e0      	movs	r3, #224	@ 0xe0
10001884:	4a33      	ldr	r2, [pc, #204]	@ (10001954 <clocks_init+0x2a8>)
10001886:	6811      	ldr	r1, [r2, #0]
10001888:	400b      	ands	r3, r1
1000188a:	4934      	ldr	r1, [pc, #208]	@ (1000195c <clocks_init+0x2b0>)
1000188c:	600b      	str	r3, [r1, #0]
1000188e:	2180      	movs	r1, #128	@ 0x80
10001890:	4b33      	ldr	r3, [pc, #204]	@ (10001960 <clocks_init+0x2b4>)
10001892:	0109      	lsls	r1, r1, #4
10001894:	6019      	str	r1, [r3, #0]
10001896:	2380      	movs	r3, #128	@ 0x80
10001898:	02db      	lsls	r3, r3, #11
1000189a:	6053      	str	r3, [r2, #4]
1000189c:	4b15      	ldr	r3, [pc, #84]	@ (100018f4 <clocks_init+0x248>)
1000189e:	6263      	str	r3, [r4, #36]	@ 0x24
100018a0:	4b30      	ldr	r3, [pc, #192]	@ (10001964 <clocks_init+0x2b8>)
100018a2:	685a      	ldr	r2, [r3, #4]
100018a4:	2aff      	cmp	r2, #255	@ 0xff
100018a6:	d802      	bhi.n	100018ae <clocks_init+0x202>
100018a8:	2280      	movs	r2, #128	@ 0x80
100018aa:	0052      	lsls	r2, r2, #1
100018ac:	605a      	str	r2, [r3, #4]
100018ae:	2280      	movs	r2, #128	@ 0x80
100018b0:	4b2d      	ldr	r3, [pc, #180]	@ (10001968 <clocks_init+0x2bc>)
100018b2:	0112      	lsls	r2, r2, #4
100018b4:	601a      	str	r2, [r3, #0]
100018b6:	69a1      	ldr	r1, [r4, #24]
100018b8:	2900      	cmp	r1, #0
100018ba:	d007      	beq.n	100018cc <clocks_init+0x220>
100018bc:	6960      	ldr	r0, [r4, #20]
100018be:	f001 fd73 	bl	100033a8 <__wrap___aeabi_uidiv>
100018c2:	3001      	adds	r0, #1
100018c4:	0043      	lsls	r3, r0, #1
100018c6:	181b      	adds	r3, r3, r0
100018c8:	3b03      	subs	r3, #3
100018ca:	d2fd      	bcs.n	100018c8 <clocks_init+0x21c>
100018cc:	23e0      	movs	r3, #224	@ 0xe0
100018ce:	4a25      	ldr	r2, [pc, #148]	@ (10001964 <clocks_init+0x2b8>)
100018d0:	6811      	ldr	r1, [r2, #0]
100018d2:	400b      	ands	r3, r1
100018d4:	4925      	ldr	r1, [pc, #148]	@ (1000196c <clocks_init+0x2c0>)
100018d6:	600b      	str	r3, [r1, #0]
100018d8:	2180      	movs	r1, #128	@ 0x80
100018da:	4b25      	ldr	r3, [pc, #148]	@ (10001970 <clocks_init+0x2c4>)
100018dc:	0109      	lsls	r1, r1, #4
100018de:	6019      	str	r1, [r3, #0]
100018e0:	2380      	movs	r3, #128	@ 0x80
100018e2:	005b      	lsls	r3, r3, #1
100018e4:	6053      	str	r3, [r2, #4]
100018e6:	4b12      	ldr	r3, [pc, #72]	@ (10001930 <clocks_init+0x284>)
100018e8:	61a3      	str	r3, [r4, #24]
100018ea:	e6f7      	b.n	100016dc <clocks_init+0x30>
100018ec:	20000250 	.word	0x20000250
100018f0:	02dc6c00 	.word	0x02dc6c00
100018f4:	0000b71b 	.word	0x0000b71b
100018f8:	40008000 	.word	0x40008000
100018fc:	4000b03c 	.word	0x4000b03c
10001900:	4000b030 	.word	0x4000b030
10001904:	59682f00 	.word	0x59682f00
10001908:	40028000 	.word	0x40028000
1000190c:	47868c00 	.word	0x47868c00
10001910:	4002c000 	.word	0x4002c000
10001914:	40008030 	.word	0x40008030
10001918:	40009030 	.word	0x40009030
1000191c:	4000a030 	.word	0x4000a030
10001920:	00b71b00 	.word	0x00b71b00
10001924:	4000803c 	.word	0x4000803c
10001928:	4000903c 	.word	0x4000903c
1000192c:	4000a03c 	.word	0x4000a03c
10001930:	07735940 	.word	0x07735940
10001934:	40008054 	.word	0x40008054
10001938:	4000b054 	.word	0x4000b054
1000193c:	40009054 	.word	0x40009054
10001940:	4000a054 	.word	0x4000a054
10001944:	40008060 	.word	0x40008060
10001948:	4000b060 	.word	0x4000b060
1000194c:	40009060 	.word	0x40009060
10001950:	4000a060 	.word	0x4000a060
10001954:	4000806c 	.word	0x4000806c
10001958:	4000b06c 	.word	0x4000b06c
1000195c:	4000906c 	.word	0x4000906c
10001960:	4000a06c 	.word	0x4000a06c
10001964:	40008048 	.word	0x40008048
10001968:	4000b048 	.word	0x4000b048
1000196c:	40009048 	.word	0x40009048
10001970:	4000a048 	.word	0x4000a048

10001974 <pll_init>:
10001974:	b5f8      	push	{r3, r4, r5, r6, r7, lr}
10001976:	0004      	movs	r4, r0
10001978:	4822      	ldr	r0, [pc, #136]	@ (10001a04 <pll_init+0x90>)
1000197a:	001e      	movs	r6, r3
1000197c:	0017      	movs	r7, r2
1000197e:	000d      	movs	r5, r1
10001980:	f001 fd12 	bl	100033a8 <__wrap___aeabi_uidiv>
10001984:	0001      	movs	r1, r0
10001986:	0038      	movs	r0, r7
10001988:	f001 fd0e 	bl	100033a8 <__wrap___aeabi_uidiv>
1000198c:	9b06      	ldr	r3, [sp, #24]
1000198e:	0436      	lsls	r6, r6, #16
10001990:	031b      	lsls	r3, r3, #12
10001992:	431e      	orrs	r6, r3
10001994:	6823      	ldr	r3, [r4, #0]
10001996:	2b00      	cmp	r3, #0
10001998:	db22      	blt.n	100019e0 <pll_init+0x6c>
1000199a:	4b1b      	ldr	r3, [pc, #108]	@ (10001a08 <pll_init+0x94>)
1000199c:	491b      	ldr	r1, [pc, #108]	@ (10001a0c <pll_init+0x98>)
1000199e:	18e3      	adds	r3, r4, r3
100019a0:	1e5a      	subs	r2, r3, #1
100019a2:	4193      	sbcs	r3, r2
100019a4:	2280      	movs	r2, #128	@ 0x80
100019a6:	0192      	lsls	r2, r2, #6
100019a8:	4694      	mov	ip, r2
100019aa:	425b      	negs	r3, r3
100019ac:	0b1b      	lsrs	r3, r3, #12
100019ae:	4a18      	ldr	r2, [pc, #96]	@ (10001a10 <pll_init+0x9c>)
100019b0:	031b      	lsls	r3, r3, #12
100019b2:	4463      	add	r3, ip
100019b4:	6013      	str	r3, [r2, #0]
100019b6:	4a17      	ldr	r2, [pc, #92]	@ (10001a14 <pll_init+0xa0>)
100019b8:	6013      	str	r3, [r2, #0]
100019ba:	001f      	movs	r7, r3
100019bc:	688a      	ldr	r2, [r1, #8]
100019be:	4397      	bics	r7, r2
100019c0:	d1fb      	bne.n	100019ba <pll_init+0x46>
100019c2:	22c0      	movs	r2, #192	@ 0xc0
100019c4:	1d23      	adds	r3, r4, #4
100019c6:	0192      	lsls	r2, r2, #6
100019c8:	431a      	orrs	r2, r3
100019ca:	2321      	movs	r3, #33	@ 0x21
100019cc:	6025      	str	r5, [r4, #0]
100019ce:	60a0      	str	r0, [r4, #8]
100019d0:	6013      	str	r3, [r2, #0]
100019d2:	6823      	ldr	r3, [r4, #0]
100019d4:	2b00      	cmp	r3, #0
100019d6:	dafc      	bge.n	100019d2 <pll_init+0x5e>
100019d8:	2308      	movs	r3, #8
100019da:	60e6      	str	r6, [r4, #12]
100019dc:	6013      	str	r3, [r2, #0]
100019de:	bdf8      	pop	{r3, r4, r5, r6, r7, pc}
100019e0:	233f      	movs	r3, #63	@ 0x3f
100019e2:	6822      	ldr	r2, [r4, #0]
100019e4:	4013      	ands	r3, r2
100019e6:	42ab      	cmp	r3, r5
100019e8:	d1d7      	bne.n	1000199a <pll_init+0x26>
100019ea:	68a3      	ldr	r3, [r4, #8]
100019ec:	051b      	lsls	r3, r3, #20
100019ee:	0d1b      	lsrs	r3, r3, #20
100019f0:	4283      	cmp	r3, r0
100019f2:	d1d2      	bne.n	1000199a <pll_init+0x26>
100019f4:	22ee      	movs	r2, #238	@ 0xee
100019f6:	68e3      	ldr	r3, [r4, #12]
100019f8:	02d2      	lsls	r2, r2, #11
100019fa:	4013      	ands	r3, r2
100019fc:	42b3      	cmp	r3, r6
100019fe:	d1cc      	bne.n	1000199a <pll_init+0x26>
10001a00:	e7ed      	b.n	100019de <pll_init+0x6a>
10001a02:	46c0      	nop			@ (mov r8, r8)
10001a04:	00b71b00 	.word	0x00b71b00
10001a08:	bffd4000 	.word	0xbffd4000
10001a0c:	4000c000 	.word	0x4000c000
10001a10:	4000e000 	.word	0x4000e000
10001a14:	4000f000 	.word	0x4000f000

10001a18 <watchdog_start_tick>:
10001a18:	2380      	movs	r3, #128	@ 0x80
10001a1a:	4a02      	ldr	r2, [pc, #8]	@ (10001a24 <watchdog_start_tick+0xc>)
10001a1c:	009b      	lsls	r3, r3, #2
10001a1e:	4303      	orrs	r3, r0
10001a20:	62d3      	str	r3, [r2, #44]	@ 0x2c
10001a22:	4770      	bx	lr
10001a24:	40058000 	.word	0x40058000

10001a28 <xosc_init>:
10001a28:	23aa      	movs	r3, #170	@ 0xaa
10001a2a:	4a06      	ldr	r2, [pc, #24]	@ (10001a44 <xosc_init+0x1c>)
10001a2c:	011b      	lsls	r3, r3, #4
10001a2e:	6013      	str	r3, [r2, #0]
10001a30:	232f      	movs	r3, #47	@ 0x2f
10001a32:	4905      	ldr	r1, [pc, #20]	@ (10001a48 <xosc_init+0x20>)
10001a34:	60d3      	str	r3, [r2, #12]
10001a36:	4b05      	ldr	r3, [pc, #20]	@ (10001a4c <xosc_init+0x24>)
10001a38:	6019      	str	r1, [r3, #0]
10001a3a:	6853      	ldr	r3, [r2, #4]
10001a3c:	2b00      	cmp	r3, #0
10001a3e:	dafc      	bge.n	10001a3a <xosc_init+0x12>
10001a40:	4770      	bx	lr
10001a42:	46c0      	nop			@ (mov r8, r8)
10001a44:	40024000 	.word	0x40024000
10001a48:	00fab000 	.word	0x00fab000
10001a4c:	40026000 	.word	0x40026000

10001a50 <runtime_init>:
10001a50:	4b2c      	ldr	r3, [pc, #176]	@ (10001b04 <runtime_init+0xb4>)
10001a52:	4a2d      	ldr	r2, [pc, #180]	@ (10001b08 <runtime_init+0xb8>)
10001a54:	b570      	push	{r4, r5, r6, lr}
10001a56:	601a      	str	r2, [r3, #0]
10001a58:	4a2c      	ldr	r2, [pc, #176]	@ (10001b0c <runtime_init+0xbc>)
10001a5a:	4b2d      	ldr	r3, [pc, #180]	@ (10001b10 <runtime_init+0xc0>)
10001a5c:	492d      	ldr	r1, [pc, #180]	@ (10001b14 <runtime_init+0xc4>)
10001a5e:	601a      	str	r2, [r3, #0]
10001a60:	0014      	movs	r4, r2
10001a62:	688b      	ldr	r3, [r1, #8]
10001a64:	439c      	bics	r4, r3
10001a66:	d1fb      	bne.n	10001a60 <runtime_init+0x10>
10001a68:	4d2b      	ldr	r5, [pc, #172]	@ (10001b18 <runtime_init+0xc8>)
10001a6a:	4e2c      	ldr	r6, [pc, #176]	@ (10001b1c <runtime_init+0xcc>)
10001a6c:	42b5      	cmp	r5, r6
10001a6e:	d208      	bcs.n	10001a82 <runtime_init+0x32>
10001a70:	3e01      	subs	r6, #1
10001a72:	1b76      	subs	r6, r6, r5
10001a74:	08b6      	lsrs	r6, r6, #2
10001a76:	cd08      	ldmia	r5!, {r3}
10001a78:	4798      	blx	r3
10001a7a:	0023      	movs	r3, r4
10001a7c:	3401      	adds	r4, #1
10001a7e:	42b3      	cmp	r3, r6
10001a80:	d1f9      	bne.n	10001a76 <runtime_init+0x26>
10001a82:	f7ff fe13 	bl	100016ac <clocks_init>
10001a86:	4a26      	ldr	r2, [pc, #152]	@ (10001b20 <runtime_init+0xd0>)
10001a88:	4b21      	ldr	r3, [pc, #132]	@ (10001b10 <runtime_init+0xc0>)
10001a8a:	601a      	str	r2, [r3, #0]
10001a8c:	4a21      	ldr	r2, [pc, #132]	@ (10001b14 <runtime_init+0xc4>)
10001a8e:	6893      	ldr	r3, [r2, #8]
10001a90:	43db      	mvns	r3, r3
10001a92:	01db      	lsls	r3, r3, #7
10001a94:	09dd      	lsrs	r5, r3, #7
10001a96:	2b00      	cmp	r3, #0
10001a98:	d1f9      	bne.n	10001a8e <runtime_init+0x3e>
10001a9a:	2240      	movs	r2, #64	@ 0x40
10001a9c:	4b21      	ldr	r3, [pc, #132]	@ (10001b24 <runtime_init+0xd4>)
10001a9e:	4c22      	ldr	r4, [pc, #136]	@ (10001b28 <runtime_init+0xd8>)
10001aa0:	4e22      	ldr	r6, [pc, #136]	@ (10001b2c <runtime_init+0xdc>)
10001aa2:	679a      	str	r2, [r3, #120]	@ 0x78
10001aa4:	675a      	str	r2, [r3, #116]	@ 0x74
10001aa6:	671a      	str	r2, [r3, #112]	@ 0x70
10001aa8:	66da      	str	r2, [r3, #108]	@ 0x6c
10001aaa:	42b4      	cmp	r4, r6
10001aac:	d208      	bcs.n	10001ac0 <runtime_init+0x70>
10001aae:	6823      	ldr	r3, [r4, #0]
10001ab0:	0020      	movs	r0, r4
10001ab2:	2b00      	cmp	r3, #0
10001ab4:	d020      	beq.n	10001af8 <runtime_init+0xa8>
10001ab6:	3408      	adds	r4, #8
10001ab8:	f7fe ff62 	bl	10000980 <recursive_mutex_init>
10001abc:	42b4      	cmp	r4, r6
10001abe:	d3f6      	bcc.n	10001aae <runtime_init+0x5e>
10001ac0:	4c1b      	ldr	r4, [pc, #108]	@ (10001b30 <runtime_init+0xe0>)
10001ac2:	4e1c      	ldr	r6, [pc, #112]	@ (10001b34 <runtime_init+0xe4>)
10001ac4:	22c0      	movs	r2, #192	@ 0xc0
10001ac6:	68b1      	ldr	r1, [r6, #8]
10001ac8:	0020      	movs	r0, r4
10001aca:	f002 faef 	bl	100040ac <__wrap___aeabi_memcpy>
10001ace:	60b4      	str	r4, [r6, #8]
10001ad0:	f7fe fd94 	bl	100005fc <spin_locks_reset>
10001ad4:	f7fe ff2c 	bl	10000930 <irq_init_priorities>
10001ad8:	f7ff f8f2 	bl	10000cc0 <alarm_pool_init_default>
10001adc:	4c16      	ldr	r4, [pc, #88]	@ (10001b38 <runtime_init+0xe8>)
10001ade:	4e17      	ldr	r6, [pc, #92]	@ (10001b3c <runtime_init+0xec>)
10001ae0:	42b4      	cmp	r4, r6
10001ae2:	d208      	bcs.n	10001af6 <runtime_init+0xa6>
10001ae4:	3e01      	subs	r6, #1
10001ae6:	1b36      	subs	r6, r6, r4
10001ae8:	08b6      	lsrs	r6, r6, #2
10001aea:	cc08      	ldmia	r4!, {r3}
10001aec:	4798      	blx	r3
10001aee:	002b      	movs	r3, r5
10001af0:	3501      	adds	r5, #1
10001af2:	429e      	cmp	r6, r3
10001af4:	d1f9      	bne.n	10001aea <runtime_init+0x9a>
10001af6:	bd70      	pop	{r4, r5, r6, pc}
10001af8:	3408      	adds	r4, #8
10001afa:	f7fe ff33 	bl	10000964 <mutex_init>
10001afe:	42b4      	cmp	r4, r6
10001b00:	d3d5      	bcc.n	10001aae <runtime_init+0x5e>
10001b02:	e7dd      	b.n	10001ac0 <runtime_init+0x70>
10001b04:	4000e000 	.word	0x4000e000
10001b08:	fefbcdbf 	.word	0xfefbcdbf
10001b0c:	003c7ffe 	.word	0x003c7ffe
10001b10:	4000f000 	.word	0x4000f000
10001b14:	4000c000 	.word	0x4000c000
10001b18:	20000238 	.word	0x20000238
10001b1c:	20000248 	.word	0x20000248
10001b20:	01ffffff 	.word	0x01ffffff
10001b24:	4001f000 	.word	0x4001f000
10001b28:	20000230 	.word	0x20000230
10001b2c:	20000238 	.word	0x20000238
10001b30:	20000000 	.word	0x20000000
10001b34:	e000ed00 	.word	0xe000ed00
10001b38:	20000248 	.word	0x20000248
10001b3c:	2000024c 	.word	0x2000024c

10001b40 <_exit>:
10001b40:	be00      	bkpt	0x0000
10001b42:	e7fd      	b.n	10001b40 <_exit>

10001b44 <exit>:
10001b44:	b510      	push	{r4, lr}
10001b46:	f7ff fffb 	bl	10001b40 <_exit>
10001b4a:	46c0      	nop			@ (mov r8, r8)

10001b4c <panic>:
10001b4c:	b40f      	push	{r0, r1, r2, r3}
10001b4e:	b500      	push	{lr}
10001b50:	4808      	ldr	r0, [pc, #32]	@ (10001b74 <panic+0x28>)
10001b52:	b083      	sub	sp, #12
10001b54:	f002 fb78 	bl	10004248 <__wrap_puts>
10001b58:	9b04      	ldr	r3, [sp, #16]
10001b5a:	2b00      	cmp	r3, #0
10001b5c:	d007      	beq.n	10001b6e <panic+0x22>
10001b5e:	a905      	add	r1, sp, #20
10001b60:	0018      	movs	r0, r3
10001b62:	9101      	str	r1, [sp, #4]
10001b64:	f001 fba6 	bl	100032b4 <weak_raw_vprintf>
10001b68:	4803      	ldr	r0, [pc, #12]	@ (10001b78 <panic+0x2c>)
10001b6a:	f002 fb6d 	bl	10004248 <__wrap_puts>
10001b6e:	2001      	movs	r0, #1
10001b70:	f7ff ffe6 	bl	10001b40 <_exit>
10001b74:	100044e0 	.word	0x100044e0
10001b78:	100044f0 	.word	0x100044f0

10001b7c <hard_assertion_failure>:
10001b7c:	b510      	push	{r4, lr}
10001b7e:	4801      	ldr	r0, [pc, #4]	@ (10001b84 <hard_assertion_failure+0x8>)
10001b80:	f7ff ffe4 	bl	10001b4c <panic>
10001b84:	100044f4 	.word	0x100044f4

10001b88 <_out_null>:
10001b88:	4770      	bx	lr
10001b8a:	46c0      	nop			@ (mov r8, r8)

10001b8c <_out_rev>:
10001b8c:	b5f8      	push	{r3, r4, r5, r6, r7, lr}
10001b8e:	4657      	mov	r7, sl
10001b90:	46de      	mov	lr, fp
10001b92:	464e      	mov	r6, r9
10001b94:	4645      	mov	r5, r8
10001b96:	b5e0      	push	{r5, r6, r7, lr}
10001b98:	4699      	mov	r9, r3
10001b9a:	9b0a      	ldr	r3, [sp, #40]	@ 0x28
10001b9c:	0007      	movs	r7, r0
10001b9e:	469a      	mov	sl, r3
10001ba0:	9b0d      	ldr	r3, [sp, #52]	@ 0x34
10001ba2:	4688      	mov	r8, r1
10001ba4:	4693      	mov	fp, r2
10001ba6:	9c0b      	ldr	r4, [sp, #44]	@ 0x2c
10001ba8:	079b      	lsls	r3, r3, #30
10001baa:	d13b      	bne.n	10001c24 <_out_rev+0x98>
10001bac:	9b0c      	ldr	r3, [sp, #48]	@ 0x30
10001bae:	429c      	cmp	r4, r3
10001bb0:	d23d      	bcs.n	10001c2e <_out_rev+0xa2>
10001bb2:	1b1e      	subs	r6, r3, r4
10001bb4:	940b      	str	r4, [sp, #44]	@ 0x2c
10001bb6:	0015      	movs	r5, r2
10001bb8:	000c      	movs	r4, r1
10001bba:	445e      	add	r6, fp
10001bbc:	002a      	movs	r2, r5
10001bbe:	464b      	mov	r3, r9
10001bc0:	3501      	adds	r5, #1
10001bc2:	0021      	movs	r1, r4
10001bc4:	2020      	movs	r0, #32
10001bc6:	47b8      	blx	r7
10001bc8:	42b5      	cmp	r5, r6
10001bca:	d1f7      	bne.n	10001bbc <_out_rev+0x30>
10001bcc:	46a0      	mov	r8, r4
10001bce:	9c0b      	ldr	r4, [sp, #44]	@ 0x2c
10001bd0:	2c00      	cmp	r4, #0
10001bd2:	d020      	beq.n	10001c16 <_out_rev+0x8a>
10001bd4:	4645      	mov	r5, r8
10001bd6:	1936      	adds	r6, r6, r4
10001bd8:	4653      	mov	r3, sl
10001bda:	1b32      	subs	r2, r6, r4
10001bdc:	3c01      	subs	r4, #1
10001bde:	5d18      	ldrb	r0, [r3, r4]
10001be0:	0029      	movs	r1, r5
10001be2:	464b      	mov	r3, r9
10001be4:	47b8      	blx	r7
10001be6:	2c00      	cmp	r4, #0
10001be8:	d1f6      	bne.n	10001bd8 <_out_rev+0x4c>
10001bea:	002b      	movs	r3, r5
10001bec:	0035      	movs	r5, r6
10001bee:	4698      	mov	r8, r3
10001bf0:	9b0d      	ldr	r3, [sp, #52]	@ 0x34
10001bf2:	079b      	lsls	r3, r3, #30
10001bf4:	d50f      	bpl.n	10001c16 <_out_rev+0x8a>
10001bf6:	465b      	mov	r3, fp
10001bf8:	1aec      	subs	r4, r5, r3
10001bfa:	9b0c      	ldr	r3, [sp, #48]	@ 0x30
10001bfc:	42a3      	cmp	r3, r4
10001bfe:	d90a      	bls.n	10001c16 <_out_rev+0x8a>
10001c00:	4646      	mov	r6, r8
10001c02:	4698      	mov	r8, r3
10001c04:	002a      	movs	r2, r5
10001c06:	464b      	mov	r3, r9
10001c08:	0031      	movs	r1, r6
10001c0a:	2020      	movs	r0, #32
10001c0c:	3401      	adds	r4, #1
10001c0e:	47b8      	blx	r7
10001c10:	3501      	adds	r5, #1
10001c12:	4544      	cmp	r4, r8
10001c14:	d3f6      	bcc.n	10001c04 <_out_rev+0x78>
10001c16:	0028      	movs	r0, r5
10001c18:	bcf0      	pop	{r4, r5, r6, r7}
10001c1a:	46bb      	mov	fp, r7
10001c1c:	46b2      	mov	sl, r6
10001c1e:	46a9      	mov	r9, r5
10001c20:	46a0      	mov	r8, r4
10001c22:	bdf8      	pop	{r3, r4, r5, r6, r7, pc}
10001c24:	0016      	movs	r6, r2
10001c26:	0015      	movs	r5, r2
10001c28:	2c00      	cmp	r4, #0
10001c2a:	d1d3      	bne.n	10001bd4 <_out_rev+0x48>
10001c2c:	e7e0      	b.n	10001bf0 <_out_rev+0x64>
10001c2e:	0016      	movs	r6, r2
10001c30:	2c00      	cmp	r4, #0
10001c32:	d1cf      	bne.n	10001bd4 <_out_rev+0x48>
10001c34:	0015      	movs	r5, r2
10001c36:	e7ee      	b.n	10001c16 <_out_rev+0x8a>

10001c38 <_ntoa_format>:
10001c38:	b5f0      	push	{r4, r5, r6, r7, lr}
10001c3a:	464f      	mov	r7, r9
10001c3c:	4646      	mov	r6, r8
10001c3e:	46d6      	mov	lr, sl
10001c40:	b5c0      	push	{r6, r7, lr}
10001c42:	b084      	sub	sp, #16
10001c44:	4698      	mov	r8, r3
10001c46:	ab0e      	add	r3, sp, #56	@ 0x38
10001c48:	781b      	ldrb	r3, [r3, #0]
10001c4a:	4694      	mov	ip, r2
10001c4c:	4699      	mov	r9, r3
10001c4e:	9b12      	ldr	r3, [sp, #72]	@ 0x48
10001c50:	9c0d      	ldr	r4, [sp, #52]	@ 0x34
10001c52:	9f10      	ldr	r7, [sp, #64]	@ 0x40
10001c54:	9e11      	ldr	r6, [sp, #68]	@ 0x44
10001c56:	079a      	lsls	r2, r3, #30
10001c58:	d425      	bmi.n	10001ca6 <_ntoa_format+0x6e>
10001c5a:	2e00      	cmp	r6, #0
10001c5c:	d165      	bne.n	10001d2a <_ntoa_format+0xf2>
10001c5e:	42bc      	cmp	r4, r7
10001c60:	d221      	bcs.n	10001ca6 <_ntoa_format+0x6e>
10001c62:	2201      	movs	r2, #1
10001c64:	401a      	ands	r2, r3
10001c66:	4692      	mov	sl, r2
10001c68:	2c20      	cmp	r4, #32
10001c6a:	d100      	bne.n	10001c6e <_ntoa_format+0x36>
10001c6c:	e0e9      	b.n	10001e42 <_ntoa_format+0x20a>
10001c6e:	9a0c      	ldr	r2, [sp, #48]	@ 0x30
10001c70:	1e55      	subs	r5, r2, #1
10001c72:	2230      	movs	r2, #48	@ 0x30
10001c74:	e002      	b.n	10001c7c <_ntoa_format+0x44>
10001c76:	2c20      	cmp	r4, #32
10001c78:	d100      	bne.n	10001c7c <_ntoa_format+0x44>
10001c7a:	e07b      	b.n	10001d74 <_ntoa_format+0x13c>
10001c7c:	3401      	adds	r4, #1
10001c7e:	552a      	strb	r2, [r5, r4]
10001c80:	42a7      	cmp	r7, r4
10001c82:	d8f8      	bhi.n	10001c76 <_ntoa_format+0x3e>
10001c84:	4652      	mov	r2, sl
10001c86:	2a00      	cmp	r2, #0
10001c88:	d00d      	beq.n	10001ca6 <_ntoa_format+0x6e>
10001c8a:	42b4      	cmp	r4, r6
10001c8c:	d20b      	bcs.n	10001ca6 <_ntoa_format+0x6e>
10001c8e:	9a0c      	ldr	r2, [sp, #48]	@ 0x30
10001c90:	1e55      	subs	r5, r2, #1
10001c92:	2230      	movs	r2, #48	@ 0x30
10001c94:	2c20      	cmp	r4, #32
10001c96:	d102      	bne.n	10001c9e <_ntoa_format+0x66>
10001c98:	e071      	b.n	10001d7e <_ntoa_format+0x146>
10001c9a:	2c20      	cmp	r4, #32
10001c9c:	d02d      	beq.n	10001cfa <_ntoa_format+0xc2>
10001c9e:	3401      	adds	r4, #1
10001ca0:	552a      	strb	r2, [r5, r4]
10001ca2:	42b4      	cmp	r4, r6
10001ca4:	d1f9      	bne.n	10001c9a <_ntoa_format+0x62>
10001ca6:	06da      	lsls	r2, r3, #27
10001ca8:	d53c      	bpl.n	10001d24 <_ntoa_format+0xec>
10001caa:	055a      	lsls	r2, r3, #21
10001cac:	d42e      	bmi.n	10001d0c <_ntoa_format+0xd4>
10001cae:	2c00      	cmp	r4, #0
10001cb0:	d128      	bne.n	10001d04 <_ntoa_format+0xcc>
10001cb2:	9a0f      	ldr	r2, [sp, #60]	@ 0x3c
10001cb4:	2a10      	cmp	r2, #16
10001cb6:	d100      	bne.n	10001cba <_ntoa_format+0x82>
10001cb8:	e0b6      	b.n	10001e28 <_ntoa_format+0x1f0>
10001cba:	2a02      	cmp	r2, #2
10001cbc:	d100      	bne.n	10001cc0 <_ntoa_format+0x88>
10001cbe:	e0bc      	b.n	10001e3a <_ntoa_format+0x202>
10001cc0:	2230      	movs	r2, #48	@ 0x30
10001cc2:	9c0c      	ldr	r4, [sp, #48]	@ 0x30
10001cc4:	7022      	strb	r2, [r4, #0]
10001cc6:	2401      	movs	r4, #1
10001cc8:	464a      	mov	r2, r9
10001cca:	2a00      	cmp	r2, #0
10001ccc:	d165      	bne.n	10001d9a <_ntoa_format+0x162>
10001cce:	075a      	lsls	r2, r3, #29
10001cd0:	d400      	bmi.n	10001cd4 <_ntoa_format+0x9c>
10001cd2:	e099      	b.n	10001e08 <_ntoa_format+0x1d0>
10001cd4:	222b      	movs	r2, #43	@ 0x2b
10001cd6:	9d0c      	ldr	r5, [sp, #48]	@ 0x30
10001cd8:	552a      	strb	r2, [r5, r4]
10001cda:	3401      	adds	r4, #1
10001cdc:	9303      	str	r3, [sp, #12]
10001cde:	9b0c      	ldr	r3, [sp, #48]	@ 0x30
10001ce0:	4662      	mov	r2, ip
10001ce2:	9300      	str	r3, [sp, #0]
10001ce4:	9602      	str	r6, [sp, #8]
10001ce6:	4643      	mov	r3, r8
10001ce8:	9401      	str	r4, [sp, #4]
10001cea:	f7ff ff4f 	bl	10001b8c <_out_rev>
10001cee:	b004      	add	sp, #16
10001cf0:	bce0      	pop	{r5, r6, r7}
10001cf2:	46ba      	mov	sl, r7
10001cf4:	46b1      	mov	r9, r6
10001cf6:	46a8      	mov	r8, r5
10001cf8:	bdf0      	pop	{r4, r5, r6, r7, pc}
10001cfa:	2420      	movs	r4, #32
10001cfc:	06da      	lsls	r2, r3, #27
10001cfe:	d5ed      	bpl.n	10001cdc <_ntoa_format+0xa4>
10001d00:	055a      	lsls	r2, r3, #21
10001d02:	d403      	bmi.n	10001d0c <_ntoa_format+0xd4>
10001d04:	42a7      	cmp	r7, r4
10001d06:	d066      	beq.n	10001dd6 <_ntoa_format+0x19e>
10001d08:	42b4      	cmp	r4, r6
10001d0a:	d064      	beq.n	10001dd6 <_ntoa_format+0x19e>
10001d0c:	9a0f      	ldr	r2, [sp, #60]	@ 0x3c
10001d0e:	2a10      	cmp	r2, #16
10001d10:	d071      	beq.n	10001df6 <_ntoa_format+0x1be>
10001d12:	2a02      	cmp	r2, #2
10001d14:	d057      	beq.n	10001dc6 <_ntoa_format+0x18e>
10001d16:	2c20      	cmp	r4, #32
10001d18:	d0e0      	beq.n	10001cdc <_ntoa_format+0xa4>
10001d1a:	0022      	movs	r2, r4
10001d1c:	3401      	adds	r4, #1
10001d1e:	2530      	movs	r5, #48	@ 0x30
10001d20:	9f0c      	ldr	r7, [sp, #48]	@ 0x30
10001d22:	54bd      	strb	r5, [r7, r2]
10001d24:	2c20      	cmp	r4, #32
10001d26:	d0d9      	beq.n	10001cdc <_ntoa_format+0xa4>
10001d28:	e7ce      	b.n	10001cc8 <_ntoa_format+0x90>
10001d2a:	2201      	movs	r2, #1
10001d2c:	0015      	movs	r5, r2
10001d2e:	401d      	ands	r5, r3
10001d30:	46aa      	mov	sl, r5
10001d32:	421a      	tst	r2, r3
10001d34:	d036      	beq.n	10001da4 <_ntoa_format+0x16c>
10001d36:	464a      	mov	r2, r9
10001d38:	2a00      	cmp	r2, #0
10001d3a:	d14a      	bne.n	10001dd2 <_ntoa_format+0x19a>
10001d3c:	320c      	adds	r2, #12
10001d3e:	421a      	tst	r2, r3
10001d40:	d147      	bne.n	10001dd2 <_ntoa_format+0x19a>
10001d42:	42bc      	cmp	r4, r7
10001d44:	d2a1      	bcs.n	10001c8a <_ntoa_format+0x52>
10001d46:	2c20      	cmp	r4, #32
10001d48:	d191      	bne.n	10001c6e <_ntoa_format+0x36>
10001d4a:	2e20      	cmp	r6, #32
10001d4c:	d817      	bhi.n	10001d7e <_ntoa_format+0x146>
10001d4e:	2420      	movs	r4, #32
10001d50:	06da      	lsls	r2, r3, #27
10001d52:	d5c3      	bpl.n	10001cdc <_ntoa_format+0xa4>
10001d54:	055a      	lsls	r2, r3, #21
10001d56:	d41b      	bmi.n	10001d90 <_ntoa_format+0x158>
10001d58:	2f20      	cmp	r7, #32
10001d5a:	d001      	beq.n	10001d60 <_ntoa_format+0x128>
10001d5c:	2e20      	cmp	r6, #32
10001d5e:	d1d5      	bne.n	10001d0c <_ntoa_format+0xd4>
10001d60:	221f      	movs	r2, #31
10001d62:	9d0f      	ldr	r5, [sp, #60]	@ 0x3c
10001d64:	2d10      	cmp	r5, #16
10001d66:	d06f      	beq.n	10001e48 <_ntoa_format+0x210>
10001d68:	2d02      	cmp	r5, #2
10001d6a:	d1d8      	bne.n	10001d1e <_ntoa_format+0xe6>
10001d6c:	2562      	movs	r5, #98	@ 0x62
10001d6e:	9f0c      	ldr	r7, [sp, #48]	@ 0x30
10001d70:	54bd      	strb	r5, [r7, r2]
10001d72:	e7d0      	b.n	10001d16 <_ntoa_format+0xde>
10001d74:	4652      	mov	r2, sl
10001d76:	2a00      	cmp	r2, #0
10001d78:	d079      	beq.n	10001e6e <_ntoa_format+0x236>
10001d7a:	2e20      	cmp	r6, #32
10001d7c:	d9bd      	bls.n	10001cfa <_ntoa_format+0xc2>
10001d7e:	2420      	movs	r4, #32
10001d80:	06da      	lsls	r2, r3, #27
10001d82:	d5ab      	bpl.n	10001cdc <_ntoa_format+0xa4>
10001d84:	055a      	lsls	r2, r3, #21
10001d86:	d403      	bmi.n	10001d90 <_ntoa_format+0x158>
10001d88:	2f20      	cmp	r7, #32
10001d8a:	d0e9      	beq.n	10001d60 <_ntoa_format+0x128>
10001d8c:	2e20      	cmp	r6, #32
10001d8e:	d0e7      	beq.n	10001d60 <_ntoa_format+0x128>
10001d90:	9a0f      	ldr	r2, [sp, #60]	@ 0x3c
10001d92:	2a10      	cmp	r2, #16
10001d94:	d1a2      	bne.n	10001cdc <_ntoa_format+0xa4>
10001d96:	2420      	movs	r4, #32
10001d98:	e7a0      	b.n	10001cdc <_ntoa_format+0xa4>
10001d9a:	222d      	movs	r2, #45	@ 0x2d
10001d9c:	9d0c      	ldr	r5, [sp, #48]	@ 0x30
10001d9e:	552a      	strb	r2, [r5, r4]
10001da0:	3401      	adds	r4, #1
10001da2:	e79b      	b.n	10001cdc <_ntoa_format+0xa4>
10001da4:	42bc      	cmp	r4, r7
10001da6:	d300      	bcc.n	10001daa <_ntoa_format+0x172>
10001da8:	e77d      	b.n	10001ca6 <_ntoa_format+0x6e>
10001daa:	2c20      	cmp	r4, #32
10001dac:	d000      	beq.n	10001db0 <_ntoa_format+0x178>
10001dae:	e75e      	b.n	10001c6e <_ntoa_format+0x36>
10001db0:	06da      	lsls	r2, r3, #27
10001db2:	d5f0      	bpl.n	10001d96 <_ntoa_format+0x15e>
10001db4:	055a      	lsls	r2, r3, #21
10001db6:	d4ee      	bmi.n	10001d96 <_ntoa_format+0x15e>
10001db8:	2f20      	cmp	r7, #32
10001dba:	d062      	beq.n	10001e82 <_ntoa_format+0x24a>
10001dbc:	2e20      	cmp	r6, #32
10001dbe:	d1ea      	bne.n	10001d96 <_ntoa_format+0x15e>
10001dc0:	0034      	movs	r4, r6
10001dc2:	221f      	movs	r2, #31
10001dc4:	e7cd      	b.n	10001d62 <_ntoa_format+0x12a>
10001dc6:	2c20      	cmp	r4, #32
10001dc8:	d100      	bne.n	10001dcc <_ntoa_format+0x194>
10001dca:	e787      	b.n	10001cdc <_ntoa_format+0xa4>
10001dcc:	0022      	movs	r2, r4
10001dce:	3401      	adds	r4, #1
10001dd0:	e7cc      	b.n	10001d6c <_ntoa_format+0x134>
10001dd2:	3e01      	subs	r6, #1
10001dd4:	e7b5      	b.n	10001d42 <_ntoa_format+0x10a>
10001dd6:	1e62      	subs	r2, r4, #1
10001dd8:	2c01      	cmp	r4, #1
10001dda:	d1c2      	bne.n	10001d62 <_ntoa_format+0x12a>
10001ddc:	9a0f      	ldr	r2, [sp, #60]	@ 0x3c
10001dde:	2a10      	cmp	r2, #16
10001de0:	d000      	beq.n	10001de4 <_ntoa_format+0x1ac>
10001de2:	e76a      	b.n	10001cba <_ntoa_format+0x82>
10001de4:	069a      	lsls	r2, r3, #26
10001de6:	d53b      	bpl.n	10001e60 <_ntoa_format+0x228>
10001de8:	2258      	movs	r2, #88	@ 0x58
10001dea:	9c0c      	ldr	r4, [sp, #48]	@ 0x30
10001dec:	7022      	strb	r2, [r4, #0]
10001dee:	3a28      	subs	r2, #40	@ 0x28
10001df0:	7062      	strb	r2, [r4, #1]
10001df2:	2402      	movs	r4, #2
10001df4:	e768      	b.n	10001cc8 <_ntoa_format+0x90>
10001df6:	069a      	lsls	r2, r3, #26
10001df8:	d40e      	bmi.n	10001e18 <_ntoa_format+0x1e0>
10001dfa:	2c20      	cmp	r4, #32
10001dfc:	d0cb      	beq.n	10001d96 <_ntoa_format+0x15e>
10001dfe:	2278      	movs	r2, #120	@ 0x78
10001e00:	9d0c      	ldr	r5, [sp, #48]	@ 0x30
10001e02:	552a      	strb	r2, [r5, r4]
10001e04:	3401      	adds	r4, #1
10001e06:	e786      	b.n	10001d16 <_ntoa_format+0xde>
10001e08:	071a      	lsls	r2, r3, #28
10001e0a:	d400      	bmi.n	10001e0e <_ntoa_format+0x1d6>
10001e0c:	e766      	b.n	10001cdc <_ntoa_format+0xa4>
10001e0e:	2220      	movs	r2, #32
10001e10:	9d0c      	ldr	r5, [sp, #48]	@ 0x30
10001e12:	552a      	strb	r2, [r5, r4]
10001e14:	3401      	adds	r4, #1
10001e16:	e761      	b.n	10001cdc <_ntoa_format+0xa4>
10001e18:	2c20      	cmp	r4, #32
10001e1a:	d0bc      	beq.n	10001d96 <_ntoa_format+0x15e>
10001e1c:	2558      	movs	r5, #88	@ 0x58
10001e1e:	9a0c      	ldr	r2, [sp, #48]	@ 0x30
10001e20:	1912      	adds	r2, r2, r4
10001e22:	7015      	strb	r5, [r2, #0]
10001e24:	3401      	adds	r4, #1
10001e26:	e776      	b.n	10001d16 <_ntoa_format+0xde>
10001e28:	069a      	lsls	r2, r3, #26
10001e2a:	d508      	bpl.n	10001e3e <_ntoa_format+0x206>
10001e2c:	2258      	movs	r2, #88	@ 0x58
10001e2e:	9c0c      	ldr	r4, [sp, #48]	@ 0x30
10001e30:	7022      	strb	r2, [r4, #0]
10001e32:	2230      	movs	r2, #48	@ 0x30
10001e34:	7062      	strb	r2, [r4, #1]
10001e36:	2402      	movs	r4, #2
10001e38:	e746      	b.n	10001cc8 <_ntoa_format+0x90>
10001e3a:	3260      	adds	r2, #96	@ 0x60
10001e3c:	e7f7      	b.n	10001e2e <_ntoa_format+0x1f6>
10001e3e:	2278      	movs	r2, #120	@ 0x78
10001e40:	e7f5      	b.n	10001e2e <_ntoa_format+0x1f6>
10001e42:	2a00      	cmp	r2, #0
10001e44:	d183      	bne.n	10001d4e <_ntoa_format+0x116>
10001e46:	e7b3      	b.n	10001db0 <_ntoa_format+0x178>
10001e48:	1ea2      	subs	r2, r4, #2
10001e4a:	3c01      	subs	r4, #1
10001e4c:	069d      	lsls	r5, r3, #26
10001e4e:	d403      	bmi.n	10001e58 <_ntoa_format+0x220>
10001e50:	2578      	movs	r5, #120	@ 0x78
10001e52:	9f0c      	ldr	r7, [sp, #48]	@ 0x30
10001e54:	54bd      	strb	r5, [r7, r2]
10001e56:	e760      	b.n	10001d1a <_ntoa_format+0xe2>
10001e58:	2558      	movs	r5, #88	@ 0x58
10001e5a:	9f0c      	ldr	r7, [sp, #48]	@ 0x30
10001e5c:	54bd      	strb	r5, [r7, r2]
10001e5e:	e75c      	b.n	10001d1a <_ntoa_format+0xe2>
10001e60:	2278      	movs	r2, #120	@ 0x78
10001e62:	9c0c      	ldr	r4, [sp, #48]	@ 0x30
10001e64:	7022      	strb	r2, [r4, #0]
10001e66:	3a48      	subs	r2, #72	@ 0x48
10001e68:	7062      	strb	r2, [r4, #1]
10001e6a:	2402      	movs	r4, #2
10001e6c:	e72c      	b.n	10001cc8 <_ntoa_format+0x90>
10001e6e:	06da      	lsls	r2, r3, #27
10001e70:	d400      	bmi.n	10001e74 <_ntoa_format+0x23c>
10001e72:	e733      	b.n	10001cdc <_ntoa_format+0xa4>
10001e74:	055a      	lsls	r2, r3, #21
10001e76:	d48b      	bmi.n	10001d90 <_ntoa_format+0x158>
10001e78:	2f20      	cmp	r7, #32
10001e7a:	d000      	beq.n	10001e7e <_ntoa_format+0x246>
10001e7c:	e744      	b.n	10001d08 <_ntoa_format+0xd0>
10001e7e:	221f      	movs	r2, #31
10001e80:	e76f      	b.n	10001d62 <_ntoa_format+0x12a>
10001e82:	003c      	movs	r4, r7
10001e84:	221f      	movs	r2, #31
10001e86:	e76c      	b.n	10001d62 <_ntoa_format+0x12a>

10001e88 <_out_char>:
10001e88:	b510      	push	{r4, lr}
10001e8a:	2800      	cmp	r0, #0
10001e8c:	d100      	bne.n	10001e90 <_out_char+0x8>
10001e8e:	bd10      	pop	{r4, pc}
10001e90:	f002 f98e 	bl	100041b0 <__wrap_putchar>
10001e94:	e7fb      	b.n	10001e8e <_out_char+0x6>
10001e96:	46c0      	nop			@ (mov r8, r8)

10001e98 <_out_fct>:
10001e98:	000b      	movs	r3, r1
10001e9a:	b510      	push	{r4, lr}
10001e9c:	2800      	cmp	r0, #0
10001e9e:	d002      	beq.n	10001ea6 <_out_fct+0xe>
10001ea0:	6849      	ldr	r1, [r1, #4]
10001ea2:	681b      	ldr	r3, [r3, #0]
10001ea4:	4798      	blx	r3
10001ea6:	bd10      	pop	{r4, pc}

10001ea8 <_etoa>:
10001ea8:	b5f0      	push	{r4, r5, r6, r7, lr}
10001eaa:	4657      	mov	r7, sl
10001eac:	464e      	mov	r6, r9
10001eae:	4645      	mov	r5, r8
10001eb0:	46de      	mov	lr, fp
10001eb2:	b5e0      	push	{r5, r6, r7, lr}
10001eb4:	b099      	sub	sp, #100	@ 0x64
10001eb6:	4682      	mov	sl, r0
10001eb8:	4689      	mov	r9, r1
10001eba:	4690      	mov	r8, r2
10001ebc:	9308      	str	r3, [sp, #32]
10001ebe:	9a22      	ldr	r2, [sp, #136]	@ 0x88
10001ec0:	9b23      	ldr	r3, [sp, #140]	@ 0x8c
10001ec2:	0010      	movs	r0, r2
10001ec4:	0019      	movs	r1, r3
10001ec6:	f001 fd30 	bl	1000392a <__wrap___aeabi_dcmpun>
10001eca:	2800      	cmp	r0, #0
10001ecc:	d000      	beq.n	10001ed0 <_etoa+0x28>
10001ece:	e0cd      	b.n	1000206c <_etoa+0x1c4>
10001ed0:	9822      	ldr	r0, [sp, #136]	@ 0x88
10001ed2:	9923      	ldr	r1, [sp, #140]	@ 0x8c
10001ed4:	2201      	movs	r2, #1
10001ed6:	4bd9      	ldr	r3, [pc, #868]	@ (1000223c <_etoa+0x394>)
10001ed8:	4252      	negs	r2, r2
10001eda:	f001 fd21 	bl	10003920 <__wrap___aeabi_dcmpgt>
10001ede:	2800      	cmp	r0, #0
10001ee0:	d000      	beq.n	10001ee4 <_etoa+0x3c>
10001ee2:	e0c3      	b.n	1000206c <_etoa+0x1c4>
10001ee4:	9822      	ldr	r0, [sp, #136]	@ 0x88
10001ee6:	9923      	ldr	r1, [sp, #140]	@ 0x8c
10001ee8:	2201      	movs	r2, #1
10001eea:	4bd5      	ldr	r3, [pc, #852]	@ (10002240 <_etoa+0x398>)
10001eec:	4252      	negs	r2, r2
10001eee:	f001 fd09 	bl	10003904 <__wrap___aeabi_dcmplt>
10001ef2:	2800      	cmp	r0, #0
10001ef4:	d000      	beq.n	10001ef8 <_etoa+0x50>
10001ef6:	e0b9      	b.n	1000206c <_etoa+0x1c4>
10001ef8:	9822      	ldr	r0, [sp, #136]	@ 0x88
10001efa:	9923      	ldr	r1, [sp, #140]	@ 0x8c
10001efc:	2200      	movs	r2, #0
10001efe:	2300      	movs	r3, #0
10001f00:	f001 fd00 	bl	10003904 <__wrap___aeabi_dcmplt>
10001f04:	2800      	cmp	r0, #0
10001f06:	d000      	beq.n	10001f0a <_etoa+0x62>
10001f08:	e1f1      	b.n	100022ee <_etoa+0x446>
10001f0a:	9e22      	ldr	r6, [sp, #136]	@ 0x88
10001f0c:	9f23      	ldr	r7, [sp, #140]	@ 0x8c
10001f0e:	2380      	movs	r3, #128	@ 0x80
10001f10:	9a26      	ldr	r2, [sp, #152]	@ 0x98
10001f12:	00db      	lsls	r3, r3, #3
10001f14:	401a      	ands	r2, r3
10001f16:	920d      	str	r2, [sp, #52]	@ 0x34
10001f18:	9a26      	ldr	r2, [sp, #152]	@ 0x98
10001f1a:	421a      	tst	r2, r3
10001f1c:	d101      	bne.n	10001f22 <_etoa+0x7a>
10001f1e:	2306      	movs	r3, #6
10001f20:	9324      	str	r3, [sp, #144]	@ 0x90
10001f22:	2380      	movs	r3, #128	@ 0x80
10001f24:	9a26      	ldr	r2, [sp, #152]	@ 0x98
10001f26:	011b      	lsls	r3, r3, #4
10001f28:	401a      	ands	r2, r3
10001f2a:	003b      	movs	r3, r7
10001f2c:	4693      	mov	fp, r2
10001f2e:	9609      	str	r6, [sp, #36]	@ 0x24
10001f30:	4333      	orrs	r3, r6
10001f32:	d000      	beq.n	10001f36 <_etoa+0x8e>
10001f34:	e0b3      	b.n	1000209e <_etoa+0x1f6>
10001f36:	2a00      	cmp	r2, #0
10001f38:	d000      	beq.n	10001f3c <_etoa+0x94>
10001f3a:	e1c2      	b.n	100022c2 <_etoa+0x41a>
10001f3c:	2300      	movs	r3, #0
10001f3e:	2400      	movs	r4, #0
10001f40:	930a      	str	r3, [sp, #40]	@ 0x28
10001f42:	940b      	str	r4, [sp, #44]	@ 0x2c
10001f44:	2300      	movs	r3, #0
10001f46:	2504      	movs	r5, #4
10001f48:	9309      	str	r3, [sp, #36]	@ 0x24
10001f4a:	9b25      	ldr	r3, [sp, #148]	@ 0x94
10001f4c:	2400      	movs	r4, #0
10001f4e:	42ab      	cmp	r3, r5
10001f50:	d900      	bls.n	10001f54 <_etoa+0xac>
10001f52:	1b5c      	subs	r4, r3, r5
10001f54:	2302      	movs	r3, #2
10001f56:	9a26      	ldr	r2, [sp, #152]	@ 0x98
10001f58:	401a      	ands	r2, r3
10001f5a:	920c      	str	r2, [sp, #48]	@ 0x30
10001f5c:	9a26      	ldr	r2, [sp, #152]	@ 0x98
10001f5e:	4213      	tst	r3, r2
10001f60:	d003      	beq.n	10001f6a <_etoa+0xc2>
10001f62:	426b      	negs	r3, r5
10001f64:	416b      	adcs	r3, r5
10001f66:	425b      	negs	r3, r3
10001f68:	401c      	ands	r4, r3
10001f6a:	9b09      	ldr	r3, [sp, #36]	@ 0x24
10001f6c:	2b00      	cmp	r3, #0
10001f6e:	d007      	beq.n	10001f80 <_etoa+0xd8>
10001f70:	9a0a      	ldr	r2, [sp, #40]	@ 0x28
10001f72:	9b0b      	ldr	r3, [sp, #44]	@ 0x2c
10001f74:	0030      	movs	r0, r6
10001f76:	0039      	movs	r1, r7
10001f78:	f001 fc63 	bl	10003842 <__wrap___aeabi_ddiv>
10001f7c:	0006      	movs	r6, r0
10001f7e:	000f      	movs	r7, r1
10001f80:	9822      	ldr	r0, [sp, #136]	@ 0x88
10001f82:	9923      	ldr	r1, [sp, #140]	@ 0x8c
10001f84:	2200      	movs	r2, #0
10001f86:	2300      	movs	r3, #0
10001f88:	f001 fcbc 	bl	10003904 <__wrap___aeabi_dcmplt>
10001f8c:	2800      	cmp	r0, #0
10001f8e:	d003      	beq.n	10001f98 <_etoa+0xf0>
10001f90:	2180      	movs	r1, #128	@ 0x80
10001f92:	0609      	lsls	r1, r1, #24
10001f94:	187b      	adds	r3, r7, r1
10001f96:	001f      	movs	r7, r3
10001f98:	9a26      	ldr	r2, [sp, #152]	@ 0x98
10001f9a:	4baa      	ldr	r3, [pc, #680]	@ (10002244 <_etoa+0x39c>)
10001f9c:	9600      	str	r6, [sp, #0]
10001f9e:	9701      	str	r7, [sp, #4]
10001fa0:	4013      	ands	r3, r2
10001fa2:	9e08      	ldr	r6, [sp, #32]
10001fa4:	9304      	str	r3, [sp, #16]
10001fa6:	9b24      	ldr	r3, [sp, #144]	@ 0x90
10001fa8:	9403      	str	r4, [sp, #12]
10001faa:	9302      	str	r3, [sp, #8]
10001fac:	4642      	mov	r2, r8
10001fae:	0033      	movs	r3, r6
10001fb0:	4649      	mov	r1, r9
10001fb2:	4650      	mov	r0, sl
10001fb4:	f000 f9aa 	bl	1000230c <_ftoa>
10001fb8:	0004      	movs	r4, r0
10001fba:	2d00      	cmp	r5, #0
10001fbc:	d067      	beq.n	1000208e <_etoa+0x1e6>
10001fbe:	2020      	movs	r0, #32
10001fc0:	9a26      	ldr	r2, [sp, #152]	@ 0x98
10001fc2:	4649      	mov	r1, r9
10001fc4:	4002      	ands	r2, r0
10001fc6:	0013      	movs	r3, r2
10001fc8:	425a      	negs	r2, r3
10001fca:	4153      	adcs	r3, r2
10001fcc:	425b      	negs	r3, r3
10001fce:	1c62      	adds	r2, r4, #1
10001fd0:	4018      	ands	r0, r3
10001fd2:	920a      	str	r2, [sp, #40]	@ 0x28
10001fd4:	0033      	movs	r3, r6
10001fd6:	0022      	movs	r2, r4
10001fd8:	3045      	adds	r0, #69	@ 0x45
10001fda:	47d0      	blx	sl
10001fdc:	9a09      	ldr	r2, [sp, #36]	@ 0x24
10001fde:	1e6f      	subs	r7, r5, #1
10001fe0:	17d3      	asrs	r3, r2, #31
10001fe2:	18d4      	adds	r4, r2, r3
10001fe4:	405c      	eors	r4, r3
10001fe6:	0fd3      	lsrs	r3, r2, #31
10001fe8:	469b      	mov	fp, r3
10001fea:	2500      	movs	r5, #0
10001fec:	e001      	b.n	10001ff2 <_etoa+0x14a>
10001fee:	2d20      	cmp	r5, #32
10001ff0:	d013      	beq.n	1000201a <_etoa+0x172>
10001ff2:	aa08      	add	r2, sp, #32
10001ff4:	4694      	mov	ip, r2
10001ff6:	231f      	movs	r3, #31
10001ff8:	0020      	movs	r0, r4
10001ffa:	4463      	add	r3, ip
10001ffc:	210a      	movs	r1, #10
10001ffe:	3501      	adds	r5, #1
10002000:	195e      	adds	r6, r3, r5
10002002:	f001 f9d1 	bl	100033a8 <__wrap___aeabi_uidiv>
10002006:	3130      	adds	r1, #48	@ 0x30
10002008:	7031      	strb	r1, [r6, #0]
1000200a:	0020      	movs	r0, r4
1000200c:	210a      	movs	r1, #10
1000200e:	f001 f9cb 	bl	100033a8 <__wrap___aeabi_uidiv>
10002012:	0026      	movs	r6, r4
10002014:	0004      	movs	r4, r0
10002016:	2e09      	cmp	r6, #9
10002018:	d8e9      	bhi.n	10001fee <_etoa+0x146>
1000201a:	2305      	movs	r3, #5
1000201c:	9306      	str	r3, [sp, #24]
1000201e:	2300      	movs	r3, #0
10002020:	9304      	str	r3, [sp, #16]
10002022:	330a      	adds	r3, #10
10002024:	9303      	str	r3, [sp, #12]
10002026:	465b      	mov	r3, fp
10002028:	9e08      	ldr	r6, [sp, #32]
1000202a:	9302      	str	r3, [sp, #8]
1000202c:	ab10      	add	r3, sp, #64	@ 0x40
1000202e:	9a0a      	ldr	r2, [sp, #40]	@ 0x28
10002030:	9300      	str	r3, [sp, #0]
10002032:	4649      	mov	r1, r9
10002034:	0033      	movs	r3, r6
10002036:	4650      	mov	r0, sl
10002038:	9705      	str	r7, [sp, #20]
1000203a:	9501      	str	r5, [sp, #4]
1000203c:	f7ff fdfc 	bl	10001c38 <_ntoa_format>
10002040:	9a0c      	ldr	r2, [sp, #48]	@ 0x30
10002042:	0004      	movs	r4, r0
10002044:	2a00      	cmp	r2, #0
10002046:	d022      	beq.n	1000208e <_etoa+0x1e6>
10002048:	4642      	mov	r2, r8
1000204a:	1a85      	subs	r5, r0, r2
1000204c:	9a25      	ldr	r2, [sp, #148]	@ 0x94
1000204e:	42aa      	cmp	r2, r5
10002050:	d91d      	bls.n	1000208e <_etoa+0x1e6>
10002052:	46b0      	mov	r8, r6
10002054:	4657      	mov	r7, sl
10002056:	0016      	movs	r6, r2
10002058:	0022      	movs	r2, r4
1000205a:	4643      	mov	r3, r8
1000205c:	4649      	mov	r1, r9
1000205e:	2020      	movs	r0, #32
10002060:	3501      	adds	r5, #1
10002062:	47b8      	blx	r7
10002064:	3401      	adds	r4, #1
10002066:	42ae      	cmp	r6, r5
10002068:	d8f6      	bhi.n	10002058 <_etoa+0x1b0>
1000206a:	e010      	b.n	1000208e <_etoa+0x1e6>
1000206c:	9b26      	ldr	r3, [sp, #152]	@ 0x98
1000206e:	4642      	mov	r2, r8
10002070:	9304      	str	r3, [sp, #16]
10002072:	9b25      	ldr	r3, [sp, #148]	@ 0x94
10002074:	4649      	mov	r1, r9
10002076:	9303      	str	r3, [sp, #12]
10002078:	9b24      	ldr	r3, [sp, #144]	@ 0x90
1000207a:	4650      	mov	r0, sl
1000207c:	9302      	str	r3, [sp, #8]
1000207e:	9b22      	ldr	r3, [sp, #136]	@ 0x88
10002080:	9c23      	ldr	r4, [sp, #140]	@ 0x8c
10002082:	9300      	str	r3, [sp, #0]
10002084:	9401      	str	r4, [sp, #4]
10002086:	9b08      	ldr	r3, [sp, #32]
10002088:	f000 f940 	bl	1000230c <_ftoa>
1000208c:	0004      	movs	r4, r0
1000208e:	0020      	movs	r0, r4
10002090:	b019      	add	sp, #100	@ 0x64
10002092:	bcf0      	pop	{r4, r5, r6, r7}
10002094:	46bb      	mov	fp, r7
10002096:	46b2      	mov	sl, r6
10002098:	46a9      	mov	r9, r5
1000209a:	46a0      	mov	r8, r4
1000209c:	bdf0      	pop	{r4, r5, r6, r7, pc}
1000209e:	4b6a      	ldr	r3, [pc, #424]	@ (10002248 <_etoa+0x3a0>)
100020a0:	0078      	lsls	r0, r7, #1
100020a2:	469c      	mov	ip, r3
100020a4:	0d40      	lsrs	r0, r0, #21
100020a6:	4460      	add	r0, ip
100020a8:	f001 fc52 	bl	10003950 <__wrap___aeabi_i2d>
100020ac:	4a67      	ldr	r2, [pc, #412]	@ (1000224c <_etoa+0x3a4>)
100020ae:	4b68      	ldr	r3, [pc, #416]	@ (10002250 <_etoa+0x3a8>)
100020b0:	f001 fbe5 	bl	1000387e <__wrap___aeabi_dmul>
100020b4:	4a67      	ldr	r2, [pc, #412]	@ (10002254 <_etoa+0x3ac>)
100020b6:	4b68      	ldr	r3, [pc, #416]	@ (10002258 <_etoa+0x3b0>)
100020b8:	f001 fbba 	bl	10003830 <__wrap___aeabi_dadd>
100020bc:	4a67      	ldr	r2, [pc, #412]	@ (1000225c <_etoa+0x3b4>)
100020be:	033b      	lsls	r3, r7, #12
100020c0:	0b1b      	lsrs	r3, r3, #12
100020c2:	431a      	orrs	r2, r3
100020c4:	0004      	movs	r4, r0
100020c6:	000d      	movs	r5, r1
100020c8:	9809      	ldr	r0, [sp, #36]	@ 0x24
100020ca:	0011      	movs	r1, r2
100020cc:	4b64      	ldr	r3, [pc, #400]	@ (10002260 <_etoa+0x3b8>)
100020ce:	2200      	movs	r2, #0
100020d0:	f001 fba5 	bl	1000381e <__wrap___aeabi_dsub>
100020d4:	4a63      	ldr	r2, [pc, #396]	@ (10002264 <_etoa+0x3bc>)
100020d6:	4b64      	ldr	r3, [pc, #400]	@ (10002268 <_etoa+0x3c0>)
100020d8:	f001 fbd1 	bl	1000387e <__wrap___aeabi_dmul>
100020dc:	0002      	movs	r2, r0
100020de:	000b      	movs	r3, r1
100020e0:	0020      	movs	r0, r4
100020e2:	0029      	movs	r1, r5
100020e4:	f001 fba4 	bl	10003830 <__wrap___aeabi_dadd>
100020e8:	f001 fc4a 	bl	10003980 <__wrap___aeabi_d2iz>
100020ec:	9009      	str	r0, [sp, #36]	@ 0x24
100020ee:	f001 fc2f 	bl	10003950 <__wrap___aeabi_i2d>
100020f2:	4a5e      	ldr	r2, [pc, #376]	@ (1000226c <_etoa+0x3c4>)
100020f4:	4b5e      	ldr	r3, [pc, #376]	@ (10002270 <_etoa+0x3c8>)
100020f6:	0004      	movs	r4, r0
100020f8:	000d      	movs	r5, r1
100020fa:	f001 fbc0 	bl	1000387e <__wrap___aeabi_dmul>
100020fe:	2200      	movs	r2, #0
10002100:	4b5c      	ldr	r3, [pc, #368]	@ (10002274 <_etoa+0x3cc>)
10002102:	f001 fb95 	bl	10003830 <__wrap___aeabi_dadd>
10002106:	f001 fc3b 	bl	10003980 <__wrap___aeabi_d2iz>
1000210a:	4a5b      	ldr	r2, [pc, #364]	@ (10002278 <_etoa+0x3d0>)
1000210c:	4b5b      	ldr	r3, [pc, #364]	@ (1000227c <_etoa+0x3d4>)
1000210e:	0029      	movs	r1, r5
10002110:	900c      	str	r0, [sp, #48]	@ 0x30
10002112:	0020      	movs	r0, r4
10002114:	f001 fbb3 	bl	1000387e <__wrap___aeabi_dmul>
10002118:	0004      	movs	r4, r0
1000211a:	980c      	ldr	r0, [sp, #48]	@ 0x30
1000211c:	000d      	movs	r5, r1
1000211e:	f001 fc17 	bl	10003950 <__wrap___aeabi_i2d>
10002122:	4a57      	ldr	r2, [pc, #348]	@ (10002280 <_etoa+0x3d8>)
10002124:	4b57      	ldr	r3, [pc, #348]	@ (10002284 <_etoa+0x3dc>)
10002126:	f001 fbaa 	bl	1000387e <__wrap___aeabi_dmul>
1000212a:	0002      	movs	r2, r0
1000212c:	000b      	movs	r3, r1
1000212e:	0020      	movs	r0, r4
10002130:	0029      	movs	r1, r5
10002132:	f001 fb74 	bl	1000381e <__wrap___aeabi_dsub>
10002136:	0004      	movs	r4, r0
10002138:	000d      	movs	r5, r1
1000213a:	0002      	movs	r2, r0
1000213c:	000b      	movs	r3, r1
1000213e:	940a      	str	r4, [sp, #40]	@ 0x28
10002140:	950b      	str	r5, [sp, #44]	@ 0x2c
10002142:	f001 fb9c 	bl	1000387e <__wrap___aeabi_dmul>
10002146:	0004      	movs	r4, r0
10002148:	000d      	movs	r5, r1
1000214a:	980a      	ldr	r0, [sp, #40]	@ 0x28
1000214c:	990b      	ldr	r1, [sp, #44]	@ 0x2c
1000214e:	0002      	movs	r2, r0
10002150:	000b      	movs	r3, r1
10002152:	f001 fb6d 	bl	10003830 <__wrap___aeabi_dadd>
10002156:	2200      	movs	r2, #0
10002158:	900e      	str	r0, [sp, #56]	@ 0x38
1000215a:	910f      	str	r1, [sp, #60]	@ 0x3c
1000215c:	4b4a      	ldr	r3, [pc, #296]	@ (10002288 <_etoa+0x3e0>)
1000215e:	0020      	movs	r0, r4
10002160:	0029      	movs	r1, r5
10002162:	f001 fb6e 	bl	10003842 <__wrap___aeabi_ddiv>
10002166:	2200      	movs	r2, #0
10002168:	4b48      	ldr	r3, [pc, #288]	@ (1000228c <_etoa+0x3e4>)
1000216a:	f001 fb61 	bl	10003830 <__wrap___aeabi_dadd>
1000216e:	0002      	movs	r2, r0
10002170:	000b      	movs	r3, r1
10002172:	0020      	movs	r0, r4
10002174:	0029      	movs	r1, r5
10002176:	f001 fb64 	bl	10003842 <__wrap___aeabi_ddiv>
1000217a:	2200      	movs	r2, #0
1000217c:	4b44      	ldr	r3, [pc, #272]	@ (10002290 <_etoa+0x3e8>)
1000217e:	f001 fb57 	bl	10003830 <__wrap___aeabi_dadd>
10002182:	0002      	movs	r2, r0
10002184:	000b      	movs	r3, r1
10002186:	0020      	movs	r0, r4
10002188:	0029      	movs	r1, r5
1000218a:	f001 fb5a 	bl	10003842 <__wrap___aeabi_ddiv>
1000218e:	9a0a      	ldr	r2, [sp, #40]	@ 0x28
10002190:	9b0b      	ldr	r3, [sp, #44]	@ 0x2c
10002192:	000d      	movs	r5, r1
10002194:	2180      	movs	r1, #128	@ 0x80
10002196:	0004      	movs	r4, r0
10002198:	05c9      	lsls	r1, r1, #23
1000219a:	2000      	movs	r0, #0
1000219c:	f001 fb3f 	bl	1000381e <__wrap___aeabi_dsub>
100021a0:	0002      	movs	r2, r0
100021a2:	000b      	movs	r3, r1
100021a4:	0020      	movs	r0, r4
100021a6:	0029      	movs	r1, r5
100021a8:	f001 fb42 	bl	10003830 <__wrap___aeabi_dadd>
100021ac:	0002      	movs	r2, r0
100021ae:	000b      	movs	r3, r1
100021b0:	980e      	ldr	r0, [sp, #56]	@ 0x38
100021b2:	990f      	ldr	r1, [sp, #60]	@ 0x3c
100021b4:	f001 fb45 	bl	10003842 <__wrap___aeabi_ddiv>
100021b8:	2200      	movs	r2, #0
100021ba:	4b28      	ldr	r3, [pc, #160]	@ (1000225c <_etoa+0x3b4>)
100021bc:	f001 fb38 	bl	10003830 <__wrap___aeabi_dadd>
100021c0:	4b34      	ldr	r3, [pc, #208]	@ (10002294 <_etoa+0x3ec>)
100021c2:	9c0c      	ldr	r4, [sp, #48]	@ 0x30
100021c4:	469c      	mov	ip, r3
100021c6:	4464      	add	r4, ip
100021c8:	0523      	lsls	r3, r4, #20
100021ca:	2200      	movs	r2, #0
100021cc:	f001 fb57 	bl	1000387e <__wrap___aeabi_dmul>
100021d0:	0004      	movs	r4, r0
100021d2:	000d      	movs	r5, r1
100021d4:	0002      	movs	r2, r0
100021d6:	000b      	movs	r3, r1
100021d8:	0030      	movs	r0, r6
100021da:	0039      	movs	r1, r7
100021dc:	940a      	str	r4, [sp, #40]	@ 0x28
100021de:	950b      	str	r5, [sp, #44]	@ 0x2c
100021e0:	f001 fb90 	bl	10003904 <__wrap___aeabi_dcmplt>
100021e4:	2800      	cmp	r0, #0
100021e6:	d15d      	bne.n	100022a4 <_etoa+0x3fc>
100021e8:	0023      	movs	r3, r4
100021ea:	002a      	movs	r2, r5
100021ec:	25c6      	movs	r5, #198	@ 0xc6
100021ee:	9909      	ldr	r1, [sp, #36]	@ 0x24
100021f0:	3163      	adds	r1, #99	@ 0x63
100021f2:	428d      	cmp	r5, r1
100021f4:	41ad      	sbcs	r5, r5
100021f6:	4659      	mov	r1, fp
100021f8:	426d      	negs	r5, r5
100021fa:	3504      	adds	r5, #4
100021fc:	2900      	cmp	r1, #0
100021fe:	d100      	bne.n	10002202 <_etoa+0x35a>
10002200:	e6a3      	b.n	10001f4a <_etoa+0xa2>
10002202:	4313      	orrs	r3, r2
10002204:	d063      	beq.n	100022ce <_etoa+0x426>
10002206:	0030      	movs	r0, r6
10002208:	0039      	movs	r1, r7
1000220a:	4a23      	ldr	r2, [pc, #140]	@ (10002298 <_etoa+0x3f0>)
1000220c:	4b23      	ldr	r3, [pc, #140]	@ (1000229c <_etoa+0x3f4>)
1000220e:	f001 fb7f 	bl	10003910 <__wrap___aeabi_dcmpge>
10002212:	2800      	cmp	r0, #0
10002214:	d007      	beq.n	10002226 <_etoa+0x37e>
10002216:	2200      	movs	r2, #0
10002218:	0030      	movs	r0, r6
1000221a:	0039      	movs	r1, r7
1000221c:	4b20      	ldr	r3, [pc, #128]	@ (100022a0 <_etoa+0x3f8>)
1000221e:	f001 fb71 	bl	10003904 <__wrap___aeabi_dcmplt>
10002222:	2800      	cmp	r0, #0
10002224:	d153      	bne.n	100022ce <_etoa+0x426>
10002226:	9b24      	ldr	r3, [sp, #144]	@ 0x90
10002228:	2b00      	cmp	r3, #0
1000222a:	d100      	bne.n	1000222e <_etoa+0x386>
1000222c:	e68d      	b.n	10001f4a <_etoa+0xa2>
1000222e:	9b0d      	ldr	r3, [sp, #52]	@ 0x34
10002230:	1e5a      	subs	r2, r3, #1
10002232:	4193      	sbcs	r3, r2
10002234:	9a24      	ldr	r2, [sp, #144]	@ 0x90
10002236:	1ad3      	subs	r3, r2, r3
10002238:	9324      	str	r3, [sp, #144]	@ 0x90
1000223a:	e686      	b.n	10001f4a <_etoa+0xa2>
1000223c:	7fefffff 	.word	0x7fefffff
10002240:	ffefffff 	.word	0xffefffff
10002244:	fffff7ff 	.word	0xfffff7ff
10002248:	fffffc01 	.word	0xfffffc01
1000224c:	509f79fb 	.word	0x509f79fb
10002250:	3fd34413 	.word	0x3fd34413
10002254:	8b60c8b3 	.word	0x8b60c8b3
10002258:	3fc68a28 	.word	0x3fc68a28
1000225c:	3ff00000 	.word	0x3ff00000
10002260:	3ff80000 	.word	0x3ff80000
10002264:	636f4361 	.word	0x636f4361
10002268:	3fd287a7 	.word	0x3fd287a7
1000226c:	0979a371 	.word	0x0979a371
10002270:	400a934f 	.word	0x400a934f
10002274:	3fe00000 	.word	0x3fe00000
10002278:	bbb55516 	.word	0xbbb55516
1000227c:	40026bb1 	.word	0x40026bb1
10002280:	fefa39ef 	.word	0xfefa39ef
10002284:	3fe62e42 	.word	0x3fe62e42
10002288:	402c0000 	.word	0x402c0000
1000228c:	40240000 	.word	0x40240000
10002290:	40180000 	.word	0x40180000
10002294:	000003ff 	.word	0x000003ff
10002298:	eb1c432d 	.word	0xeb1c432d
1000229c:	3f1a36e2 	.word	0x3f1a36e2
100022a0:	412e8480 	.word	0x412e8480
100022a4:	9b09      	ldr	r3, [sp, #36]	@ 0x24
100022a6:	2200      	movs	r2, #0
100022a8:	3b01      	subs	r3, #1
100022aa:	9309      	str	r3, [sp, #36]	@ 0x24
100022ac:	0020      	movs	r0, r4
100022ae:	4b16      	ldr	r3, [pc, #88]	@ (10002308 <_etoa+0x460>)
100022b0:	0029      	movs	r1, r5
100022b2:	f001 fac6 	bl	10003842 <__wrap___aeabi_ddiv>
100022b6:	000a      	movs	r2, r1
100022b8:	0001      	movs	r1, r0
100022ba:	0003      	movs	r3, r0
100022bc:	910a      	str	r1, [sp, #40]	@ 0x28
100022be:	920b      	str	r2, [sp, #44]	@ 0x2c
100022c0:	e794      	b.n	100021ec <_etoa+0x344>
100022c2:	2300      	movs	r3, #0
100022c4:	2400      	movs	r4, #0
100022c6:	930a      	str	r3, [sp, #40]	@ 0x28
100022c8:	940b      	str	r4, [sp, #44]	@ 0x2c
100022ca:	2300      	movs	r3, #0
100022cc:	9309      	str	r3, [sp, #36]	@ 0x24
100022ce:	9a24      	ldr	r2, [sp, #144]	@ 0x90
100022d0:	9b09      	ldr	r3, [sp, #36]	@ 0x24
100022d2:	429a      	cmp	r2, r3
100022d4:	dd14      	ble.n	10002300 <_etoa+0x458>
100022d6:	1ad3      	subs	r3, r2, r3
100022d8:	3b01      	subs	r3, #1
100022da:	9324      	str	r3, [sp, #144]	@ 0x90
100022dc:	2380      	movs	r3, #128	@ 0x80
100022de:	9a26      	ldr	r2, [sp, #152]	@ 0x98
100022e0:	00db      	lsls	r3, r3, #3
100022e2:	431a      	orrs	r2, r3
100022e4:	2300      	movs	r3, #0
100022e6:	2500      	movs	r5, #0
100022e8:	9226      	str	r2, [sp, #152]	@ 0x98
100022ea:	9309      	str	r3, [sp, #36]	@ 0x24
100022ec:	e62d      	b.n	10001f4a <_etoa+0xa2>
100022ee:	2280      	movs	r2, #128	@ 0x80
100022f0:	0612      	lsls	r2, r2, #24
100022f2:	4694      	mov	ip, r2
100022f4:	9b22      	ldr	r3, [sp, #136]	@ 0x88
100022f6:	001e      	movs	r6, r3
100022f8:	9b23      	ldr	r3, [sp, #140]	@ 0x8c
100022fa:	4463      	add	r3, ip
100022fc:	001f      	movs	r7, r3
100022fe:	e606      	b.n	10001f0e <_etoa+0x66>
10002300:	2300      	movs	r3, #0
10002302:	9324      	str	r3, [sp, #144]	@ 0x90
10002304:	e7ea      	b.n	100022dc <_etoa+0x434>
10002306:	46c0      	nop			@ (mov r8, r8)
10002308:	40240000 	.word	0x40240000

1000230c <_ftoa>:
1000230c:	b5f0      	push	{r4, r5, r6, r7, lr}
1000230e:	4645      	mov	r5, r8
10002310:	46de      	mov	lr, fp
10002312:	464e      	mov	r6, r9
10002314:	4657      	mov	r7, sl
10002316:	b5e0      	push	{r5, r6, r7, lr}
10002318:	b095      	sub	sp, #84	@ 0x54
1000231a:	468b      	mov	fp, r1
1000231c:	4690      	mov	r8, r2
1000231e:	4699      	mov	r9, r3
10002320:	9a1e      	ldr	r2, [sp, #120]	@ 0x78
10002322:	9b1f      	ldr	r3, [sp, #124]	@ 0x7c
10002324:	900a      	str	r0, [sp, #40]	@ 0x28
10002326:	0019      	movs	r1, r3
10002328:	0010      	movs	r0, r2
1000232a:	9d20      	ldr	r5, [sp, #128]	@ 0x80
1000232c:	f001 fafd 	bl	1000392a <__wrap___aeabi_dcmpun>
10002330:	2800      	cmp	r0, #0
10002332:	d000      	beq.n	10002336 <_ftoa+0x2a>
10002334:	e1b0      	b.n	10002698 <_ftoa+0x38c>
10002336:	981e      	ldr	r0, [sp, #120]	@ 0x78
10002338:	991f      	ldr	r1, [sp, #124]	@ 0x7c
1000233a:	2201      	movs	r2, #1
1000233c:	4bc7      	ldr	r3, [pc, #796]	@ (1000265c <_ftoa+0x350>)
1000233e:	4252      	negs	r2, r2
10002340:	f001 fae0 	bl	10003904 <__wrap___aeabi_dcmplt>
10002344:	2800      	cmp	r0, #0
10002346:	d000      	beq.n	1000234a <_ftoa+0x3e>
10002348:	e137      	b.n	100025ba <_ftoa+0x2ae>
1000234a:	981e      	ldr	r0, [sp, #120]	@ 0x78
1000234c:	991f      	ldr	r1, [sp, #124]	@ 0x7c
1000234e:	2201      	movs	r2, #1
10002350:	4bc3      	ldr	r3, [pc, #780]	@ (10002660 <_ftoa+0x354>)
10002352:	4252      	negs	r2, r2
10002354:	f001 fae4 	bl	10003920 <__wrap___aeabi_dcmpgt>
10002358:	2800      	cmp	r0, #0
1000235a:	d000      	beq.n	1000235e <_ftoa+0x52>
1000235c:	e0a7      	b.n	100024ae <_ftoa+0x1a2>
1000235e:	981e      	ldr	r0, [sp, #120]	@ 0x78
10002360:	991f      	ldr	r1, [sp, #124]	@ 0x7c
10002362:	2200      	movs	r2, #0
10002364:	4bbf      	ldr	r3, [pc, #764]	@ (10002664 <_ftoa+0x358>)
10002366:	f001 fadb 	bl	10003920 <__wrap___aeabi_dcmpgt>
1000236a:	2800      	cmp	r0, #0
1000236c:	d000      	beq.n	10002370 <_ftoa+0x64>
1000236e:	e088      	b.n	10002482 <_ftoa+0x176>
10002370:	981e      	ldr	r0, [sp, #120]	@ 0x78
10002372:	991f      	ldr	r1, [sp, #124]	@ 0x7c
10002374:	2200      	movs	r2, #0
10002376:	4bbc      	ldr	r3, [pc, #752]	@ (10002668 <_ftoa+0x35c>)
10002378:	f001 fac4 	bl	10003904 <__wrap___aeabi_dcmplt>
1000237c:	2800      	cmp	r0, #0
1000237e:	d000      	beq.n	10002382 <_ftoa+0x76>
10002380:	e07f      	b.n	10002482 <_ftoa+0x176>
10002382:	981e      	ldr	r0, [sp, #120]	@ 0x78
10002384:	991f      	ldr	r1, [sp, #124]	@ 0x7c
10002386:	2200      	movs	r2, #0
10002388:	2300      	movs	r3, #0
1000238a:	f001 fabb 	bl	10003904 <__wrap___aeabi_dcmplt>
1000238e:	2800      	cmp	r0, #0
10002390:	d000      	beq.n	10002394 <_ftoa+0x88>
10002392:	e0fa      	b.n	1000258a <_ftoa+0x27e>
10002394:	2300      	movs	r3, #0
10002396:	930b      	str	r3, [sp, #44]	@ 0x2c
10002398:	2380      	movs	r3, #128	@ 0x80
1000239a:	9c22      	ldr	r4, [sp, #136]	@ 0x88
1000239c:	9a22      	ldr	r2, [sp, #136]	@ 0x88
1000239e:	00db      	lsls	r3, r3, #3
100023a0:	401c      	ands	r4, r3
100023a2:	421a      	tst	r2, r3
100023a4:	d100      	bne.n	100023a8 <_ftoa+0x9c>
100023a6:	e102      	b.n	100025ae <_ftoa+0x2a2>
100023a8:	2d09      	cmp	r5, #9
100023aa:	d800      	bhi.n	100023ae <_ftoa+0xa2>
100023ac:	e17c      	b.n	100026a8 <_ftoa+0x39c>
100023ae:	a906      	add	r1, sp, #24
100023b0:	468c      	mov	ip, r1
100023b2:	002c      	movs	r4, r5
100023b4:	2217      	movs	r2, #23
100023b6:	2300      	movs	r3, #0
100023b8:	2130      	movs	r1, #48	@ 0x30
100023ba:	3c09      	subs	r4, #9
100023bc:	4462      	add	r2, ip
100023be:	3301      	adds	r3, #1
100023c0:	54d1      	strb	r1, [r2, r3]
100023c2:	1aef      	subs	r7, r5, r3
100023c4:	2b20      	cmp	r3, #32
100023c6:	d100      	bne.n	100023ca <_ftoa+0xbe>
100023c8:	e132      	b.n	10002630 <_ftoa+0x324>
100023ca:	42a3      	cmp	r3, r4
100023cc:	d1f7      	bne.n	100023be <_ftoa+0xb2>
100023ce:	2200      	movs	r2, #0
100023d0:	4ba4      	ldr	r3, [pc, #656]	@ (10002664 <_ftoa+0x358>)
100023d2:	9206      	str	r2, [sp, #24]
100023d4:	9307      	str	r3, [sp, #28]
100023d6:	981e      	ldr	r0, [sp, #120]	@ 0x78
100023d8:	991f      	ldr	r1, [sp, #124]	@ 0x7c
100023da:	f001 fad1 	bl	10003980 <__wrap___aeabi_d2iz>
100023de:	0005      	movs	r5, r0
100023e0:	f001 fab6 	bl	10003950 <__wrap___aeabi_i2d>
100023e4:	0002      	movs	r2, r0
100023e6:	000b      	movs	r3, r1
100023e8:	981e      	ldr	r0, [sp, #120]	@ 0x78
100023ea:	991f      	ldr	r1, [sp, #124]	@ 0x7c
100023ec:	f001 fa17 	bl	1000381e <__wrap___aeabi_dsub>
100023f0:	9a06      	ldr	r2, [sp, #24]
100023f2:	9b07      	ldr	r3, [sp, #28]
100023f4:	f001 fa43 	bl	1000387e <__wrap___aeabi_dmul>
100023f8:	9008      	str	r0, [sp, #32]
100023fa:	9109      	str	r1, [sp, #36]	@ 0x24
100023fc:	f001 fae4 	bl	100039c8 <__wrap___aeabi_d2uiz>
10002400:	0006      	movs	r6, r0
10002402:	f001 faa1 	bl	10003948 <__wrap___aeabi_ui2d>
10002406:	0002      	movs	r2, r0
10002408:	000b      	movs	r3, r1
1000240a:	9808      	ldr	r0, [sp, #32]
1000240c:	9909      	ldr	r1, [sp, #36]	@ 0x24
1000240e:	f001 fa06 	bl	1000381e <__wrap___aeabi_dsub>
10002412:	2200      	movs	r2, #0
10002414:	4b95      	ldr	r3, [pc, #596]	@ (1000266c <_ftoa+0x360>)
10002416:	9008      	str	r0, [sp, #32]
10002418:	9109      	str	r1, [sp, #36]	@ 0x24
1000241a:	f001 fa81 	bl	10003920 <__wrap___aeabi_dcmpgt>
1000241e:	2800      	cmp	r0, #0
10002420:	d100      	bne.n	10002424 <_ftoa+0x118>
10002422:	e0d2      	b.n	100025ca <_ftoa+0x2be>
10002424:	3601      	adds	r6, #1
10002426:	0030      	movs	r0, r6
10002428:	f001 fa8e 	bl	10003948 <__wrap___aeabi_ui2d>
1000242c:	9a06      	ldr	r2, [sp, #24]
1000242e:	9b07      	ldr	r3, [sp, #28]
10002430:	f001 fa6e 	bl	10003910 <__wrap___aeabi_dcmpge>
10002434:	2800      	cmp	r0, #0
10002436:	d001      	beq.n	1000243c <_ftoa+0x130>
10002438:	2600      	movs	r6, #0
1000243a:	3501      	adds	r5, #1
1000243c:	46aa      	mov	sl, r5
1000243e:	2f00      	cmp	r7, #0
10002440:	d000      	beq.n	10002444 <_ftoa+0x138>
10002442:	e098      	b.n	10002576 <_ftoa+0x26a>
10002444:	0028      	movs	r0, r5
10002446:	f001 fa83 	bl	10003950 <__wrap___aeabi_i2d>
1000244a:	0002      	movs	r2, r0
1000244c:	000b      	movs	r3, r1
1000244e:	981e      	ldr	r0, [sp, #120]	@ 0x78
10002450:	991f      	ldr	r1, [sp, #124]	@ 0x7c
10002452:	f001 f9e4 	bl	1000381e <__wrap___aeabi_dsub>
10002456:	4b85      	ldr	r3, [pc, #532]	@ (1000266c <_ftoa+0x360>)
10002458:	2200      	movs	r2, #0
1000245a:	0006      	movs	r6, r0
1000245c:	000f      	movs	r7, r1
1000245e:	f001 fa51 	bl	10003904 <__wrap___aeabi_dcmplt>
10002462:	ab0c      	add	r3, sp, #48	@ 0x30
10002464:	469a      	mov	sl, r3
10002466:	2800      	cmp	r0, #0
10002468:	d145      	bne.n	100024f6 <_ftoa+0x1ea>
1000246a:	2200      	movs	r2, #0
1000246c:	0030      	movs	r0, r6
1000246e:	0039      	movs	r1, r7
10002470:	4b7e      	ldr	r3, [pc, #504]	@ (1000266c <_ftoa+0x360>)
10002472:	f001 fa55 	bl	10003920 <__wrap___aeabi_dcmpgt>
10002476:	2800      	cmp	r0, #0
10002478:	d13d      	bne.n	100024f6 <_ftoa+0x1ea>
1000247a:	07eb      	lsls	r3, r5, #31
1000247c:	d53b      	bpl.n	100024f6 <_ftoa+0x1ea>
1000247e:	3501      	adds	r5, #1
10002480:	e039      	b.n	100024f6 <_ftoa+0x1ea>
10002482:	9b22      	ldr	r3, [sp, #136]	@ 0x88
10002484:	4642      	mov	r2, r8
10002486:	9304      	str	r3, [sp, #16]
10002488:	9b21      	ldr	r3, [sp, #132]	@ 0x84
1000248a:	4659      	mov	r1, fp
1000248c:	9303      	str	r3, [sp, #12]
1000248e:	980a      	ldr	r0, [sp, #40]	@ 0x28
10002490:	9b1e      	ldr	r3, [sp, #120]	@ 0x78
10002492:	9c1f      	ldr	r4, [sp, #124]	@ 0x7c
10002494:	9502      	str	r5, [sp, #8]
10002496:	9300      	str	r3, [sp, #0]
10002498:	9401      	str	r4, [sp, #4]
1000249a:	464b      	mov	r3, r9
1000249c:	f7ff fd04 	bl	10001ea8 <_etoa>
100024a0:	b015      	add	sp, #84	@ 0x54
100024a2:	bcf0      	pop	{r4, r5, r6, r7}
100024a4:	46bb      	mov	fp, r7
100024a6:	46b2      	mov	sl, r6
100024a8:	46a9      	mov	r9, r5
100024aa:	46a0      	mov	r8, r4
100024ac:	bdf0      	pop	{r4, r5, r6, r7, pc}
100024ae:	9b22      	ldr	r3, [sp, #136]	@ 0x88
100024b0:	075b      	lsls	r3, r3, #29
100024b2:	d467      	bmi.n	10002584 <_ftoa+0x278>
100024b4:	2203      	movs	r2, #3
100024b6:	4b6e      	ldr	r3, [pc, #440]	@ (10002670 <_ftoa+0x364>)
100024b8:	9922      	ldr	r1, [sp, #136]	@ 0x88
100024ba:	9201      	str	r2, [sp, #4]
100024bc:	9103      	str	r1, [sp, #12]
100024be:	9921      	ldr	r1, [sp, #132]	@ 0x84
100024c0:	9102      	str	r1, [sp, #8]
100024c2:	9300      	str	r3, [sp, #0]
100024c4:	4642      	mov	r2, r8
100024c6:	464b      	mov	r3, r9
100024c8:	4659      	mov	r1, fp
100024ca:	980a      	ldr	r0, [sp, #40]	@ 0x28
100024cc:	f7ff fb5e 	bl	10001b8c <_out_rev>
100024d0:	e7e6      	b.n	100024a0 <_ftoa+0x194>
100024d2:	aa06      	add	r2, sp, #24
100024d4:	4694      	mov	ip, r2
100024d6:	2317      	movs	r3, #23
100024d8:	0028      	movs	r0, r5
100024da:	4463      	add	r3, ip
100024dc:	210a      	movs	r1, #10
100024de:	3401      	adds	r4, #1
100024e0:	191e      	adds	r6, r3, r4
100024e2:	f000 ff39 	bl	10003358 <__wrap___aeabi_idiv>
100024e6:	3130      	adds	r1, #48	@ 0x30
100024e8:	0028      	movs	r0, r5
100024ea:	7031      	strb	r1, [r6, #0]
100024ec:	210a      	movs	r1, #10
100024ee:	f000 ff33 	bl	10003358 <__wrap___aeabi_idiv>
100024f2:	1e05      	subs	r5, r0, #0
100024f4:	d076      	beq.n	100025e4 <_ftoa+0x2d8>
100024f6:	2c20      	cmp	r4, #32
100024f8:	d1eb      	bne.n	100024d2 <_ftoa+0x1c6>
100024fa:	2303      	movs	r3, #3
100024fc:	9a22      	ldr	r2, [sp, #136]	@ 0x88
100024fe:	4013      	ands	r3, r2
10002500:	2b01      	cmp	r3, #1
10002502:	d11d      	bne.n	10002540 <_ftoa+0x234>
10002504:	9b21      	ldr	r3, [sp, #132]	@ 0x84
10002506:	2b00      	cmp	r3, #0
10002508:	d01a      	beq.n	10002540 <_ftoa+0x234>
1000250a:	9b0b      	ldr	r3, [sp, #44]	@ 0x2c
1000250c:	2b00      	cmp	r3, #0
1000250e:	d000      	beq.n	10002512 <_ftoa+0x206>
10002510:	e0bb      	b.n	1000268a <_ftoa+0x37e>
10002512:	9a22      	ldr	r2, [sp, #136]	@ 0x88
10002514:	330c      	adds	r3, #12
10002516:	4213      	tst	r3, r2
10002518:	d000      	beq.n	1000251c <_ftoa+0x210>
1000251a:	e0b6      	b.n	1000268a <_ftoa+0x37e>
1000251c:	9b21      	ldr	r3, [sp, #132]	@ 0x84
1000251e:	42a3      	cmp	r3, r4
10002520:	d800      	bhi.n	10002524 <_ftoa+0x218>
10002522:	e087      	b.n	10002634 <_ftoa+0x328>
10002524:	ab06      	add	r3, sp, #24
10002526:	469c      	mov	ip, r3
10002528:	2217      	movs	r2, #23
1000252a:	2330      	movs	r3, #48	@ 0x30
1000252c:	4462      	add	r2, ip
1000252e:	e004      	b.n	1000253a <_ftoa+0x22e>
10002530:	9921      	ldr	r1, [sp, #132]	@ 0x84
10002532:	3401      	adds	r4, #1
10002534:	5513      	strb	r3, [r2, r4]
10002536:	428c      	cmp	r4, r1
10002538:	d059      	beq.n	100025ee <_ftoa+0x2e2>
1000253a:	2c20      	cmp	r4, #32
1000253c:	d1f8      	bne.n	10002530 <_ftoa+0x224>
1000253e:	2420      	movs	r4, #32
10002540:	9b22      	ldr	r3, [sp, #136]	@ 0x88
10002542:	9401      	str	r4, [sp, #4]
10002544:	9303      	str	r3, [sp, #12]
10002546:	9b21      	ldr	r3, [sp, #132]	@ 0x84
10002548:	9302      	str	r3, [sp, #8]
1000254a:	4653      	mov	r3, sl
1000254c:	e7b9      	b.n	100024c2 <_ftoa+0x1b6>
1000254e:	aa06      	add	r2, sp, #24
10002550:	4694      	mov	ip, r2
10002552:	2317      	movs	r3, #23
10002554:	210a      	movs	r1, #10
10002556:	4463      	add	r3, ip
10002558:	0030      	movs	r0, r6
1000255a:	3401      	adds	r4, #1
1000255c:	191d      	adds	r5, r3, r4
1000255e:	f000 ff23 	bl	100033a8 <__wrap___aeabi_uidiv>
10002562:	3130      	adds	r1, #48	@ 0x30
10002564:	7029      	strb	r1, [r5, #0]
10002566:	0030      	movs	r0, r6
10002568:	210a      	movs	r1, #10
1000256a:	3f01      	subs	r7, #1
1000256c:	f000 ff1c 	bl	100033a8 <__wrap___aeabi_uidiv>
10002570:	2e09      	cmp	r6, #9
10002572:	d946      	bls.n	10002602 <_ftoa+0x2f6>
10002574:	0006      	movs	r6, r0
10002576:	2c20      	cmp	r4, #32
10002578:	d1e9      	bne.n	1000254e <_ftoa+0x242>
1000257a:	4655      	mov	r5, sl
1000257c:	ab0c      	add	r3, sp, #48	@ 0x30
1000257e:	2420      	movs	r4, #32
10002580:	469a      	mov	sl, r3
10002582:	e7b8      	b.n	100024f6 <_ftoa+0x1ea>
10002584:	2204      	movs	r2, #4
10002586:	4b3b      	ldr	r3, [pc, #236]	@ (10002674 <_ftoa+0x368>)
10002588:	e796      	b.n	100024b8 <_ftoa+0x1ac>
1000258a:	9a1e      	ldr	r2, [sp, #120]	@ 0x78
1000258c:	9b1f      	ldr	r3, [sp, #124]	@ 0x7c
1000258e:	2000      	movs	r0, #0
10002590:	2100      	movs	r1, #0
10002592:	f001 f944 	bl	1000381e <__wrap___aeabi_dsub>
10002596:	2301      	movs	r3, #1
10002598:	930b      	str	r3, [sp, #44]	@ 0x2c
1000259a:	2380      	movs	r3, #128	@ 0x80
1000259c:	9c22      	ldr	r4, [sp, #136]	@ 0x88
1000259e:	9a22      	ldr	r2, [sp, #136]	@ 0x88
100025a0:	00db      	lsls	r3, r3, #3
100025a2:	901e      	str	r0, [sp, #120]	@ 0x78
100025a4:	911f      	str	r1, [sp, #124]	@ 0x7c
100025a6:	401c      	ands	r4, r3
100025a8:	421a      	tst	r2, r3
100025aa:	d000      	beq.n	100025ae <_ftoa+0x2a2>
100025ac:	e6fc      	b.n	100023a8 <_ftoa+0x9c>
100025ae:	2200      	movs	r2, #0
100025b0:	4b31      	ldr	r3, [pc, #196]	@ (10002678 <_ftoa+0x36c>)
100025b2:	2706      	movs	r7, #6
100025b4:	9206      	str	r2, [sp, #24]
100025b6:	9307      	str	r3, [sp, #28]
100025b8:	e70d      	b.n	100023d6 <_ftoa+0xca>
100025ba:	9b22      	ldr	r3, [sp, #136]	@ 0x88
100025bc:	9303      	str	r3, [sp, #12]
100025be:	9b21      	ldr	r3, [sp, #132]	@ 0x84
100025c0:	9302      	str	r3, [sp, #8]
100025c2:	2304      	movs	r3, #4
100025c4:	9301      	str	r3, [sp, #4]
100025c6:	4b2d      	ldr	r3, [pc, #180]	@ (1000267c <_ftoa+0x370>)
100025c8:	e77b      	b.n	100024c2 <_ftoa+0x1b6>
100025ca:	2200      	movs	r2, #0
100025cc:	9808      	ldr	r0, [sp, #32]
100025ce:	9909      	ldr	r1, [sp, #36]	@ 0x24
100025d0:	4b26      	ldr	r3, [pc, #152]	@ (1000266c <_ftoa+0x360>)
100025d2:	f001 f997 	bl	10003904 <__wrap___aeabi_dcmplt>
100025d6:	2800      	cmp	r0, #0
100025d8:	d000      	beq.n	100025dc <_ftoa+0x2d0>
100025da:	e72f      	b.n	1000243c <_ftoa+0x130>
100025dc:	2e00      	cmp	r6, #0
100025de:	d14f      	bne.n	10002680 <_ftoa+0x374>
100025e0:	3601      	adds	r6, #1
100025e2:	e72b      	b.n	1000243c <_ftoa+0x130>
100025e4:	2303      	movs	r3, #3
100025e6:	9a22      	ldr	r2, [sp, #136]	@ 0x88
100025e8:	4013      	ands	r3, r2
100025ea:	2b01      	cmp	r3, #1
100025ec:	d066      	beq.n	100026bc <_ftoa+0x3b0>
100025ee:	2c20      	cmp	r4, #32
100025f0:	d0a6      	beq.n	10002540 <_ftoa+0x234>
100025f2:	9b0b      	ldr	r3, [sp, #44]	@ 0x2c
100025f4:	2b00      	cmp	r3, #0
100025f6:	d01f      	beq.n	10002638 <_ftoa+0x32c>
100025f8:	232d      	movs	r3, #45	@ 0x2d
100025fa:	4652      	mov	r2, sl
100025fc:	5513      	strb	r3, [r2, r4]
100025fe:	3401      	adds	r4, #1
10002600:	e79e      	b.n	10002540 <_ftoa+0x234>
10002602:	4655      	mov	r5, sl
10002604:	2c20      	cmp	r4, #32
10002606:	d0b9      	beq.n	1000257c <_ftoa+0x270>
10002608:	2330      	movs	r3, #48	@ 0x30
1000260a:	193a      	adds	r2, r7, r4
1000260c:	2f00      	cmp	r7, #0
1000260e:	d008      	beq.n	10002622 <_ftoa+0x316>
10002610:	2017      	movs	r0, #23
10002612:	a906      	add	r1, sp, #24
10002614:	3401      	adds	r4, #1
10002616:	1809      	adds	r1, r1, r0
10002618:	550b      	strb	r3, [r1, r4]
1000261a:	2c20      	cmp	r4, #32
1000261c:	d0ae      	beq.n	1000257c <_ftoa+0x270>
1000261e:	4294      	cmp	r4, r2
10002620:	d1f6      	bne.n	10002610 <_ftoa+0x304>
10002622:	ab0c      	add	r3, sp, #48	@ 0x30
10002624:	469a      	mov	sl, r3
10002626:	232e      	movs	r3, #46	@ 0x2e
10002628:	4652      	mov	r2, sl
1000262a:	5513      	strb	r3, [r2, r4]
1000262c:	3401      	adds	r4, #1
1000262e:	e762      	b.n	100024f6 <_ftoa+0x1ea>
10002630:	2420      	movs	r4, #32
10002632:	e6cc      	b.n	100023ce <_ftoa+0xc2>
10002634:	2c20      	cmp	r4, #32
10002636:	d083      	beq.n	10002540 <_ftoa+0x234>
10002638:	9b22      	ldr	r3, [sp, #136]	@ 0x88
1000263a:	075b      	lsls	r3, r3, #29
1000263c:	d408      	bmi.n	10002650 <_ftoa+0x344>
1000263e:	9b22      	ldr	r3, [sp, #136]	@ 0x88
10002640:	071b      	lsls	r3, r3, #28
10002642:	d400      	bmi.n	10002646 <_ftoa+0x33a>
10002644:	e77c      	b.n	10002540 <_ftoa+0x234>
10002646:	2320      	movs	r3, #32
10002648:	4652      	mov	r2, sl
1000264a:	5513      	strb	r3, [r2, r4]
1000264c:	3401      	adds	r4, #1
1000264e:	e777      	b.n	10002540 <_ftoa+0x234>
10002650:	232b      	movs	r3, #43	@ 0x2b
10002652:	4652      	mov	r2, sl
10002654:	5513      	strb	r3, [r2, r4]
10002656:	3401      	adds	r4, #1
10002658:	e772      	b.n	10002540 <_ftoa+0x234>
1000265a:	46c0      	nop			@ (mov r8, r8)
1000265c:	ffefffff 	.word	0xffefffff
10002660:	7fefffff 	.word	0x7fefffff
10002664:	41cdcd65 	.word	0x41cdcd65
10002668:	c1cdcd65 	.word	0xc1cdcd65
1000266c:	3fe00000 	.word	0x3fe00000
10002670:	10004508 	.word	0x10004508
10002674:	10004500 	.word	0x10004500
10002678:	412e8480 	.word	0x412e8480
1000267c:	10004510 	.word	0x10004510
10002680:	07f3      	lsls	r3, r6, #31
10002682:	d400      	bmi.n	10002686 <_ftoa+0x37a>
10002684:	e6da      	b.n	1000243c <_ftoa+0x130>
10002686:	3601      	adds	r6, #1
10002688:	e6d8      	b.n	1000243c <_ftoa+0x130>
1000268a:	9b21      	ldr	r3, [sp, #132]	@ 0x84
1000268c:	3b01      	subs	r3, #1
1000268e:	9321      	str	r3, [sp, #132]	@ 0x84
10002690:	42a3      	cmp	r3, r4
10002692:	d900      	bls.n	10002696 <_ftoa+0x38a>
10002694:	e746      	b.n	10002524 <_ftoa+0x218>
10002696:	e7aa      	b.n	100025ee <_ftoa+0x2e2>
10002698:	9b22      	ldr	r3, [sp, #136]	@ 0x88
1000269a:	9303      	str	r3, [sp, #12]
1000269c:	9b21      	ldr	r3, [sp, #132]	@ 0x84
1000269e:	9302      	str	r3, [sp, #8]
100026a0:	2303      	movs	r3, #3
100026a2:	9301      	str	r3, [sp, #4]
100026a4:	4b07      	ldr	r3, [pc, #28]	@ (100026c4 <_ftoa+0x3b8>)
100026a6:	e70c      	b.n	100024c2 <_ftoa+0x1b6>
100026a8:	4b07      	ldr	r3, [pc, #28]	@ (100026c8 <_ftoa+0x3bc>)
100026aa:	00ea      	lsls	r2, r5, #3
100026ac:	189b      	adds	r3, r3, r2
100026ae:	685c      	ldr	r4, [r3, #4]
100026b0:	681b      	ldr	r3, [r3, #0]
100026b2:	002f      	movs	r7, r5
100026b4:	9306      	str	r3, [sp, #24]
100026b6:	9407      	str	r4, [sp, #28]
100026b8:	2400      	movs	r4, #0
100026ba:	e68c      	b.n	100023d6 <_ftoa+0xca>
100026bc:	9b21      	ldr	r3, [sp, #132]	@ 0x84
100026be:	2b00      	cmp	r3, #0
100026c0:	d095      	beq.n	100025ee <_ftoa+0x2e2>
100026c2:	e722      	b.n	1000250a <_ftoa+0x1fe>
100026c4:	1000450c 	.word	0x1000450c
100026c8:	100046f0 	.word	0x100046f0

100026cc <_vsnprintf>:
100026cc:	b5f0      	push	{r4, r5, r6, r7, lr}
100026ce:	4657      	mov	r7, sl
100026d0:	46de      	mov	lr, fp
100026d2:	464e      	mov	r6, r9
100026d4:	4645      	mov	r5, r8
100026d6:	b5e0      	push	{r5, r6, r7, lr}
100026d8:	b0a5      	sub	sp, #148	@ 0x94
100026da:	001f      	movs	r7, r3
100026dc:	9b2e      	ldr	r3, [sp, #184]	@ 0xb8
100026de:	4691      	mov	r9, r2
100026e0:	930d      	str	r3, [sp, #52]	@ 0x34
100026e2:	4aca      	ldr	r2, [pc, #808]	@ (10002a0c <_vsnprintf+0x340>)
100026e4:	4bca      	ldr	r3, [pc, #808]	@ (10002a10 <_vsnprintf+0x344>)
100026e6:	4682      	mov	sl, r0
100026e8:	468b      	mov	fp, r1
100026ea:	601a      	str	r2, [r3, #0]
100026ec:	2900      	cmp	r1, #0
100026ee:	d100      	bne.n	100026f2 <_vsnprintf+0x26>
100026f0:	e229      	b.n	10002b46 <_vsnprintf+0x47a>
100026f2:	2300      	movs	r3, #0
100026f4:	7838      	ldrb	r0, [r7, #0]
100026f6:	4698      	mov	r8, r3
100026f8:	2800      	cmp	r0, #0
100026fa:	d100      	bne.n	100026fe <_vsnprintf+0x32>
100026fc:	e22b      	b.n	10002b56 <_vsnprintf+0x48a>
100026fe:	4bc5      	ldr	r3, [pc, #788]	@ (10002a14 <_vsnprintf+0x348>)
10002700:	4644      	mov	r4, r8
10002702:	930c      	str	r3, [sp, #48]	@ 0x30
10002704:	4bc4      	ldr	r3, [pc, #784]	@ (10002a18 <_vsnprintf+0x34c>)
10002706:	4655      	mov	r5, sl
10002708:	464e      	mov	r6, r9
1000270a:	930e      	str	r3, [sp, #56]	@ 0x38
1000270c:	e00a      	b.n	10002724 <_vsnprintf+0x58>
1000270e:	1c63      	adds	r3, r4, #1
10002710:	4698      	mov	r8, r3
10002712:	0022      	movs	r2, r4
10002714:	0033      	movs	r3, r6
10002716:	4659      	mov	r1, fp
10002718:	47a8      	blx	r5
1000271a:	4644      	mov	r4, r8
1000271c:	7838      	ldrb	r0, [r7, #0]
1000271e:	2800      	cmp	r0, #0
10002720:	d100      	bne.n	10002724 <_vsnprintf+0x58>
10002722:	e087      	b.n	10002834 <_vsnprintf+0x168>
10002724:	3701      	adds	r7, #1
10002726:	2825      	cmp	r0, #37	@ 0x25
10002728:	d1f1      	bne.n	1000270e <_vsnprintf+0x42>
1000272a:	2308      	movs	r3, #8
1000272c:	469a      	mov	sl, r3
1000272e:	3b04      	subs	r3, #4
10002730:	4699      	mov	r9, r3
10002732:	3b02      	subs	r3, #2
10002734:	4698      	mov	r8, r3
10002736:	3b01      	subs	r3, #1
10002738:	2200      	movs	r2, #0
1000273a:	469c      	mov	ip, r3
1000273c:	940b      	str	r4, [sp, #44]	@ 0x2c
1000273e:	7838      	ldrb	r0, [r7, #0]
10002740:	1c79      	adds	r1, r7, #1
10002742:	0003      	movs	r3, r0
10002744:	3b20      	subs	r3, #32
10002746:	b2db      	uxtb	r3, r3
10002748:	2b10      	cmp	r3, #16
1000274a:	d803      	bhi.n	10002754 <_vsnprintf+0x88>
1000274c:	9c0c      	ldr	r4, [sp, #48]	@ 0x30
1000274e:	009b      	lsls	r3, r3, #2
10002750:	58e3      	ldr	r3, [r4, r3]
10002752:	469f      	mov	pc, r3
10002754:	0003      	movs	r3, r0
10002756:	3b30      	subs	r3, #48	@ 0x30
10002758:	9c0b      	ldr	r4, [sp, #44]	@ 0x2c
1000275a:	920b      	str	r2, [sp, #44]	@ 0x2c
1000275c:	2b09      	cmp	r3, #9
1000275e:	d93a      	bls.n	100027d6 <_vsnprintf+0x10a>
10002760:	2300      	movs	r3, #0
10002762:	4698      	mov	r8, r3
10002764:	282a      	cmp	r0, #42	@ 0x2a
10002766:	d100      	bne.n	1000276a <_vsnprintf+0x9e>
10002768:	e0dd      	b.n	10002926 <_vsnprintf+0x25a>
1000276a:	2300      	movs	r3, #0
1000276c:	469a      	mov	sl, r3
1000276e:	282e      	cmp	r0, #46	@ 0x2e
10002770:	d04b      	beq.n	1000280a <_vsnprintf+0x13e>
10002772:	0003      	movs	r3, r0
10002774:	3b68      	subs	r3, #104	@ 0x68
10002776:	b2db      	uxtb	r3, r3
10002778:	2b12      	cmp	r3, #18
1000277a:	d81e      	bhi.n	100027ba <_vsnprintf+0xee>
1000277c:	9a0e      	ldr	r2, [sp, #56]	@ 0x38
1000277e:	009b      	lsls	r3, r3, #2
10002780:	58d3      	ldr	r3, [r2, r3]
10002782:	469f      	mov	pc, r3
10002784:	4663      	mov	r3, ip
10002786:	000f      	movs	r7, r1
10002788:	431a      	orrs	r2, r3
1000278a:	e7d8      	b.n	1000273e <_vsnprintf+0x72>
1000278c:	4643      	mov	r3, r8
1000278e:	000f      	movs	r7, r1
10002790:	431a      	orrs	r2, r3
10002792:	e7d4      	b.n	1000273e <_vsnprintf+0x72>
10002794:	464b      	mov	r3, r9
10002796:	000f      	movs	r7, r1
10002798:	431a      	orrs	r2, r3
1000279a:	e7d0      	b.n	1000273e <_vsnprintf+0x72>
1000279c:	2310      	movs	r3, #16
1000279e:	000f      	movs	r7, r1
100027a0:	431a      	orrs	r2, r3
100027a2:	e7cc      	b.n	1000273e <_vsnprintf+0x72>
100027a4:	4653      	mov	r3, sl
100027a6:	000f      	movs	r7, r1
100027a8:	431a      	orrs	r2, r3
100027aa:	e7c8      	b.n	1000273e <_vsnprintf+0x72>
100027ac:	2380      	movs	r3, #128	@ 0x80
100027ae:	005b      	lsls	r3, r3, #1
100027b0:	9a0b      	ldr	r2, [sp, #44]	@ 0x2c
100027b2:	7878      	ldrb	r0, [r7, #1]
100027b4:	431a      	orrs	r2, r3
100027b6:	920b      	str	r2, [sp, #44]	@ 0x2c
100027b8:	3101      	adds	r1, #1
100027ba:	000f      	movs	r7, r1
100027bc:	2867      	cmp	r0, #103	@ 0x67
100027be:	d84f      	bhi.n	10002860 <_vsnprintf+0x194>
100027c0:	2824      	cmp	r0, #36	@ 0x24
100027c2:	d9a4      	bls.n	1000270e <_vsnprintf+0x42>
100027c4:	0003      	movs	r3, r0
100027c6:	3b25      	subs	r3, #37	@ 0x25
100027c8:	b2db      	uxtb	r3, r3
100027ca:	2b42      	cmp	r3, #66	@ 0x42
100027cc:	d89f      	bhi.n	1000270e <_vsnprintf+0x42>
100027ce:	4993      	ldr	r1, [pc, #588]	@ (10002a1c <_vsnprintf+0x350>)
100027d0:	009b      	lsls	r3, r3, #2
100027d2:	58cb      	ldr	r3, [r1, r3]
100027d4:	469f      	mov	pc, r3
100027d6:	2300      	movs	r3, #0
100027d8:	4698      	mov	r8, r3
100027da:	9b0b      	ldr	r3, [sp, #44]	@ 0x2c
100027dc:	4647      	mov	r7, r8
100027de:	469c      	mov	ip, r3
100027e0:	e000      	b.n	100027e4 <_vsnprintf+0x118>
100027e2:	3101      	adds	r1, #1
100027e4:	00bb      	lsls	r3, r7, #2
100027e6:	19db      	adds	r3, r3, r7
100027e8:	005b      	lsls	r3, r3, #1
100027ea:	181f      	adds	r7, r3, r0
100027ec:	7808      	ldrb	r0, [r1, #0]
100027ee:	3f30      	subs	r7, #48	@ 0x30
100027f0:	0003      	movs	r3, r0
100027f2:	3b30      	subs	r3, #48	@ 0x30
100027f4:	2b09      	cmp	r3, #9
100027f6:	d9f4      	bls.n	100027e2 <_vsnprintf+0x116>
100027f8:	4663      	mov	r3, ip
100027fa:	930b      	str	r3, [sp, #44]	@ 0x2c
100027fc:	2300      	movs	r3, #0
100027fe:	46b8      	mov	r8, r7
10002800:	469a      	mov	sl, r3
10002802:	000f      	movs	r7, r1
10002804:	3101      	adds	r1, #1
10002806:	282e      	cmp	r0, #46	@ 0x2e
10002808:	d1b3      	bne.n	10002772 <_vsnprintf+0xa6>
1000280a:	2080      	movs	r0, #128	@ 0x80
1000280c:	9a0b      	ldr	r2, [sp, #44]	@ 0x2c
1000280e:	00c0      	lsls	r0, r0, #3
10002810:	4302      	orrs	r2, r0
10002812:	920b      	str	r2, [sp, #44]	@ 0x2c
10002814:	2230      	movs	r2, #48	@ 0x30
10002816:	4252      	negs	r2, r2
10002818:	4694      	mov	ip, r2
1000281a:	7878      	ldrb	r0, [r7, #1]
1000281c:	000b      	movs	r3, r1
1000281e:	4484      	add	ip, r0
10002820:	4662      	mov	r2, ip
10002822:	2a09      	cmp	r2, #9
10002824:	d800      	bhi.n	10002828 <_vsnprintf+0x15c>
10002826:	e1aa      	b.n	10002b7e <_vsnprintf+0x4b2>
10002828:	282a      	cmp	r0, #42	@ 0x2a
1000282a:	d100      	bne.n	1000282e <_vsnprintf+0x162>
1000282c:	e1b9      	b.n	10002ba2 <_vsnprintf+0x4d6>
1000282e:	000f      	movs	r7, r1
10002830:	3101      	adds	r1, #1
10002832:	e79e      	b.n	10002772 <_vsnprintf+0xa6>
10002834:	46a0      	mov	r8, r4
10002836:	46aa      	mov	sl, r5
10002838:	46b1      	mov	r9, r6
1000283a:	45c8      	cmp	r8, r9
1000283c:	d303      	bcc.n	10002846 <_vsnprintf+0x17a>
1000283e:	2301      	movs	r3, #1
10002840:	425b      	negs	r3, r3
10002842:	444b      	add	r3, r9
10002844:	4698      	mov	r8, r3
10002846:	464b      	mov	r3, r9
10002848:	4642      	mov	r2, r8
1000284a:	4659      	mov	r1, fp
1000284c:	2000      	movs	r0, #0
1000284e:	47d0      	blx	sl
10002850:	0020      	movs	r0, r4
10002852:	b025      	add	sp, #148	@ 0x94
10002854:	bcf0      	pop	{r4, r5, r6, r7}
10002856:	46bb      	mov	fp, r7
10002858:	46b2      	mov	sl, r6
1000285a:	46a9      	mov	r9, r5
1000285c:	46a0      	mov	r8, r4
1000285e:	bdf0      	pop	{r4, r5, r6, r7, pc}
10002860:	0001      	movs	r1, r0
10002862:	3969      	subs	r1, #105	@ 0x69
10002864:	b2c9      	uxtb	r1, r1
10002866:	290f      	cmp	r1, #15
10002868:	d900      	bls.n	1000286c <_vsnprintf+0x1a0>
1000286a:	e750      	b.n	1000270e <_vsnprintf+0x42>
1000286c:	2301      	movs	r3, #1
1000286e:	408b      	lsls	r3, r1
10002870:	469c      	mov	ip, r3
10002872:	4b6b      	ldr	r3, [pc, #428]	@ (10002a20 <_vsnprintf+0x354>)
10002874:	4699      	mov	r9, r3
10002876:	4663      	mov	r3, ip
10002878:	464a      	mov	r2, r9
1000287a:	4013      	ands	r3, r2
1000287c:	930f      	str	r3, [sp, #60]	@ 0x3c
1000287e:	4662      	mov	r2, ip
10002880:	464b      	mov	r3, r9
10002882:	421a      	tst	r2, r3
10002884:	d000      	beq.n	10002888 <_vsnprintf+0x1bc>
10002886:	e168      	b.n	10002b5a <_vsnprintf+0x48e>
10002888:	290a      	cmp	r1, #10
1000288a:	d056      	beq.n	1000293a <_vsnprintf+0x26e>
1000288c:	2907      	cmp	r1, #7
1000288e:	d000      	beq.n	10002892 <_vsnprintf+0x1c6>
10002890:	e73d      	b.n	1000270e <_vsnprintf+0x42>
10002892:	9b0d      	ldr	r3, [sp, #52]	@ 0x34
10002894:	cb02      	ldmia	r3!, {r1}
10002896:	4698      	mov	r8, r3
10002898:	2900      	cmp	r1, #0
1000289a:	d000      	beq.n	1000289e <_vsnprintf+0x1d2>
1000289c:	e192      	b.n	10002bc4 <_vsnprintf+0x4f8>
1000289e:	9b0b      	ldr	r3, [sp, #44]	@ 0x2c
100028a0:	2110      	movs	r1, #16
100028a2:	001a      	movs	r2, r3
100028a4:	438a      	bics	r2, r1
100028a6:	0010      	movs	r0, r2
100028a8:	3111      	adds	r1, #17
100028aa:	4308      	orrs	r0, r1
100028ac:	4681      	mov	r9, r0
100028ae:	2080      	movs	r0, #128	@ 0x80
100028b0:	001a      	movs	r2, r3
100028b2:	00c0      	lsls	r0, r0, #3
100028b4:	4002      	ands	r2, r0
100028b6:	0011      	movs	r1, r2
100028b8:	4203      	tst	r3, r0
100028ba:	d11c      	bne.n	100028f6 <_vsnprintf+0x22a>
100028bc:	ab14      	add	r3, sp, #80	@ 0x50
100028be:	469c      	mov	ip, r3
100028c0:	221f      	movs	r2, #31
100028c2:	230f      	movs	r3, #15
100028c4:	4462      	add	r2, ip
100028c6:	950d      	str	r5, [sp, #52]	@ 0x34
100028c8:	469c      	mov	ip, r3
100028ca:	0015      	movs	r5, r2
100028cc:	9b0f      	ldr	r3, [sp, #60]	@ 0x3c
100028ce:	940b      	str	r4, [sp, #44]	@ 0x2c
100028d0:	e002      	b.n	100028d8 <_vsnprintf+0x20c>
100028d2:	2b20      	cmp	r3, #32
100028d4:	d00c      	beq.n	100028f0 <_vsnprintf+0x224>
100028d6:	0011      	movs	r1, r2
100028d8:	4664      	mov	r4, ip
100028da:	400c      	ands	r4, r1
100028dc:	0020      	movs	r0, r4
100028de:	3037      	adds	r0, #55	@ 0x37
100028e0:	2c09      	cmp	r4, #9
100028e2:	d800      	bhi.n	100028e6 <_vsnprintf+0x21a>
100028e4:	3807      	subs	r0, #7
100028e6:	3301      	adds	r3, #1
100028e8:	54e8      	strb	r0, [r5, r3]
100028ea:	090a      	lsrs	r2, r1, #4
100028ec:	290f      	cmp	r1, #15
100028ee:	d8f0      	bhi.n	100028d2 <_vsnprintf+0x206>
100028f0:	9c0b      	ldr	r4, [sp, #44]	@ 0x2c
100028f2:	9d0d      	ldr	r5, [sp, #52]	@ 0x34
100028f4:	930f      	str	r3, [sp, #60]	@ 0x3c
100028f6:	464b      	mov	r3, r9
100028f8:	2208      	movs	r2, #8
100028fa:	9306      	str	r3, [sp, #24]
100028fc:	4653      	mov	r3, sl
100028fe:	9205      	str	r2, [sp, #20]
10002900:	3208      	adds	r2, #8
10002902:	9203      	str	r2, [sp, #12]
10002904:	2200      	movs	r2, #0
10002906:	9304      	str	r3, [sp, #16]
10002908:	9b0f      	ldr	r3, [sp, #60]	@ 0x3c
1000290a:	9202      	str	r2, [sp, #8]
1000290c:	9301      	str	r3, [sp, #4]
1000290e:	ab1c      	add	r3, sp, #112	@ 0x70
10002910:	0022      	movs	r2, r4
10002912:	9300      	str	r3, [sp, #0]
10002914:	4659      	mov	r1, fp
10002916:	0033      	movs	r3, r6
10002918:	0028      	movs	r0, r5
1000291a:	f7ff f98d 	bl	10001c38 <_ntoa_format>
1000291e:	4643      	mov	r3, r8
10002920:	0004      	movs	r4, r0
10002922:	930d      	str	r3, [sp, #52]	@ 0x34
10002924:	e6fa      	b.n	1000271c <_vsnprintf+0x50>
10002926:	9b0d      	ldr	r3, [sp, #52]	@ 0x34
10002928:	cb04      	ldmia	r3!, {r2}
1000292a:	4690      	mov	r8, r2
1000292c:	2a00      	cmp	r2, #0
1000292e:	db79      	blt.n	10002a24 <_vsnprintf+0x358>
10002930:	7878      	ldrb	r0, [r7, #1]
10002932:	930d      	str	r3, [sp, #52]	@ 0x34
10002934:	000f      	movs	r7, r1
10002936:	3101      	adds	r1, #1
10002938:	e717      	b.n	1000276a <_vsnprintf+0x9e>
1000293a:	9b0d      	ldr	r3, [sp, #52]	@ 0x34
1000293c:	cb02      	ldmia	r3!, {r1}
1000293e:	9314      	str	r3, [sp, #80]	@ 0x50
10002940:	780b      	ldrb	r3, [r1, #0]
10002942:	469c      	mov	ip, r3
10002944:	0018      	movs	r0, r3
10002946:	4653      	mov	r3, sl
10002948:	2b00      	cmp	r3, #0
1000294a:	d100      	bne.n	1000294e <_vsnprintf+0x282>
1000294c:	e134      	b.n	10002bb8 <_vsnprintf+0x4ec>
1000294e:	2800      	cmp	r0, #0
10002950:	d015      	beq.n	1000297e <_vsnprintf+0x2b2>
10002952:	4653      	mov	r3, sl
10002954:	3b01      	subs	r3, #1
10002956:	3301      	adds	r3, #1
10002958:	4699      	mov	r9, r3
1000295a:	940d      	str	r4, [sp, #52]	@ 0x34
1000295c:	9c0b      	ldr	r4, [sp, #44]	@ 0x2c
1000295e:	4489      	add	r9, r1
10002960:	464a      	mov	r2, r9
10002962:	000b      	movs	r3, r1
10002964:	46a1      	mov	r9, r4
10002966:	e001      	b.n	1000296c <_vsnprintf+0x2a0>
10002968:	4293      	cmp	r3, r2
1000296a:	d003      	beq.n	10002974 <_vsnprintf+0x2a8>
1000296c:	785c      	ldrb	r4, [r3, #1]
1000296e:	3301      	adds	r3, #1
10002970:	2c00      	cmp	r4, #0
10002972:	d1f9      	bne.n	10002968 <_vsnprintf+0x29c>
10002974:	464a      	mov	r2, r9
10002976:	1a5b      	subs	r3, r3, r1
10002978:	9c0d      	ldr	r4, [sp, #52]	@ 0x34
